:020000040800F2
:1000000038170020B10100084F190008E717000851
:100010004D190008B3070008ED1C0008000000009F
:10002000000000000000000000000000C11A0008ED
:10003000B50700080000000051190008C31A0008A5
:10004000CB010008CB010008CB010008CB01000860
:10005000CB010008CB010008CB010008CB01000850
:10006000CB010008CB010008CB010008CB01000840
:10007000CB010008CB010008CB010008CB01000830
:10008000CB010008CB010008CB01000800000000F4
:10009000000000000000000000000000CB0100088C
:1000A000CB010008CB010008CB010008CB01000800
:1000B000CB010008CB010008CB010008CB010008F0
:1000C000CB010008CB010008CB010008CB010008E0
:1000D000CB010008CB010008CB01000800000000A4
:1000E000CB010008CB010008CB0100080000000094
:1000F000000000000000000000000000CB0100082C
:1001000000000000CB010008CB010008CB01000873
:1001100000000000000000000000000000000000DF
:10012000CB010008CB010008CB010008CB0100087F
:10013000CB010008000000000000000000000000EB
:10014000000000000000000000000000CB010008DB
:10015000CB010008CB010008CB010008CB0100084F
:10016000CB010008CB0100080000000000000000E7
:10017000000000000000000000000000000000007F
:1001800000000000CB01000800000000000000009B
:10019000CB010008CB010008DFF810D000F0CCFA4A
:1001A0000048004725990008AFF300803817002069
:1001B0000648804706480047FEE7FEE7FEE7FEE701
:1001C000FEE7FEE7FEE7FEE7FEE7FEE7591B000855
:1001D000990100082DE9F05F0546002092469B46F4
:1001E00088460646814640241BE02846414647464D
:1001F000224600F020F853465A46C01A914110D3C7
:1002000011461846224600F091F92D1A67EB0108B5
:100210004F4622460120002100F088F917EB000923
:100220004E41201EA4F10104DFDC484631462A4637
:100230004346BDE8F09F202A04DB203A21FA02F071
:100240000021704721FA02F3D040C2F12002914010
:1002500008431946704740EA01039B0703D009E0B1
:1002600008C9121F08C0042AFAD203E011F8013BA2
:1002700000F8013B521EF9D27047D2B201E000F8FB
:10028000012B491EFBD270470022F6E710B513463A
:100290000A4604461946FFF7F0FF204610BD2DE937
:1002A000FE4F804681EA0300C00F0C46009021F00B
:1002B000004123F00045B8EB0200A94105D24046B9
:1002C000214690461C460B46024623F00040104350
:1002D00047D0270DC7F30A00C3F30A510290401A12
:1002E000019040286BDAC3F3130040F4801B0098A0
:1002F000924620B10023D2EB030A63EB0B0B01986B
:100300005946C0F14002504600F010F906460D462D
:1003100050465946019A00F018F910EB0800614167
:10032000002487EA115284EAE7731A4340D0009A06
:1003300062B3019A012A4FEA075215DC001B61EBF8
:1003400002014FF0004202EA0752CDE90042001CD0
:1003500041F5801132462B4600F018F903B0BDE894
:10036000F08F40462146F9E7001B61EB0201001CBB
:1003700041F5801300185B412018A2F5001747EBE8
:10038000030140EAD570B6196D4111E06D084FEADE
:10039000360645EAC0754FEA0752001B61EB0201C1
:1003A000001C41F5801149084FEA30000019514105
:1003B00032462B4603B0BDE8F04F00F0D8B80098A5
:1003C000012240000023D0EB020263EBE0730098AF
:1003D00021464FEAE074B8EB000061EB0401E9E765
:1003E00083F000435BE781F0004158E72DE9FE4FC1
:1003F00081EA030404F0004421F0004100944FF02E
:10040000000B23F0004350EA01045ED052EA0304DB
:100410005BD0C3F30A54C1F30A552C44A4F2F3345D
:100420000194A0FB0254C1F3130141F48011C3F302
:10043000130343F4801301FB024400FB034E840AC0
:10044000970A44EA815447EA8357A4FB0768029558
:100450008D0A05FB07854FEA932C04FB0C542705F6
:10046000029D4FEA065847EA1637B5EB08056EEBD2
:10047000070C870E920E47EA811742EA8312A7FB08
:100480000201B6EB0B0164EB00042B0D43EA0C33C5
:100490005E1844EB1C50DA465146E7FB0201C5F3F7
:1004A00013044FEA0B3343EA14534FEA0432019C1E
:1004B00043EA0603A4F10C040294009CCDE900B4C5
:1004C00000F064F803B0BDE8F08F00200146F9E7C2
:1004D000C1F30A52C1F3130140F2FF3341F480111A
:1004E0009A4202DA00200146704740F233439A42B2
:1004F000A2F2334202DC5242FFF79DBE00F016B872
:1005000030B50B46014600202022012409E021FAE3
:1005100002F59D4205D303FA02F5491B04FA02F5E0
:100520002844151EA2F10102F1DC30BD202A04DBB3
:10053000203A00FA02F1002070479140C2F12003F6
:1005400020FA03F3194390407047202A06DBCB17AB
:10055000203A41FA02F043EAE07306E041FA02F37E
:10056000D040C2F12002914008431946704710B5AF
:10057000141E73F1000408DA401C41F100019218C6
:100580005B411A4301D120F0010010BD2DE9F04D6F
:1005900092469B4611B1B1FA81F202E0B0FA80F2C4
:1005A00020329046FFF7C2FF04460F4640EA0A0099
:1005B00041EA0B0153465A46084313D0114653EA09
:1005C000010019D0C8F140025046FFF734FE05463D
:1005D0000E46504659464246FFF7A8FF084305D04D
:1005E000012004E020463946BDE8F08D0020054397
:1005F00046EAE0762C4337430A986305E40AA0EB09
:1006000008000022FD0A44EA47540A3002D50020BF
:100610000146E9E7010510196941DDE908450019BE
:100620006941BDE8F04DA2E72DE9F04D81EA0304F0
:1006300004F0004B21F0004514464FF0000A23F06F
:10064000004150EA050220D054EA01021DD0C5F352
:100650000A570246C5F31303C1F31300C1F30A5648
:1006600040F4801543F48013A7EB0608101BD64610
:1006700008F2FD3873EB050002D308F1010801E030
:1006800092185B41B8F1000F03DA00200146BDE883
:10069000F08D00204FF48011064684460EE0171BB3
:1006A00073EB050705D3121B63EB050306434CEA06
:1006B000010C49084FEA300092185B4150EA0107EB
:1006C000EDD152EA030012D082EA040083EA050168
:1006D000084305D0101BAB4106D20122002306E0DF
:1006E00000224FF0004302E06FF0010253101AEBBA
:1006F00006004CEB085110EB0A0041EB0B01BDE882
:10070000F04DFFF734BF000030B5041E71F1000456
:1007100004DB4FF00044404264EB0101141E73F10E
:10072000000405DB1C464FF00043524263EB040318
:10073000994208BF904230BD064C074D06E0E06884
:1007400040F0010394E8070098471034AC42F6D318
:10075000FFF726FD34BB000854BB000870B58C18A9
:1007600010F8015B15F0070301D110F8013B2A11C5
:1007700006D110F8012B03E010F8016B01F8016BB2
:100780005B1EF9D12B0705D40023521E0DD401F8AE
:10079000013BFAE710F8013BCB1A921C03E013F877
:1007A000015B01F8015B521EF9D5A142D8D30020AC
:1007B00070BDFEE77047704772B6FEE770B504463D
:1007C00000F004F90546601C02D004480078044497
:1007D00000F0FCF8401BA042FAD370BD10020020CC
:1007E0002DE9F84FDFF8B8A10022012403254FF0CE
:1007F0000F090AF1040BAAF1040E00BF0B6804FAFA
:1008000002F63340B34273D10F7907F00307012F8B
:1008100001D0022F16D187684FEA420805FA08FC7A
:1008200027EA0C07D1F80CC00CFA08FC4CEA070CBC
:10083000C0F808C04768B7430E79C6F30016964063
:100840003E4346600E79F643B6070DD0C7685600A2
:1008500005FA06FC27EA0C07D1F808C00CFA06FCDA
:100860004CEA070CC0F80CC00E7906F00306022E05
:1008700010D1D60800EB8608D8F8206057074FEA59
:10088000D76C09FA0CF7BE430F6907FA0CF7374328
:10089000C8F8207006684FEA420C05FA0CF7BE4310
:1008A0000F7907F0030707FA0CF7374307604E6824
:1008B00016F4403F6DD03B4E376847F480473760B1
:1008C000366822F0030706F480460096364E07EBA2
:1008D000060CDCF8086897073F0F09FA07F826EAC4
:1008E0000806DFF8C880404503D14FF000081EE03D
:1008F0004FE0DFF8BC80404502D14FF0010816E020
:10090000DFF8B080404502D14FF002080FE0DFF879
:10091000A880404502D14FF0030808E0DFF89C8032
:10092000404502D14FF0040801E04FF0070808FAF3
:1009300007F848EA0608CCF80888DAF80060574655
:10094000D1F804C09E435FEACC2C00D51E433E6024
:10095000DBF800605F46D1F804C09E435FEA8C2C50
:1009600000D51E433E60DEF800607746D1F804C033
:100970009E435FEA8C3C00D51E433E60084F083F13
:100980003E68D1F804C09E435FEACC3C00D51E43CC
:100990003E60521C102AFFF431AFBDE8F88F000012
:1009A000083C014044380240003001400000024051
:1009B0000004024000080240000C02400010024007
:1009C0000AB1816170470904FBE7000001488068B3
:1009D000704700001002002002488168027811442C
:1009E00081607047100200200B4810B5016841F487
:1009F00000710160016841F480610160016841F4A7
:100A000080710160032000F061F80F2000F006F80B
:100A100000F024F8002010BD003C024070B50D4DE0
:100A200004464FF47A712878B1FBF0F00A4909685E
:100A3000B1FBF0F000F005FE48B9102C07D20022FF
:100A40002146501E00F022F800206C6070BD01208D
:100A500070BD0000100200201C0200200A4808B5EA
:100A6000016841F480410160006800F4804000901A
:100A70000548001F016841F080510160006800F0E6
:100A80008050009008BD000044380240F0B40E4B86
:100A90001B680C46C3F30223C3F10705042D00D9DC
:100AA0000425191D072901D2002300E0DB1E0126C1
:100AB00006FA05F1491E214099409E40761E1640D7
:100AC0003143F0BC01F024B90CED00E0064900F020
:100AD000070208684FF6FF03184040EA0220034A65
:100AE00010430860704700000CED00E00000FA05BC
:100AF0002DE9F0470E46050065D0DFF81481D8F8DF
:100B00000000F7B200F00700B04207D288F800708A
:100B1000D8F8000000F00700B04254D128683D4CDE
:100B2000810712D5400703D5206840F4E0502060CB
:100B30002878000703D5206840F4604020602068D2
:100B4000A96820F0F000084320602878C0072DD065
:100B5000304968680839012812D0022813D00328C8
:100B600011D00968890700292DDA216821F00301D5
:100B700001432160FFF72AFF814641F2883A0EE0E7
:100B800009688903EFE709688901ECE7FFF71EFFB1
:100B9000A0EB0901514502D90320BDE8F087206888
:100BA000696800F00C00B0EB810FEFD1D8F80010AD
:100BB000404601F00701B14207D90770006800F014
:100BC0000700B04201D00120E7E72878400705D5AB
:100BD0002068E96820F4E050084320602878000786
:100BE00006D52068296920F4604040EAC1002060F1
:100BF00000F038F82168084AC1F30311515CC8407D
:100C00000649086006480068FFF708FF0020C4E7AF
:100C1000003C024008380240CE9D00081C02002023
:100C2000140200200448054900680968044AC1F319
:100C30008221515CC84070471C02002008380240E5
:100C4000DE9D00080448054900680968044AC1F3AC
:100C50004231515CC84070471C02002008380240F5
:100C6000DE9D0008154810B5006810F00C0214480D
:100C700013D01449042A0FD0082A0ED10F4C241F78
:100C80002268236802F03F025B0207D52068C0F3A8
:100C90008810A0FB010106E0084610BD2168C1F3E1
:100CA0008811A1FB00010023FFF794FA2168C1F32A
:100CB0000141491C4900B0FBF1F010BD0838024069
:100CC0000024F40040787D012DE9F84F04006ED037
:100CD0002078DFF84C93C007A9F104054AD009F148
:100CE00004000168C1F38101012908D00068C0F344
:100CF000810002280AD1D9F80000400206D52868F0
:100D0000800337D560680028E1D033E06068B0F533
:100D1000803F10D0B0F5A02F286810D020F480308C
:100D20002860286820F4802028606068A8B1FFF758
:100D30004DFE06460DE0286840F48030F4E740F4AC
:100D400080202860F7E700BFFFF740FE801B642883
:100D500073D828688003F7D50CE0FFF737FE064606
:100D600005E000BFFFF732FE801B6428F0D828683A
:100D70008003F7D42078DFF8AC8280074FF0000AB8
:100D80003ED5A748001D016811F00C0F08D000687F
:100D9000C0F3810002280BD1D9F80000400207D42B
:100DA0002868800716D5E068012800D112E033E1F9
:100DB000E068B8B10120C8F80000FFF707FE06465A
:100DC00005E000BFFFF702FE801B0228C0D828689C
:100DD0008007F7D52868216920F0F80040EAC100B3
:100DE00028600DE0C8F800A0FFF7F0FD064604E01B
:100DF000FFF7ECFD801B02281FD828688007F7D476
:100E00002078000722D5864F87486169703771B115
:100E100001210160FFF7DAFD064604E0FFF7D6FD89
:100E2000801B022809D838688007F7D50EE0C0F883
:100E300000A0FFF7CBFD064605E082E0FFF7C6FD08
:100E4000801B02287DD838688007F7D420784007B7
:100E500068D5DFF8CCB100270BF13C0BDBF80000C4
:100E6000C0000BD4DBF8001041F08051CBF800102B
:100E7000DBF80000012700F0805000906B4E3068D6
:100E8000C00510D4306840F480703060FFF79EFDDC
:100E9000009005E0FFF79AFD0099401A022850D80B
:100EA0003068C005F6D55E4EA0686C3601280FD0BC
:100EB0000528306810D020F001003060306820F044
:100EC00004003060A068B8B1FFF780FD00900FE02B
:100ED000306840F00100F4E740F004003060F7E7CC
:100EE000FFF774FD0099411A41F28830814266D8BB
:100EF00030688007F4D50EE0FFF768FD009007E04A
:100F0000FFF764FD0099411A41F28830814256D8BA
:100F100030688007F4D42FB1DBF8001021F0805145
:100F2000CBF80010A069C8B33D49091D0968C1F399
:100F3000810102294AD00228504607D0C8F8600033
:100F400000E03CE0FFF742FD04463BE04746C8F8BE
:100F50006000FFF73BFD064605E000BFFFF736FDEA
:100F6000801B02282BD828688001F7D4D4E9070118
:100F70000843A16A2E4A490802EB0141626A41EA2C
:100F80008211084394F82C1040EA0161C9F800105E
:100F900001203866FFF71AFD044606E03EE000BF78
:100FA000FFF714FD001B022809D828688001F7D537
:100FB00034E000BFFFF70AFD001B022802D903201E
:100FC000BDE8F88F28688001F4D427E00128F7D025
:100FD000D9F80000E26900F4800191421CD1226A34
:100FE00000F03F01914217D147F6C071626A01409B
:100FF000B1EB821F10D1A26A4FF0FF3300F44031F1
:1010000003EB5202B1EB024F06D194F82C1000F022
:101010007060B0EB016F01D00120D1E70020CFE775
:101020000438024000004742800E474200700040F2
:101030000000FFFF70B5040009D0606A002540B1D0
:1010400025616561A56294F8510040B10CE0012072
:1010500070BD6068B0F5827FF4D0E561F2E784F896
:101060005050204600F044F8022084F851002068D7
:10107000016821F040010160A088218900F482709C
:1010800001F404410843A18901F400610843217C73
:1010900001F002010843217D01F001010843218B89
:1010A00001F400710843217F01F03801084394F8EE
:1010B000201001F080010843218D01F40051084304
:1010C00021680860A069042101EA104094F8241006
:1010D00001F010010843216848602068C16921F4CB
:1010E0000061C1616565012084F85100002070BD78
:1010F00070B586B0044614216846FFF7C5F8234E44
:10110000226800212248022303240525B2421AD175
:101110001F4A1432166846F480561660126802F4AC
:1011200080520592026842F001020260006802AA41
:1011300000F00100059082E83200E020CDE90003D4
:10114000694614481DE0144EB2421CD1104A1032B8
:10115000166846F480461660126802F480420592D2
:10116000026842F002020260006802AA00F0020077
:10117000059082E832004FF44440CDE9000369460F
:101180000648FFF72DFB06B070BD0000003001409F
:1011900030380240000002400038004000040240A5
:1011A0002DE9F84F044640680025984616460F463C
:1011B0004FF0040BB0F5827F01D1A06888B194F89C
:1011C0005000012818D0012084F85000FFF7FEFBE2
:1011D000814694F851004FF0000A01280ED00225F4
:1011E00082E084F851B013460A462046CDF80080CC
:1011F00000F036F9BDE8F88F0220FBE7002F72D02F
:10120000002E70D084F851B0C4F854A0A763A6870C
:10121000E687C4F830A0A4F834A0A4F836A0C4F837
:1012200040A0C4F844A0A068B0F5004F09D12068E0
:10123000016821F0400101602068016821F48041CB
:10124000016020680168490603D4016841F040014B
:101250000160E068D8B139E020688168C90709D029
:10126000007BA16B0870A06B401CA063E08F401E48
:10127000E0870CE0FFF7AAFBA0EB0901414503D38F
:10128000B8F1FF3F03D036E0B8F1000F33D0E08F64
:101290000028E1D11DE020688168C90709D0C06835
:1012A000A16B0880A06B801CA063E08F401EE087CC
:1012B0000CE0FFF78BFBA0EB0901414503D3B8F12C
:1012C000FF3F03D017E0B8F1000F14D0E08F0028E3
:1012D000E1D14A464146204600F03BFB08B12020C0
:1012E0006065606D00B10125012084F8510084F82B
:1012F00050A028467EE70325F6E72DE9F84F04467F
:1013000090F8500000271D461646894601280DD04A
:101310004FF0010B84F850B0FFF758FB804694F86B
:101320005100BA46012804D0022793E00220BDE80C
:10133000F88FB9F1000F73D0002E71D0032084F81C
:101340005100C4F854A0C4F83090A686E686C4F8CC
:1013500038A0A4F83CA0A4F83EA0C4F844A0C4F867
:1013600040A0A068B0F5004F09D12068016821F0C5
:10137000400101602068016841F4804101602068FB
:101380000168490603D4016841F040010160E0684A
:10139000B0F5006F606803D030B3012E24D041E077
:1013A00008B1012E1CD1206B21680088C86006E0BE
:1013B00020688168890709D5216B0988C160206B85
:1013C000801C2063E08E401EE08609E0FFF7FEFAF5
:1013D000A0EB0800A84202D3681C01D031E07DB325
:1013E000E08E0028E4D120E0206B216800780873AB
:1013F00006E020688168890709D5216B09780173A7
:10140000206B401C2063E08E401EE0860AE0FFF760
:10141000DDFAA0EB0800A84203D3681C02D010E05C
:1014200017E06DB1E08E0028E3D142462946204600
:1014300000F0BEFA08B120206065A06818B106E08F
:10144000FFE7032706E02068C16880680090606DB0
:1014500000B1012784F851B084F850A0384666E7FF
:101460002DE9F84F044690F8500000270A9E1D46CB
:1014700092468B464FF0010901280ED0012084F8D6
:101480005000FFF7A3FA804694F8510061680128E4
:101490000CD0B1F5827F07D102E00220BDE8F88FC1
:1014A000A16809B9042801D00227C2E0BBF1000FEE
:1014B00027D0BAF1000F24D01DB394F851000428AE
:1014C00002D0052084F8510000206065C4F838A0DF
:1014D000E587A587C4F830B0E586A58620646064FA
:1014E00020680168490603D4016841F040010160A9
:1014F000E068B0F5006F606805D0E8B3012D46D014
:101500007FE0012795E008B1012D39D1206B2168DA
:101510000088C860206B801C2063E08E401EE0863F
:101520002EE02068816889070FD5E18E69B1B9F195
:10153000010F0AD1216B0988C160206B801C2063D8
:10154000E08E401EE0864FF0000920688168C907E0
:101550000CD0E18F51B1C068A16B0880A06B801CDA
:10156000A063E08F401EE0874FF00109FFF72EFADD
:10157000A0EB0800B04200E009E001D3701C50D19C
:10158000E08E0028CDD1E08F0028CAD13FE0206B4B
:10159000216800780873206B401C2063E08E401E99
:1015A000E0862EE02068816889070FD5E18E69B159
:1015B000B9F1010F0AD1216B09780173206B401C2E
:1015C0002063E08E401EE0864FF0000920688168AD
:1015D000C9070CD0E18F51B1C068A16B0870A06B36
:1015E000401CA063E08F401EE0874FF00109FFF729
:1015F000EDF9A0EB0800B04202D3701C01D010E05E
:101600007EB1E08E0028CDD1E08F0028CAD14246BD
:101610003146204600F0CCF928B101272020606532
:1016200007E0032705E0A06818B92068C168806852
:101630000090012084F85100002084F850003846C2
:101640002CE710B5401EB0F1807F01D3012010BD02
:101650004FF0E02460610F21601700F059FB00207B
:10166000A06107202061002010BD70B5040004D0E7
:1016700094F83D00002510B106E0012070BD84F80B
:101680003C50204600F022F8242084F83D002068D9
:10169000C16821F40051C160204600F065FA20685D
:1016A000016921F4904101612068416921F02A011A
:1016B00041612068C16841F40051C1602564202067
:1016C00084F83D0084F83E00002070BD10B586B05F
:1016D000044614216846FEF7D7FD13492068884266
:1016E00020D112480021026842F010020260006816
:1016F00000F0100005900D481438026842F0020214
:101700000260006800F0020005904820009002206E
:10171000CDE90101032003900720049069460448A5
:10172000FFF75EF806B010BD0010014044380240DB
:10173000000402402DE9F843044690F83D001F469E
:1017400016460D4620284CD1C5B1BEB194F83C00D8
:10175000012846D0012084F83C004FF00008C4F86E
:101760004080212084F83D00FFF730F9A6848146AF
:10177000E684A068B0F5805F03D004E00120BDE8F6
:10178000F883206928B12E465FF0000584F83C807C
:101790000EE00026FAE78021204600F06BFAA0B99F
:1017A000AEB116F8010B21684860E08C401EE08461
:1017B000E08C4B464FF0000200970028EBD14FF031
:1017C0004001204600F056FA30B10320D7E735F843
:1017D000020BC0F30800E6E7202084F83D0000205B
:1017E000CDE70220CBE7FEE72DE9F04186B01421DA
:1017F0006846FEF749FD22480024016841F00401D3
:101800000160016801F004010591016841F0800167
:101810000160016801F080010591016841F001015A
:101820000160016801F001010591016841F00201C8
:1018300001600068134F00F002004FF4005505905E
:10184000002229463846FFF7BBF8DFF83C8000222B
:1018500029464046FFF7B4F801260095CDE901641A
:10186000694638460394FEF7BBFF0095CDE9016455
:10187000694640460394FEF7B3FF06B0BDE8F08129
:101880003038024000080240000402400F4810B502
:101890000D4901604FF48271416000218160C16097
:1018A0004FF400720161C0E90512C1610162416239
:1018B00081620A21C162FFF7BDFB002803D0BDE8A9
:1018C0001040FEF779BF10BD0030014040020020FB
:1018D0000F4810B50D4901604FF48271416000213D
:1018E0008160C1604FF400720161C0E90512C161FD
:1018F0000162416281620A21C162FFF79BFB0028FD
:1019000003D0BDE81040FEF757BF10BD00380040BF
:10191000980200200C4810B50A4901604FF4E131EB
:101920004160002181600C22C160C0E90412816124
:10193000C161FFF79AFE002803D0BDE81040FEF712
:101940003BBF10BD00100140F0020020FEE7FEE7A3
:101950007047F8B5044640684FF48273984221D12D
:10196000A0684FF48065B0F5004F01D0A8420AD1BD
:101970002068066826F0400606606068984211D12B
:10198000A068A8420ED000920B460022802120467B
:1019900000F03AF8002804D0606D40F02000606547
:1019A0000320F8BD00920B4600220121EFE7000062
:1019B00038B504461248134B0068B0FBF3F04FF4FF
:1019C0007A73584300906068B0F5827F0DD10B4662
:1019D000009200228021204600F016F870B1606D60
:1019E00040F020006065032038BD009830B1401EF3
:1019F000009020688068C0430006F6D5002038BDFE
:101A00001C02002000366E012DE9F8431E46914667
:101A100088460446089DFEF7D9FF401B351AFEF79D
:101A2000D5FF074625480068C0F3CB30684338E04F
:101A3000701C37D0FEF7CAFFC01BA84203D215B1F5
:101A4000009860B32CE02068416821F0E00141601B
:101A50006068B0F5827F0BD1A068B0F5004F02D06E
:101A6000B0F5806F04D12068016821F04001016069
:101A7000A06AB0F5005F09D12068016821F4005127
:101A800001602068016841F400510160012084F880
:101A90005100002084F850000320BDE8F8830025A1
:101AA000401E00902068816838EA010004D00021BF
:101AB0004945BDD10020F0E70121F9E71C020020D3
:101AC0007047FEF789BF000030B593B030216846FB
:101AD000FEF7DAFB14210CA8FEF7D6FB1C48002504
:101AE000016841F080510160006800F08050119061
:101AF0001848016841F4404101600068022400F484
:101B00004040119001200090000401908001CDE937
:101B100006400C2008906020CDE9090404200B90B9
:101B20006846FFF7D1F808B172B6FEE70CA90F209E
:101B300081E831004FF48050CDE90F0503210CA856
:101B4000FEF7D6FF002801D072B6FEE713B030BD15
:101B500040380240007000400248016841F47001C2
:101B60000160704788ED00E070B5044600680169C7
:101B7000E26821F44051114301612169A068E269E2
:101B800008436169114308432168CA6849F20C633C
:101B90009A430243CA6020684169A26921F44071F6
:101BA0001143416131492068884202D0304988425E
:101BB00002D1FFF747F801E0FFF734F8E2690023AC
:101BC000192164253226B2F5004F626828D0A0FBA7
:101BD0000101930F9200FEF7FDFA0146B0FBF5F00C
:101BE0006FF01802504301EB800006EB0010B0FBD1
:101BF000F5F000F0F002B1FBF5F002EB0012B1FBE2
:101C0000F5F06FF01803584301EB800006EB00106D
:101C1000B0FBF5F000F00F0021681044886070BD43
:101C2000A0FB010192185B41FEF7D4FA0146B0FB1C
:101C3000F5F00201B1FBF5F06FF01803584301EB2A
:101C4000800006EBC000B0FBF5F000F0F80002EBFE
:101C50004002B1FBF5F0584301EB800006EBC000F9
:101C6000B0FBF5F000F00700D6E7000000100140DF
:101C7000001401402DE9F041984617460E460446EF
:101C8000069D27E0681C25D02DB1FEF79FFEA0EB36
:101C90000800A8421ED920680C3050E8001F21F42B
:101CA000D07140E80012002AF5D12068143050E8C5
:101CB000001F21F0010140E80012002AF5D1202088
:101CC00084F83D0084F83E00002084F83C000320A6
:101CD000BDE8F0812068006836EA000004D00020EA
:101CE000B842CFD00020F3E70120F9E7FEE700007B
:101CF0000FB4054B10B503A9044A029800F096F9F9
:101D000010BC5DF814FB0000D997000834020020D5
:101D10000907090E002804DB00F1E02080F8001418
:101D2000704700F00F0000F1E02080F8141D7047AC
:101D300038B51D4614000BD001236A4606F002FC9C
:101D4000002804DB9DF800002040E840C0B238BD08
:101D50006FF0150038BD2DE9F8431E46089D1400AC
:101D60000F46804614D001236A4606F0EBFB00289C
:101D70000CDB9DF80000B540A04325400543EAB2C6
:101D80008DF800203946404606F00CFCBDE8F8838B
:101D90006FF01500FAE770B5044602F0030060F337
:101DA0005F110A461E46049DA021606806F0FAFBFA
:101DB00006F0030646F07C02A121606806F0F2FB03
:101DC00046F07802A121606806F0ECFB1021204665
:101DD00004F0DEFF00280DDB5DB1D4F8C000C06A5E
:101DE000022808D0A721606806F0A2FB00F00300DB
:101DF0002870002070BDA821F5E700002DE9F04112
:101E00005508134604464E080A461A491AA0FFF719
:101E10006FFF1CA0FFF76CFF2046A16E07F072FB5E
:101E2000074602463146204605F05AFB00281EDBD5
:101E30003A462946204606F0A7FD002817DB314622
:101E4000204605F0EDFB002811DB2946204606F070
:101E5000FFFD00280BDB2046E16E07F053FB024636
:101E60003946204604F0BEFF002800DB0020BDE814
:101E7000F0810000ACB5000825733A2025752025B7
:101E8000750000000A00000002E008C8121F08C127
:101E9000002AFAD170477047002001E001C1121FEB
:101EA000002AFBD1704700002DE9FF5F82B00021BE
:101EB000DDE90430020DDDF840B0034318D044F6EC
:101EC0001050A2F2FF3242431514119801281FD07E
:101ED000A5EB0B00401C5FEA000A4FF000064E4FD6
:101EE000DFF83891B046504615D5CAF1000413E02A
:101EF000119801244AA3012801D16FEA0B0102982D
:101F0000119AC0E90031C0E9024206B0BDE8F09F75
:101F1000CBF10000DFE704460021404A491842EBBC
:101F20000450CDE9001012E0E00707D032463B46EE
:101F300040464946FEF75AFA8046894632463B46B5
:101F400010461946FEF752FA06460F466410002C5A
:101F5000EAD1DDE90401DDE90023BAF1000F06DA78
:101F6000FEF744FA42464B46FEF740FA05E0FEF71C
:101F70005BFB42464B46FEF757FB04460E460022EB
:101F8000284BFEF7C1FB03D84FF0FF30014607E0B6
:101F90000022254B20463146FEF781F9FEF798FADC
:101FA000102409E0002C0ADB0A220023FEF712F9B4
:101FB000039B30321A55641E50EA0102F2D1641CB0
:101FC000039AC4F111031444119A012A03D0012287
:101FD00008430DD10AE0084304D000204FF0110B54
:101FE000119072E7A3EB0B056D1E0DE05B4504DD60
:101FF0004FF0000205F1010504E003DA4FF00002A2
:10200000A5F10105002AECD002981199C0E902312E
:10201000C0E9004579E70000000014400000F03FEF
:10202000300000000000F0430000E03F2DE9FF4FCA
:1020300095B09A46884606460025EEE1252877D1D8
:1020400000242746F94A0121039400E0044316F8CE
:10205000013F203B01FA03F01042F7D130782A28E3
:1020600011D06FF02F033078A0F13002092A16D872
:10207000039A44F0020402EB820203EB4202104492
:10208000761C0390EFE758F8042B0392002A03DA3A
:10209000504244F40054039044F00204761C30781B
:1020A0002E2816D116F8010F44F004042A280DD06A
:1020B0006FF02F023078A0F13003092B09D807EB1D
:1020C000870302EB4303C718761CF3E758F8047B39
:1020D000761C30786C280FD006DC4C2817D0682886
:1020E0000DD06A2814D104E0742810D07A280FD1BA
:1020F0000DE044F400140AE044F4801401E044F4D8
:1021000040147278824202D104F58014761C761C49
:10211000307866280BD013DC582877D009DC0028EB
:1021200075D04528F6D04628F4D047281AD193E137
:1021300018E0632835D0642879D0652812D18BE166
:10214000702873D008DC6728F1D069286FD06E281A
:102150000DD06F2806D1ACE073282CD0752874D030
:10216000782853D05246179990476D1C54E1C4F318
:102170000250022809D003280DD0D8F800100428F6
:102180000DD00D6008F1040846E1D8F80010EA17F8
:10219000C1E90052F6E7D8F800100D80F2E70D70A3
:1021A000F0E718F8041B8DF8001000208DF80100EE
:1021B000EB46012003E058F804BB4FF0FF30610705
:1021C0004FF0000102D40DE009F101018946B94246
:1021D0000FDA8145F8DB1BF809100029F4D108E07B
:1021E00009F1010189468142FADB1BF80910002937
:1021F000F6D103985346A0EB090721463846179AB3
:1022000000F080FA284400EB090507E044E008E10B
:102210000DE01BF8010B524617999047B9F10109DF
:10222000F7D2534621463846179AF2E039E00A21A0
:10223000C4F302524FF0000B0091022A06D058F866
:10224000040BC117032A09D00AE023E008F10700B4
:1022500020F00702F2E80201904605E000B2C11743
:10226000042A01D140B2C117002906DA0A4600212A
:10227000404261EB02012D2202E0220504D52B220F
:102280008DF80420012203E0E20701D02022F7E7C5
:10229000914657E00A2100E010214FF0000B009119
:1022A0000BE010214FF0000B44F0040408270091CC
:1022B00003E008204FF0000B0090C4F30252022A02
:1022C00005D058F8040B0021032A08D008E008F1D3
:1022D000070020F00702F2E80201904603E080B216
:1022E000042A00D1C0B24FF0000922072AD5327863
:1022F000702A07D0DDF800C08CF0100C5CEA0B0CE3
:1023000005D00EE040228DF80420012208E050EABA
:10231000010306D030238DF804308DF80520022209
:102320009146009B83F0080353EA0B030AD150EA5D
:10233000010201D1620705D530228DF804204FF04B
:1023400001097F1E3278582A04D039A20C920CAAB7
:1023500002920BE03BA2F9E75B46009AFDF73AFFD9
:102360000C9B9B5C029A521E0292137050EA01026F
:10237000F2D1029804A9081A00F1200B600702D5D7
:1023800024F4803400E001275F4502DDA7EB0B0059
:1023900000E0002000EB0B01009003984944401A34
:1023A0000390E00306D453462146179A039800F0A1
:1023B000A9F90544002706E001A85246C05D179917
:1023C00090476D1C7F1C4F45F6DBE0030CD5534650
:1023D0002146179A039800F095F9054404E030204F
:1023E0005246179990476D1C0099481E009000298D
:1023F000F5DC08E00298029952460078491C0291E7
:10240000179990476D1CBBF10001ABF1010BF1DC9A
:102410005BE100F065F90544761C307800287FF414
:102420000DAE19B02846BDE8F08F00000928010064
:10243000303132333435363738396162636465663A
:1024400000000000303132333435363738394142FC
:102450004344454600000000600700D4062708F109
:10246000070020F00700F0E80223804603F0004C4C
:102470005FEA0C0001D097A009E0200501D596A0E5
:1024800005E0E00701D095A001E0AFF24C00139009
:10249000307823F0004365280CD006DC452809D0AD
:1024A00046281DD047287FD13BE0662818D06728F2
:1024B0007AD136E00021112F01DB112000E0781CD9
:1024C000CDE9000104A90CA8FFF7EEFCDDE90D0140
:1024D0000C9A4FF0000B07F10109109200914EE0A9
:1024E0004FF000400097CDE9011004A90CA8FFF7B8
:1024F000DBFCDDE90D020C9B0F994FF0000B9146C0
:102500001093009211B9791C00EB0109B7EB090097
:1025100003D4C0F1FF3B07F10109A9EB07000190CB
:1025200042E0012F00DA01270021112F01DD1120E7
:1025300000E03846CDE9000104A90CA8FFF7B4FC7F
:10254000DDE90D010C9A00914FF0000BB946109295
:1025500021070FD4009A4A4503DA914601E0A9F118
:102560000109B9F1010F05DD109AA9F10101515CD2
:102570003029F4D0B84202DA10F1040F03DA012155
:10258000CDE9011010E0002803DC8344A9EB000131
:1025900002E0411C494500DD8946A0EB0B00401CD0
:1025A00001904FF000400290200705D40198484563
:1025B00002DB4FF0FF30019000208DF84B000298B5
:1025C0000DF14B07B0F1004F25D002200C902B20CD
:1025D0000D90029800280CDA404202902D200D90B8
:1025E00007E00A210298FDF78BFF3031029007F8CF
:1025F000011D0C99481E0C900029F2DC029800285D
:10260000EFD1791E0D980870307800F0200040F06E
:10261000450007F8020D11A8C01BC01D02901398B9
:10262000007800B1012000EB0901019801EBE07195
:10263000029801440398401A401E0390E00306D418
:1026400053462146179A039800F05CF80544139806
:10265000007818B15246179990476D1CE00323D5B6
:1026600053462146179A039800F04CF805441BE0A6
:10267000BBF1000F07DB0098584504DD109817994F
:1026800010F80B0001E0179930205246904701984E
:102690000BF1010B401E05F10105019004D12E2024
:1026A0005246179990476D1CB9F10001A9F1010933
:1026B000DEDC05E017F8010B5246179990476D1CB8
:1026C0000299481E02900029F4DC53462146179ACD
:1026D00003989EE62D0000002B0000002000000063
:1026E0002DE9F041044600251E461746880404D40F
:1026F00005E039462020B0476D1C641EF9D52846F8
:10270000BDE8F0812DE9F041044600251E469046C3
:10271000C80301D5302700E02027880404D505E050
:1027200041463846B0476D1C641EF9D52846BDE8C1
:10273000F08100002DE9F0410C464768164620491B
:1027400020A0FFF7D5FA20A0FFF7D2FA4FF47A7055
:10275000B6FBF0F0616894F90020484300F1805026
:10276000450F0B21384605F01DFF00220C2138468D
:1027700005F018FF207B00B1012040EA45020D2141
:10278000384605F00FFFA06807F088F800F0070250
:102790000F21384605F006FF20691C21B6FBF0F238
:1027A000384605F0FFFE606907F078F84007020F31
:1027B0001D21384605F0F6FE0020BDE8F08100003E
:1027C00018B70008257300000A0000002DE9F8433F
:1027D00014461346074688460A46D0F80490334903
:1027E00033A0FFF785FA37A0FFF782FA4FEA887027
:1027F000050E284606F0D7FF034664B1002000907E
:102800002A4623214846FFF7A6FA4FF499708442DE
:1028100003DA044604E00120F1E7B4F5EC6F0ADACC
:10282000A4F599704FF47A71484340F27C5190FBC3
:10283000F1F5002609E0A4F2E1604FF47A71484313
:1028400040F22C7190FBF1F50C2640F2FF308542EE
:1028500000D215B1854200D30546B8F1010F06D06C
:10286000B8F1020F12D06FF01500BDE8F883AA0886
:102870001821484605F096FE05F0030232431A215E
:10288000484605F08FFEA7F89A410DE0AA081921E5
:10289000484605F087FE05F0030232431B214846F7
:1028A00005F080FEA7F89C410020DEE7F2B60008A4
:1028B0002573204441432564203D202564206D5626
:1028C000000000000A000000F8B50C460646456806
:1028D00029492A48FFF70CFA2848001DFFF708FA93
:1028E000228801213046FFF771FF628802213046BD
:1028F000FFF76CFFA079617A227A40EA41006179A2
:10290000800741EA4201800E01F0030140EA8100A4
:10291000E179A27A41EA420101F003010843C04390
:10292000C6B23F2006F03FFF03463F222321284640
:102930000096FFF710FA802006F035FF0346207955
:102940000090802226212846FFF705FAE27A3021FE
:10295000284605F027FE227B3121284605F022FE7D
:10296000627B3221284605F01DFEA27B33212846DA
:1029700005F018FE0020F8BD04B700081882000812
:102980007FB50C460068042301AA442105F0DAFD56
:102990009DF807009DF80610000440EA01209DF80C
:1029A00005109DF804500843A4FB0010CDE9021067
:1029B0004FF4FF12002302A806F0EAFEDDE902014F
:1029C000E4FB0501CDE9020104B070BDF0B51D487E
:1029D00085B01546814233D84010814230D300245F
:1029E000CDE90214234602A82A6806F0D1FE4FF46E
:1029F000FF17A0FB072CCDE9000101FB07C1002355
:102A000000FB03102968029E490851186041CDE976
:102A1000001068462A6806F0BBFE009829683A460E
:102A2000A1FB0010CDE900100023684606F0B0FEBF
:102A30002868DDE90012704340185441CDE90004D4
:102A400005B0F0BD80113C552DE9F0430746D0F8A4
:102A5000009049A087B01446006813460D460A4608
:102A60000190464946A0FFF743F94EA0FFF740F911
:102A7000E8099621A0FB0110CDE90410E00942010C
:102A80000026334604A806F083FE049819210C3072
:102A9000B0FBF1F2521E402A6BDA012A00DC01225F
:102AA0004621484605F07EFD032301AA4A214846F7
:102AB00005F0A2FDE0224B21484605F073FD1022EF
:102AC0004E21484605F06EFDCDE902562246002310
:102AD00002A806F05DFE4FF4FF13A0FB03C8CDE98A
:102AE000040101FB0381002200FB021061081CEBC2
:102AF00001017041CDE90410029D2246002304A883
:102B000006F046FE2A4644214846049C05F04AFD4C
:102B100022464321484605F045FD220A4221484607
:102B200005F040FD220C4121484605F03BFD052201
:102B30003F21484605F036FD01223F21484605F079
:102B400031FD86224C21484605F02CFD01224D2105
:102B5000484605F027FD05224D21484605F022FD97
:102B6000012380225E21786800F050FA07B0BDE8AA
:102B7000F083402294E70000355BE80008B90008C4
:102B800025733A205261746520257520487A2050BB
:102B90006172656E74205261746520257520487AD3
:102BA000000000000A0000002DE9F04104460E4636
:102BB0000A46214921A0FFF79BF823A0FFF798F8C8
:102BC00040F2F5373946606805F0B2FC0546C4F8B6
:102BD000E4613EB1012E07D0022E22D06FF0150025
:102BE000BDE8F08100211DE00021204602F050F9EF
:102BF0000121204603F02DF81221606805F098FCB1
:102C0000410704D5000702D545F0800001E025F01A
:102C1000800040F0010239466068BDE8F04105F0EF
:102C2000C1BC0121204602F033F90021204603F007
:102C300010F825F08102EEE72DB4000825733A2044
:102C40006D6F6465202564000A00000070B50646BB
:102C50000D460A4600240D490DA0FFF749F80FA0C4
:102C6000FFF746F886F8E8513DB1012D02D0022D5C
:102C700003D101E0012400E0092422467068BDE888
:102C800070404FF47D7105F08DBC000042B4000827
:102C900025733A206D6F6465202564000A000000EA
:102CA0002DE9FF4782B00EA9DDE9128691E83006D2
:102CB000DDE9042306F02AFB002835D1421E04E09A
:102CC00049184041CDE90410521CDDE90410184FA9
:102CD00001237F1A8341F3D2C8F80020DDE9040103
:102CE000C6E9000122462B4604A806F051FD114E0C
:102CF000CDE90001A0FB062701FB0671002300FBC4
:102D0000031069084FEA3403D2184841CDE9002086
:102D100022462B46684606F03BFD0498C9F80000A1
:102D20000098CAF80000002006B0BDE8F087000057
:102D300000BCA065F1FF7F002DE9FF4F91B0002599
:102D4000012091466C1E0E909B462E462746DDF8CC
:102D500078801C227C4906A8FDF77DFA119890F82E
:102D6000540108B1012002E0119890F892018246C6
:102D7000119890F8550108B1012002E0119890F8DF
:102D800090010590B9F1010F04D0B9F1000F0BD0FB
:102D90006EA10AE012990AFB01F06E49B1EBC00F77
:102DA000F6D9002081460E906BA1CDE900A16649BD
:102DB0006CA02339059B129AFEF79AFF77A0FEF7C5
:102DC00097FF77491298884205D900BF6FF0150028
:102DD00015B0BDE8F08F024605981299424311984C
:102DE00001FB0AF190F8560108B1022000E0012031
:102DF000414348460DF1180E6A4B4AE00EEB800540
:102E0000DFF850C195F90060CCF1000C06FB01F52C
:102E10005643AC449C453BD8AE4203D9B6FBF5F1D2
:102E2000494201E0B5FBF6F15F4A954206D80446F7
:102E3000012900D10021671A2E4614E06E080446CD
:102E4000042802D0052804D007E0002905DB072765
:102E50000FE0002901DB012200E002221019012904
:102E600000D10021471A072F03D2002C01DB062CCA
:102E700027DDB9F1070F0FD20E9868B1CDF80080A9
:102E8000DDE9110109F101025B46FFF755FF9FE7FC
:102E9000401C0728B2DBECE7072F03D2002C01DB34
:102EA000062C0EDD2B48854201D240A200E045A24F
:102EB00025494AA02339FEF71BFF38A0FEF718FF6B
:102EC00084E74021A5FB0102DFF83CC1490800234B
:102ED000BCEB000C934101D20229F3D2CBE90005EF
:102EE0000EEB84020EEB870192F90130B5FBF3F390
:102EF000CBF8083092F90240B3FBF4F3CBF80C3076
:102F000092F90320B3FBF2F2B2FBFAF3CBE904230C
:102F1000C8E9000691F90100B6FBF0F0C8F8080016
:102F200091F90220B0FBF2F0C8F80C0091F90310FF
:102F3000B0FBF1F0C8F810000599B0FBF1F10020EA
:102F4000C8F8141044E70000C4B700084E6F6D695C
:102F50006E616C0040787D01486967686573742014
:102F60004F53520025733A2072657175657374650D
:102F7000642072617465202575205458464952209A
:102F8000696E742025752052584649522064656345
:102F9000202575206D6F6465202573000A000000F0
:102FA0000080A903C027A82400D012134144432065
:102FB000636C6F636B2062656C6F77206C696D6901
:102FC000740000004242504C4C20726174652061D4
:102FD000626F7665206C696D6974000025733A2014
:102FE0004661696C656420746F2066696E64207345
:102FF00075697461626C6520646976696465727371
:103000003A2025730000000080113C552DE9F0475F
:103010001D4691460F46064641F288344FF49668A5
:10302000484606F0C0FB03464A4639467068FEF73C
:103030007FFEA84202D10020BDE8F087162F10D0F5
:103040005FF0780006F0ACFE641EE9D24A463946CD
:1030500005A0FEF74DFE0DA0FEF74AFE6FF06D00D5
:10306000EAE74046EEE7000043616C696272617412
:10307000696F6E2054494D454F55542028307825AE
:10308000582C203078255829000000000A00000044
:1030900070B50D46044601F0BDFDA068E1686843C7
:1030A000B0FBF1F070BD000070B50446106801255A
:1030B0001646884206D801EB5001B1FBF0F0C4E996
:1030C00002050EE000EB5100B0FBF1F0C4E9025044
:1030D00038B90A490AA0FEF70BFE0EA0FEF708FE5B
:1030E000E5600021204604F045FB002805DB306840
:1030F000E168B0FBF1F0A168484370BDD0B80008AA
:1031000025733A20646976696465206279207A655E
:10311000726F00000A0000002DE9F04115461346C9
:1031200004460E460A46134913A0FEF7E1FD1BA014
:10313000FEF7DEFD0127AE4206D306EB5500B0FBDD
:10314000F5F0C4E902070EE005EB5600B0FBF6F01F
:10315000C4E9027038B9074911A0FEF7C9FD0FA0F4
:10316000FEF7C6FDE7602046BDE8F041012104F00E
:1031700001BB0000EDB8000825733A205261746568
:1031800020257520487A20506172656E7420526146
:10319000746520257520487A000000000A000000B0
:1031A00025733A20646976696465206279207A65BE
:1031B000726F00002DE9F04104460D460A4647684B
:1031C000104911A0FEF794FD13A0FEF791FD052113
:1031D000384600F08DFC012D10D00022207C1328F1
:1031E0000ED00021384605F0DDFA060000D4A560B7
:1031F000384600F027FD3046BDE8F0810122EDE7BA
:103200000121EFE787B9000825733A20696E6465EC
:1032100078202564000000000A0000002DE9F0413C
:103220000546DDE90674142006F0C4FB06006FF0C5
:103230000B081AD0377474746868C6E9000505EB8A
:103240008700C665082006F0B5FB040014D0142FD3
:1032500022D2DFE807F01919191B2426282A2C2668
:103260002E3032343A3C42464A4A22A0FEF740FD14
:103270002FA0FEF73DFD02E0304606F0B9FA4046C9
:10328000BDE8F041FDF797BAA86819E0E868416821
:103290003046FFF775FB60602046BDE8F081A86905
:1032A0000EE0E8690CE0286A0AE0686A08E0A86AAB
:1032B00006E0286B04E0686B02E0A86B00E0E86BB6
:1032C00041683046FFF7E4FEE5E7286900E06869F9
:1032D0004168304603F05CF8DDE7D5F8C000806E49
:1032E000D9E7D5F8C000006FD5E7304603F05EFAA5
:1032F000D1E700006164393336315F636C6B5F7214
:10330000656769737465723A20636F756C64206ECB
:103310006F7420616C6C6F63617465206669786599
:103320006420666163746F7220636C6B0000000040
:103330000A0000002DE9F74F0446A0B0D4E9775009
:10334000009000200C900D90F648924609AE07C8F8
:1033500086E80700F34953461339F3A0219AFEF794
:10336000C7FCF7A0FEF7C4FC4FF48041009806F0BC
:1033700089F81E90D4F8C000C17C022902D05FEA0F
:103380008A610ED590F8F7200621606805F00AF9E9
:10339000D4F8C000072190F8F820606805F002F921
:1033A0005BE10121204605F0E7FB5FEA4A7003D5A7
:1033B0000021204602F0AAFD5FEA0A7003D5012130
:1033C000204602F0A3FDD4F8C0004078C8B1052122
:1033D000204600F08DFB204600F034FC286846684B
:1033E000042E00DD042602212046FFF72FFC4FF0BB
:1033F000000840F2044B202101A8FCF745FF002003
:103400007CE000220121204604F016FB0A21204620
:1034100000F06EFBE2E7219878B1D4F8C00090F894
:10342000F610C9060DD4007858B1119809A951F8C1
:1034300020004108204604F01DFC002005461090A5
:103440000BE0119909A850F82110F3E70025109816
:1034500018B105F00F00002201E000202A4660F3B9
:103460001F1208F10601606805F09CF8002706E0CD
:103470000BEB87110622009806F041F87F1CB7423B
:10348000F6DB042006F0CCFAB8F1010F05D05C2180
:10349000009805F0F7FFC0070DD00027B94607E0F8
:1034A0000BEB8711009805F0EDFF40EA09097F1C3E
:1034B000B742F5DB01E04FF00109109901A800EBDC
:1034C0000110415D41EA090141556D1C102DBEDB23
:1034D0001098401C10900228B8DB5FEA8A700BD568
:1034E000219848B1B8F1000F01D0012200E000227C
:1034F00001A9204600F036FA1198401C119021983D
:1035000008B1032100E001211198814283D80EAA5D
:10351000102101A800F070FE05460FAA102105A891
:1035200000F06AFE074655EA070007D05FEACA7056
:1035300026D0B8F1000F1ED001221DE0B8F1000F17
:1035400001D0012200E0002201A9204600F00AFA81
:10355000B8F1000F01D07BA200E07BA271497BA0F3
:103560001339FEF7C5FB76A0FEF7C2FB0C9860F09E
:1035700004000C9004E0002201A9204600F0F2F9BA
:10358000AF4205D90F9800EB57000007020E04E088
:103590000E9800EB550000F00F0208F1060160687C
:1035A00005F000F8B8F1000F17D05FEA0A7003D5F4
:1035B0000121204600F04EF900212046FFF7F4FAE1
:1035C0001E980821B1EB104F05D944F248010D9A1D
:1035D000009805F094FF0025F3E05FEA4A7003D5F8
:1035E0000021204600F036F900212046FFF72EFB8F
:1035F00002224021009805F082FF0322402100981A
:1036000005F07DFFD4F8C000C07C01280BD001215B
:103610002046FFF7C9FA032244F24001009805F062
:103620006EFF002564E05FEACA6007D40621606887
:1036300004F07EFFD4F8C01081F8F700D4F8C00081
:10364000417831B98279204604F0F6F9204600F03D
:10365000F9FA0021204605F08FFA002023B0BDE8DA
:10366000F08F00BF4FF4806000EB8517394600985B
:1036700005F008FF1AA940F2512241F82500394609
:10368000009805F03CFF09222946009805F001FF4B
:1036900044F2144000EB85118946009805F0F2FED3
:1036A000014616A840F825101E990720B0EB114FCF
:1036B00018D244F2184000EB85110F46009805F02F
:1036C000E1FE12A9092241F825003946009805F0CB
:1036D00016FF49460022009805F011FF012244F22E
:1036E000440101E049460122009805F008FF6D1CE5
:1036F000B542B7DB1E980821B1EB104F0ED944F24A
:1037000048052946009805F0BDFE0D9020F00F00F9
:1037100040F001022946009805F0F1FE08F1010889
:1037200069E60000B8BA000825733A206672657130
:1037300020257520666C61677320307825580A0053
:103740000A000000545800005258000025733A2027
:1037500054756E696E67202573204641494C454477
:10376000210000001AA850F825204FF4806000EBDB
:103770008511009805F0C3FE00222946009805F047
:1037800088FE1E980721B1EB104F0FD212A850F8F7
:10379000252044F2184000EB8511009805F0AFFE9B
:1037A000012244F24401009805F0A9FE16A850F841
:1037B000252044F2144000EB8511009805F09FFE8F
:1037C0006D1CB542CEDB0C98401D17D05FEACA6075
:1037D0000FD40621606804F0ABFED4F8C01081F865
:1037E000F7000721606804F0A3FED4F8C01081F848
:1037F000F800D4F8C0004178A9B11BE0D4F8C000AB
:10380000062190F8F720606804F0CCFED4F8C000E0
:10381000072190F8F820606804F0C4FE2198002881
:10382000E7D10C90E5E78279204604F005F92046BF
:1038300000F008FA02224021009805F060FE032201
:103840004021009805F05BFE0021204605F094F928
:103850000C9803E72DE9F04F8B46D0E977108246AC
:1038600008688FB04568042D00DD04254FF000097D
:1038700040F2044800265B4632464946504602F074
:10388000F7F9012006F0CCF8002406E008EB8411DB
:103890000622504605F033FE641CAC42F6DB0A20DB
:1038A00006F0BEF800273C4607E000BF08EB871192
:1038B000504605F0E7FD04437F1CAF42F6DB07A846
:1038C0008455761C202ED6DB05AA202100F094FC1E
:1038D000044605985B4600EB54024946504602F008
:1038E000C7F90599BBF1000F01EB5400CDE90010B9
:1038F00001D00AA100E00AA123464A4609A0FEF72A
:10390000F7F917A0FEF7F4F909F10109B9F1070F6A
:10391000B0DB0FB00020BDE8F08F0000545800006D
:10392000525800002573204C616E652025642C20C0
:1039300077696E646F7720636E74202575202C2064
:1039400073746172742025752C20494F44454C4195
:10395000592073657420746F2025750A00000000DB
:103960000A0000002DE9F0410E461446C16F05F033
:10397000C9FD01460CB119A200E019A219A0FEF779
:10398000B7F91FA0FEF7B4F9002421461DA0FEF7E9
:10399000AFF9641C102CF8DB18A0FEF7A9F900247D
:1039A000214618A0FEF7A4F9002506EB0417785D60
:1039B00008B1232100E06F2113A0FEF799F96D1CD7
:1039C000102DF4DB0DA0FEF793F9641C022CE7DB4D
:1039D000BDE8F04109A0FEF78BB900005458000083
:1039E0005258000053414D504C20434C4B3A202537
:1039F000752074756E696E673A2025730A000000A1
:103A00002020000025783A002563200070B5164676
:103A1000134604460D460A461E491FA0FEF768F9E4
:103A200022A0FEF765F900231A461946204604F045
:103A30003FFE00282CDB0521204600F059F8022D1E
:103A40000CD0102D16D1D4F8480133464208D4F8D2
:103A500044014108204605F0C1F80BE02046D4F8A7
:103A6000A41005F04FFD00F0EFFB02460B46204688
:103A700002F0CEFB94F8983194F8962194F89711BF
:103A8000204604F015FE0546204600F0DBF82846E7
:103A900070BD000067B8000825733A2043414C20F0
:103AA0002575204152472025640000000A000000CF
:103AB000F8B506468807040E1546204605F073FE45
:103AC00003460095224603217068FEF744F9F8BDCD
:103AD000F8B506468807040E1546204605F063FE35
:103AE00003460095224602217068FEF734F9F8BDBE
:103AF0002DE9F041054647680E460F2005F053FEBC
:103B000003460F2217213846FEF712F9C4B285F892
:103B1000C440B44202D1314623A021E032462146BE
:103B20002DA0FEF7E5F836A0FEF7E2F8142138469E
:103B300004F0FEFCC10603D520F01000012100E0D6
:103B4000002185F815110CB120F00100052E10D0D0
:103B5000062E08D0082E09D00A2E04D0314629A0FE
:103B6000FEF7C6F818E040F0200406E040F04004FC
:103B700003E020F0600040F00504052214213846DF
:103B800004F010FD22461421384604F00BFD0028F5
:103B900007D026A0FEF7ACF8BDE8F04118A0FEF76C
:103BA000A7B8BDE8F08100004E6F7468696E6720A9
:103BB000746F20646F2C2064657669636520697377
:103BC00020616C726561647920696E2025642073C0
:103BD000746174650000000044657669636520695E
:103BE0007320696E2025782073746174652C2066BB
:103BF0006F7263696E6720746F2025780000000083
:103C00000A0000004E6F2068616E646C696E672068
:103C1000666F7220666F7263696E67202564206527
:103C20006E736D2073746174650000004661696C89
:103C3000656420746F20726573746F72652073748D
:103C40006174650070B5466805461421304604F07D
:103C50006FFC95F8C41020F06500082910D004DC32
:103C6000052910D0062904D107E00A2905D0FF292B
:103C700017D017A0FEF73CF824E040F0200404E041
:103C800040F0400401E040F00104052214213046D8
:103C900004F088FC22461421304604F083FC70B9FD
:103CA00001E014A00CE095F8150100280FD044F0B5
:103CB00010021421304604F075FC002807D018A02B
:103CC000FEF716F8BDE870401DA0FEF711B870BDF4
:103CD000436F756C64206E6F7420726573746F72BD
:103CE0006520746F20256420454E534D2073746108
:103CF000746500004E6F206E65656420746F2072DD
:103D00006573746F72652C20454E534D207374613A
:103D10007465207761736E27742073617665640023
:103D20004661696C656420746F20777269746520E0
:103D3000454E534D5F434F4E4649475F31000000AB
:103D40000A0000002DE9F8430F469046044690F81B
:103D5000C510D0F8049000263A4691A0FDF7C8FFA0
:103D600098A0FDF7C5FF94F8C50080281CD1D4F8B1
:103D7000C000007900B1102040F007020921484638
:103D800004F010FC142006F00BF80522142148461C
:103D900004F008FC01220021204604F0CBFD0122A2
:103DA0001146204604F0C6FDD4F8C010487908B189
:103DB000002000E008205FEA080200D01022104333
:103DC00094F8992102B18022104340F001056FF070
:103DD0001500082F12D005DC9FB3052F32D0062F17
:103DE00004D106E00A2F12D0802F36D0394676A0B3
:103DF00074E045F0200503E0064611E045F040057B
:103E00004A7842B994F8C520052AF5D11EE04A78CF
:103E100045F02005AAB9064694F8C500052857D0F4
:103E200015F0600F54D025F0600040F00502142119
:103E3000484604F0B7FB05230F2217212046FFF761
:103E4000E5F803E025F0600040F00505D4F8C00077
:103E5000417851EA080147D062E00022114620462D
:103E600004F068FD00220121204604F063FD0022D9
:103E70001421484604F096FBD4F8C000407808B1FD
:103E8000202200E040221421484604F08BFB20460B
:103E9000E16E05F037FB5649B1FBF0F005F080FF0D
:103EA00000221421484604F07DFB012005F078FF34
:103EB000D4F8C000007908B1102200E000220921E6
:103EC000484604F06FFB84F8C5700020BDE8F88315
:103ED000487808B147A100E047A148A0FDF708FFD6
:103EE00038A0FDF705FF55E0007AC8B9062F01D0CC
:103EF000082F15D1102005F056FC0346062F25D0BB
:103F000000200090102215216068FDF724FF062F85
:103F10001ED040F24721012302222046FFF776F807
:103F20002A461421484604F03DFB060005D03EA079
:103F3000FDF7DEFE23A0FDF7DBFE680628D594F82A
:103F4000940140B194F8950128B121E00120D8E70F
:103F500040F28721DFE740F207184146484604F067
:103F6000E7FA00F03F0594F89401A8B15FF0000073
:103F700045EA000294F8950180B1002002434146D1
:103F8000484604F00FFB2A464146484604F00AFB27
:103F900084F8C570304699E74020E9E78020EDE7D6
:103FA00044657669636520697320696E20257820F1
:103FB00073746174652C206D6F76696E6720746F01
:103FC000202578000A0000004E6F2068616E646C46
:103FD000696E6720666F7220666F7263696E672014
:103FE000256420656E736D20737461746500000034
:103FF0000060E3164644440054444400496E766130
:104000006C696420454E534D20737461746520744F
:1040100072616E736974696F6E20696E20257320FA
:104020006D6F6465000000004661696C6564207412
:104030006F20726573746F726520737461746500AC
:104040002DE9F84F1F0093460E46044601D050A0BC
:1040500000E051A000900EB152A200E052A25B46D7
:10406000524953A0FDF744FE57A0FDF741FE16B19B
:104070004025012001E00025022004EB06098046CE
:1040800099F8A90100B1012037EA00014FF0010AB7
:104090002FD0D4F8C00016B1D0F88C0001E0D0F8D1
:1040A0008800FA21B0FBF1F205F25B21606804F0B0
:1040B00079FA0BF007000AEB4012574605F25A2135
:1040C000606804F06FFA002205F25F21606804F076
:1040D00069FA404605F067FB034600974246152102
:1040E0006068FDF738FE00223146204604F022FCCD
:1040F0004BE0B84349D0002205F25A21606804F031
:1041000051FA802005F04FFBCDF800A0034657463A
:1041100005F2362180228A466068FDF71CFE0120E8
:1041200005F041FB0097D4F804C0034605F50E7175
:1041300001220F466046FDF70EFE802005F033FB9E
:10414000002503460095802251466068FDF703FE76
:10415000012005F028FB0095D4F804C00346012295
:1041600039466046FDF7F7FD01223146204604F04E
:10417000E1FB404605F017FB03460095424615213A
:104180006068FDF7E8FD89F8A9510020BDE8F88FC7
:104190005072657061726500556E2D507265706168
:1041A0007265000054580000525800000BB8000817
:1041B00025733A2025732050726F66696C6520253F
:1041C000753A2025730000000A00000070B505460E
:1041D000002401B1402402F007001A4660F31F12C8
:1041E00004F51771284604F0DDF904F25E21284633
:1041F000BDE8704004F09CB92DE9F04700249246D8
:104200008146621E2046254623469046264609E002
:1042100019F803709FB1844201DD204615464246DD
:1042200000245B1CDF17B3EB010CB741F0DB8442C9
:1042300001DD20461546CAF80050BDE8F087571C3E
:1042400000D11A46641CECE7002100184941704770
:104250002DE9F84F0C460746D0F804A0FD49FEA012
:10426000FDF746FDFDA0FDF743FD2078E021032882
:1042700002D06278032A00D1F021627887F8940195
:1042800002F00303024663F39F0260780A4387F853
:104290009501FA21504604F085F9012005F083FAD2
:1042A0000346E07B00900122FB215046FDF753FDC1
:1042B000022005F078FA0346207C00900222FB21C0
:1042C0005046FDF748FD042005F06DFA0346607B7B
:1042D00000900422FB215046FDF73DFDA078082800
:1042E0000DD2012800D80120A070401E00F0070167
:1042F000D7F8C000C07868B1E07B20B901E00820A1
:10430000F2E7207C30B1E07C012803D0022817D0EE
:1043100041F00801607C082815D2012800D801204E
:104320006074401E00F0070041EA4012FC21504634
:1043300004F038F9D7F8C000C07830B1282505E07E
:1043400041F01001E6E70820EAE74C252A46FD2166
:10435000504604F027F92A4640F20911504604F06D
:1043600021F92A464FF48671504604F01BF9A07CCF
:10437000082824D2012800D80120A0744007020E8A
:10438000FE21504604F00EF9607B58B194F82500E8
:10439000A27B00F0070060F35F124FF4807150467B
:1043A00004F000F92279E0784FF482714D1C8242CA
:1043B00007D30246504604F0F5F8227905E00820BC
:1043C000DBE7504604F0EEF8E2782946504604F068
:1043D000E9F8E0884FF0FF3505EB10123F2A00D3D3
:1043E0003F224FF48471504604F0DCF8208905EB3D
:1043F00010153F2D00D33F253F2005F0D4F903468B
:104400003F2240F2071150460095FDF7A4FCD7F873
:10441000C000C07888B158224FF48571504604F02E
:10442000C1F8182240F20D11504604F0BBF82722C3
:104430004FF48D71504604F0B5F8002240F20B1194
:10444000504604F0AFF800224FF48771504604F054
:10445000A9F8207B402800D3402042004FF48A7105
:10446000504604F09FF800228121504604F09AF84B
:10447000402005F098F94FF4AE780346012640221B
:104480004546414650460096FDF765FC202005F064
:104490008AF903462022294650460096FDF75BFC28
:1044A000207801282AD06078012827D06089000967
:1044B00005F0F4F905460F2005F075F903460F22C3
:1044C000414650460095FDF746FCE57D7F2D00D323
:1044D0007F25A8467F2005F066F903467F2240F23B
:1044E000011150460095FDF736FC657E7F2D00D307
:1044F0007F2594F8200018B1802202E0206BD6E7D7
:1045000000222A434FF49071504604F04BF8617D2D
:10451000A8EB0100E17E00F00F004A1B60F31F12C0
:1045200040F22911504604F03DF8A07D227F00F0B2
:104530000F0060F31F124FF49571504604F032F8EB
:1045400094F82C0000B1082094F82D1001B18021BE
:10455000084314F8181F01F0070140EA0112A0787F
:1045600040F2231100F007000243504604F01AF80D
:10457000A079627900F00F0060F31F124FF491717F
:10458000504604F00FF80F2005F00DF90346E079CE
:104590000F2200F00F0000904FF483715046FDF79A
:1045A000DAFB607AA27A00F00F0060F31F1240F28B
:1045B0002111504603F0F6FF1C2005F0F4F80346E5
:1045C000E07A00901C2240F203115046FDF7C3FB35
:1045D000207B00F00F02A07B183C00B110200243AA
:1045E0004FF49471504603F0DDFF012005F0DBF835
:1045F000034614F8380F4FF48878009001224146A2
:104600005046FDF7A8FB627840F21B11504603F0BC
:10461000C9FFA578383C6D1E072D00D30725E02083
:1046200005F0C1F80346E02240F21711504600950C
:10463000FDF791FB402005F0B6F894F83C100346D6
:1046400040F211190091402249465046FDF783FB84
:1046500006E00000E2B60008257300000A00000032
:1046600094F83D503F2D00D33F253F2005F09BF8A7
:1046700003463F224FF48C7150460095FDF76BFBCB
:1046800094F83E50032D00D30325C02005F08BF88D
:104690000346C0224FF4897150460095FDF75BFB3D
:1046A00094F83F50032D00D30325C02005F07BF87C
:1046B0000346C02240F2131150460095FDF74BFB14
:1046C00094F84050072D00D30725E02005F06BF843
:1046D00003464FF48B7BE022594650460095FDF788
:1046E0003AFB802005F05FF894F8411003460091F2
:1046F000802241465046FDF72EFB94F84250102090
:1047000005F051F80346012D3FD000200090102203
:1047100041465046FDF71FFB042005F044F80346D0
:10472000022D34D000200090042241465046FDF76F
:1047300012FB802005F037F8034694F84300009000
:10474000802249465046FDF706FB94F844500F2D51
:1047500000D30F250F2005F026F803460F225946F7
:1047600050460095FDF7F7FA94F8450058B194F8D3
:10477000470040B194F84B0028B194F84C0010B1B8
:1047800094F84D0028B1012504E00120BEE7012086
:10479000C9E70025402005F006F803464022FB212A
:1047A00050460095FDF7D7FA94F84500E0B3002590
:1047B000802004F0F8FF0346802240F21511504695
:1047C0000095FDF7C8FA94F846503F2D00D33F25D9
:1047D0003F2004F0E8FF03463F2240F21311504609
:1047E0000095FDF7B8FA94F849503F2D00D33F25C6
:1047F0003F2004F0D8FF03463F224FF48971504612
:104800000095FDF7A8FA94F84850402004F0CBFF3B
:1048100003464022414650460095FDF79CFA94F825
:104820004700E8B3002500E049E0082004F0BBFFA2
:1048300003460822414650460095FDF78CFA94F84D
:104840004A503F2D00D33F253F2004F0ACFF0346E4
:104850003F2240F2191150460095FDF77CFA94F87A
:104860004B0070B394F84C0058B30025022004F0BC
:104870009AFF03460222414650460095FDF76BFA27
:1048800094F84B0010B30025802004F08CFF034601
:1048900080224FF48A7150460095FDF75CFA00E0E3
:1048A00010E094F84D00002578B394F84E0078B1EC
:1048B00001282BD002283BD0032858D160E00125E5
:1048C00076E701E00125AEE70125CFE70125DBE72B
:1048D000202004F068FF03462022494650460096F7
:1048E000FDF739FA202004F05EFF034620224646F9
:1048F000414650460095FDF72EFA402004F053FF44
:1049000003464022314600952EE039E0202004F095
:104910004AFF03462022494650460095FDF71BFA00
:10492000202004F040FF03462022414600961BE071
:10493000202004F038FF03462022494650460096C6
:10494000FDF709FA202004F02EFF034600952022EF
:10495000454641465046FDF7FEF9402004F023FF4E
:1049600003464022294600965046FDF7F4F994F894
:104970004F00000904F092FF0F2813D2044612E002
:10498000202004F010FF03462022414650460095A7
:10499000FDF7E1F9202004F006FF034620224946F6
:1049A0000095E1E70F24E02004F0FDFE0346E0223D
:1049B0004FF4857150460094FDF7CDF9802004F046
:1049C000F2FE0346E0080090802240F209115046B2
:1049D000FDF7C1F93846BDE8F84F00F001B8000016
:1049E0002DE9FC5F0546406801902846A96F04F058
:1049F00089FD06464FF4FA70B6FBF0F0804AD5F810
:104A0000C010B2FBF0F2D1F80441C820604302EBC1
:104A100050004FF47A7900F2E730B0FBF9F091F8EA
:104A2000A8100844C7B21F2F03D210F0FF0F03D104
:104A300001E01F2700E000273F2004F0B4FE0346FA
:104A40003F22222100970198FDF785F98046B6FBA9
:104A5000F9F0DFF8B0A104F16401484300EB0A016A
:104A60000AF1010BB1FBFBF0401CC7B21F2F03D2B0
:104A700010F0FF0F03D101E01F2700E000271F20E7
:104A800004F091FE03461F22FE2100970198FDF7D6
:104A900062F940EA08074FF4FA60B6FBF0F0C83458
:104AA00000FB04A1DA46B1FBFAF0C01DC4B21F2C12
:104AB00003D210F0FF0F03D101E01F2400E0002417
:104AC0001F2004F070FE03461F2240F211110094D3
:104AD0000198FDF740F940EA0708B6FBF9F06FF0DE
:104AE0007C0114FB01F1484A02EB0112D5F8C01019
:104AF000D1F8BC3003FB00204FF4FA6200F57A7065
:104B0000B0FBF2F44148844200D214B1844200D395
:104B1000044695F89401012835D095F895010128AF
:104B200031D02846E96F04F0EDFC06EB500728462B
:104B3000E96F04F0E7FCB7FBF0F16200B2FBF1F2C1
:104B4000D5F8C000B0F89E00B2FBF0F2022A01D204
:104B5000B4FBF1F0000904F0A1FE07460F2004F0B9
:104B600022FE03460F224FF4AE7100970198FDF725
:104B7000F2F8202004F017FE4FF4803B03465C451A
:104B800004D3012003E0D1F8C400E3E70020009043
:104B900020224FF494710198FDF7DDF840EA0807F0
:104BA0005C4500D36408E2B24FF49271019803F0BF
:104BB000F9FC40EA0708220A40F22511019803F0A7
:104BC000F1FC40EA0804B6FBF9F0D5F8C010104A31
:104BD000D1F8C81001FB0021B1FBFAF51F2D00D35D
:104BE0001F251F2004F0DFFD03461F2240F217118E
:104BF00000950198FDF7AFF82043BDE8FC9F000049
:104C0000809FD5003F420F0030F8FFFFFFFF0100FB
:104C100020A107002DE9F04704460768007C002624
:104C200001254FF42B786FF015090E2837D2DFE8F5
:104C300000F0070E253639444A585E6A71777D8444
:104C40004521384603F074FC00F003001FE001200A
:104C500004F0A9FD0346012240F2AB213846FDF7DE
:104C600067F80546802004F09EFD034680224146F9
:104C70003846FDF75DF840EA450008E00C2004F0F6
:104C800092FD03460C2241463846FDF751F80028B4
:104C900062D0012862D0022866D0032867D0484637
:104CA000BDE8F0870A21384603F042FC00F0070116
:104CB00005FA01F0C4E9025023E0302004F073FD4E
:104CC0000346302204E0082004F06DFD034608226C
:104CD00003213846FDF72CF80121401CC4E90210DD
:104CE0000FE0042004F05FFD03460422F0E70320F8
:104CF00004F059FD03220346114624E00120C4E9D3
:104D000002053046CCE7082004F04DFD082203469A
:104D10000A21DEE7302004F046FD034630220AE097
:104D2000082004F040FD0346082204E0042004F0BB
:104D30003AFD034604220221CBE7032004F033FDB1
:104D40000322034602213846FCF7F2FF10B1401E51
:104D50008540D3E70125D1E7012009E001200221A8
:104D6000C4E9020100209BE701200421F8E70220AA
:104D70000121F5E708B501290DD07621406802230D
:104D80006A4603F0DFFB002804DBBDF80000FA21CF
:104D900040BA484308BD7421F0E7000070B50C46E6
:104DA00045682E492EA0FCF7A3FF2EA0FCF7A0FF1C
:104DB0002079A179A27A40EA4100217AE37A890038
:104DC00041EAC20108436179E27900F00F0041EA4B
:104DD0004202617A890041EAC3010A4360F31F126B
:104DE0002021284603F0DEFB20786178E27840EA53
:104DF0004100A178890041EAC201084300F00F0296
:104E00002721284603F0CEFB227B2821284603F0E9
:104E1000C9FB627B2C21284603F0C4FBA27B29211D
:104E2000284603F0BFFBE27B2D21284603F0BAFBA6
:104E3000227C2A21284603F0B5FB627C2E212846DD
:104E400003F0B0FBA27C2B21284603F0ABFBE27CF5
:104E50002F21284603F0A6FB002070BD43B70008B1
:104E6000257300000A000000074B00221B1A8A412C
:104E700001D300207047054B0022181A8A4101D344
:104E80000120704702207047006D7C4D00286BEEBA
:104E90002DE9F05FD0E977508A4683464FF4804190
:104EA00004F0F0FA06464FF00709B9EB164F02D2AC
:104EB00044F2184701E044F21447002427E000BF01
:104EC00007EB84118846584604F0DCFA0246B9EB39
:104ED000164F0FD2BAF1000F06D0082A06D005EB04
:104EE0008400426008220DE0082A0BD105EB840003
:104EF000426807E0BAF1000F02D042F0020201E07E
:104F000022F002024146584604F0F9FA641C28686F
:104F10004068A042D4DC0020BDE8F09F2DE9F041BC
:104F200080460D4600264FF4007004F042FF040056
:104F30006FF00B077DD0FE486060082004F039FF59
:104F4000A0600028F6D04FF4B87004F032FFC4F827
:104F5000C0000028EED0442004F02BFFC4F8DC0190
:104F60000028E7D0082004F024FFC4F8E00100285E
:104F7000E0D004602878207068786070A168686864
:104F80004860E87A00B10120D4F8C0104870287B4E
:104F900000B10120D4F8C0108870287A00B1012037
:104FA000D4F8C0100870D4F8C010687A8862D4F8B9
:104FB000C010A87AC862687B00B10120D4F8C01084
:104FC0000872A87B00B10120D4F8C0104872D4F850
:104FD000C0106869C1F88800D4F8C0102869C1F809
:104FE0008C00287E00B10120D4F8C01081F8900018
:104FF000687E00B10120D4F8C01081F891002178BA
:10500000002002297ED0A97E01B10121D4F8C02060
:105010009172E97E01B10121D4F8C020D172D4F897
:10502000C020297F9173D4F8C020697FD173A97FF4
:1050300000E0FDE3D4F8C0201174D4F8C020E97F6B
:105040005174D4F8C02095F82010917495F821106F
:1050500001B10121D4F8C020D170D4F8C020696A10
:10506000116695F8281001B10121D4F8C0205173C0
:1050700095F8291001B10121D4F8C020517195F89B
:105080002A1001B10121D4F8C0209171D5E90C1288
:10509000D4F8C030C3E91A12D5E90E12D4F8C030E2
:1050A000C3E91C125FF0300105EB860201EB8607B5
:1050B000D4F8C030126C761CDA51062EF4DB0021D5
:1050C0005FF0480205EB810302EB8107D4F8C06072
:1050D0009B6D491CF3510629F4DBD4F8C020296FDD
:1050E0009167D4F8C020696FD167D4F8C020A96F48
:1050F0001162D4F8C020E96F5162D5F88010D4F85D
:10510000C02000E0FEE3C2F8801095F8841001B1E1
:105110000121D4F8C02082F8841022780121022ACB
:105120007DD095F8852002B10122D4F8C0301A71E3
:10513000D4F8C030D5F888209A61D4F8C030D5F8BA
:105140008C20DA61D4F8C03095F8902083F8922052
:10515000D4F8C03095F8942083F89420D4F8C03067
:1051600095F8952083F89520D4F8C03095F89620CE
:1051700083F89820D4F8C03095F8972083F89620CB
:10518000D4F8C03095F8982083F89720D4F8C03030
:10519000B5F89A20A3F89E2095F89C2002B1012230
:1051A000D4F8C03083F8A120D4F8C030B5F89E20E0
:1051B000A3F89A20D4F8C030B5F8A020A3F89C201A
:1051C000D4F8C03095F8A22083F8A020D4F8C030DD
:1051D00095F8A32083F8A220D4F8C03095F8A42035
:1051E00083F8A620D4F8C03095F8A52083F8A52030
:1051F00095F8A62002B10122D4F8C03083F8A3208C
:1052000095F8A72002B10122D4F8C03083F8A42079
:10521000D4F8C03095F8A82083F8A72000E0FCE37C
:10522000D4F8C03095F8A92083F8B220D4F8C03063
:1052300095F8AA2083F8B32095F8AB2002B101229B
:10524000D4F8C03083F8B420D4F8C03095F8AC203E
:1052500083F8B120D4F8C03095F8AD2083F8B92098
:10526000D4F8C03095F8AE2083F8B820D4F8C03018
:10527000D5F8B020C3F8BC2095F8B42002B10122C3
:10528000D4F8C03083F8C02095F8B52002B10122CF
:10529000D4F8C03083F8C120D4F8C03095F8B620D7
:1052A00083F8AB20D4F8C03095F8B72083F8AC2051
:1052B000D4F8C03095F8B82083F8AD20D4F8C030C9
:1052C00095F8B92083F8AE20D4F8C03095F8BA200C
:1052D00083F8B520D4F8C03095F8BB2083F8B72008
:1052E000D4F8C03095F8BC2083F8B620D4F8C0308C
:1052F00095F8BD2083F8A920D4F8C03095F8BE20D9
:1053000083F8AA20D4F8C03095F8BF2083F8AF20E6
:10531000D4F8C03095F8C02083F8B020D4F8C0305D
:1053200095F8C42083F8A82095F8C8201AB101E0A8
:10533000980200200122D4F8C03083F8BA20D4F8B3
:10534000C030D5F8CC20C3F8C420D4F8C030D5F88C
:10535000D020C3F8C82095F8D42002B10122D4F897
:10536000C03083F8CC20D4F8C03095F8D82083F82A
:10537000CD20D4F8C03095F8DC2083F8CE20D4F8C6
:10538000C03095F8E02083F8CF2095F8E42002B1F2
:105390000122D4F8C03083F8D020D4F8C03095F87A
:1053A000E82083F8D120D4F8C03095F8EC2083F8B9
:1053B000D220D4F8C03095F8F02083F8D320D4F868
:1053C000C03095F8F42083F8D42095F8F82002B185
:1053D0000122D4F8C03083F8D520D4F8C03095F835
:1053E000FC2083F8D62095F8002102B10122D4F8E0
:1053F000C03083F8D72095F8012102B10122D4F8FA
:10540000C03083F8D920D4F8C03095F8042183F84F
:10541000D820D4F8C03095F8082183F8DA2095F820
:105420000C2102B10122D4F8C03083F8DB2095F8BA
:105430000D2102B10122D4F8C03083F8DC20D4F869
:10544000C03095F8102183F8DD20D4F8C03095F8ED
:10545000142183F8DE2095F8182102B10122D4F836
:10546000C03083F8DF2095F8192102B10122D4F869
:10547000C03083F8E02095F81A2102B10122D4F857
:10548000C03083F8E120D4F8C03095F81C2183F8AF
:10549000E220D4F8C03095F8202183F8E320D4F836
:1054A000C030D5F82421C3F8E820D4F8C030D5F8AE
:1054B0002821C3F8F020D4F8C03095F82C2183F8C7
:1054C000E42095F82D2102B10122D4F8C03083F8F0
:1054D000E520D4F8C030D5F83021C3F8EC20D4F85A
:1054E000C030D5F83421C3F82021D4F8C030D5F825
:1054F0003821C3F81C2195F83C2102B10122D4F8CF
:10550000C03083F82821D4F8C030B5F84021A3F882
:10551000242195F8442102B10122D4F8C03083F847
:10552000292195F8452102B10122D4F8C03083F831
:105530002A2195F8462102B10122D4F8C03083F81F
:105540002B21D4F8C03095F8482183F82F21D4F8C6
:10555000C03095F84C2183F83021D4F8C030B5F82C
:105560005021A3F8262195F8542102B10122D4F844
:10557000C03083F82C2195F8552102B10122D4F8CE
:10558000C03083F82D2195F8562102B10122D4F8BC
:10559000C03083F82E21D4F8C03095F8582183F814
:1055A0003121D4F8C03095F85C2183F83221D4F849
:1055B000C030D5F86021C3F81421D4F8C030B5F854
:1055C0006421C3F81021D4F8C03095F8662183F81F
:1055D0000C2195F8672102B10122D4F8C03083F87C
:1055E0001821D4F8C03095F8682183F8FE20D4F84B
:1055F000C03095F8692183F8FD20D4F8C030D5F883
:105600006C21C3F80421D4F8C030B5F87021A3F898
:105610000021D4F8C030B5F87421A3F8022195F820
:10562000782102B10122D4F8C03083F8082195F81E
:10563000792102B10122D4F8C03083F8092195F80C
:105640007A2102B10122D4F8C03083F80A21D4F8BB
:10565000C03095F87B21DA74D4F8C03095F87C21FD
:105660001A7595F87D21D4F8C030D20183F8F42062
:1056700095F87E61D4F8C03042EA861283F8F420AF
:1056800095F87F61D4F8C03042EA461283F8F420DE
:1056900095F88061D4F8C03042EA061283F8F4200D
:1056A00095F88161D4F8C03042EAC60283F8F4204C
:1056B00095F88261D4F8C03042EA860283F8F4207B
:1056C00095F88361D4F8C03042EA460283F8F420AA
:1056D00095F88461D4F8C030324383F8F42095F80B
:1056E0008521D4F8C030D20183F8F52095F8866181
:1056F000D4F8C03042EA860283F8F52095F8872175
:10570000D4F8C030D20183F8F62095F88861D4F837
:10571000C03042EA861283F8F62095F88961D4F801
:10572000C03042EA461283F8F62095F88A61D4F830
:10573000C03042EA061283F8F62095F88B61D4F85F
:10574000C03042EAC60283F8F62095F88C61D4F89E
:10575000C03042EA860283F8F62095F88D61D4F8CD
:10576000C03042EA460283F8F62095F88E61D4F8FC
:10577000C030324383F8F620D4F8C02095F8906109
:1057800012F8F53F06F003063343137095F89421A1
:10579000D4F8C030120183F8F72095F89861D4F856
:1057A000C03006F00F06324383F8F72095F89C21AD
:1057B000D4F8C030120183F8F82095F8A061D4F82D
:1057C000C03006F00F06324383F8F820D5F8A42144
:1057D0004B234B3AB2FBF3F2D4F8C03002F007028D
:1057E00083F8FA2095F8A861D4F8C03042EA46124E
:1057F00083F8FA2095F8A92102B10122D4F8C0302B
:105800001A7395F8AC2102B10122D4F8C03083F8A4
:10581000342195F8AD2102B10122D4F8C03083F8CB
:10582000352195F8AE2102B10122D4F8C03000E054
:105830002EE183F8362195F8AF2102B10122D4F888
:10584000C03083F8372195F8B02102B10122D4F895
:10585000C03083F8382195F8B12102B10122D4F883
:10586000C03083F8392195F8B22102B10122D4F871
:10587000C03083F83A2195F8B32102B10122D4F85F
:10588000C03083F83B2195F8B42102B10122D4F84D
:10589000C03083F83C2195F8B52102B10122D4F83B
:1058A000C03083F83D2195F8B62102B10122D4F829
:1058B000C03083F83E2195F8B72102B10122D4F817
:1058C000C03083F83F21D4F8C03095F8B82183F870
:1058D0004021D4F8C03095F8B92183F84121D4F89B
:1058E000C03095F8BA2183F84221D4F8C03095F839
:1058F000BB2183F84321D4F8C03095F8BC2183F84C
:10590000442100E0C7E0D4F8C03095F8BD2183F809
:105910004521D4F8C03095F8BE2183F84621D4F84B
:10592000C03095F8BF2183F84721D4F8C030D5F8AE
:10593000C021C3F84C21D4F8C03095F8C42183F8B5
:105940005021D4F8C03095F8C82183F8512195F83A
:10595000CC2102B10122D4F8C03083F8482195F857
:10596000CD2102B10122D4F8C03083F84921D4F806
:10597000C030B5F8D021A3F85221D4F8C030B5F822
:10598000D421A3F85421D4F8C03095F8D82183F855
:105990005621D4F8C03095F8DC2183F85721D4F88B
:1059A000C03095F8E02183F85821D4F8C03095F83C
:1059B000E42183F85921D4F8C020D171D4F8C03043
:1059C000D5F8E821C3F85C21D4F8C030D5F8EC2133
:1059D000C3F86021D4F8C030D5F8F021C3F86421B1
:1059E000D4F8C030D5F8F421C3F86821D4F8C02029
:1059F00082F8F900D4F8C03095F8AA2183F8FB208A
:105A0000D4F8C03095F8AB2183F8FC20D4F8C0203E
:105A10001278C2B300224D4B00E044E003EBC20217
:105A2000D4F8DC311A6084F85601032284F814217A
:105A300084F8551184F85411C4F8501184F8961163
:105A400084F8971184F89811C4F8E40184F8E80107
:105A500084F8E901C4F8EC01C4F8F001C4F8F401D9
:105A60003BA0FCF745F9204600F074FB3721606845
:105A700002F05EFD0246C0F3C4006FF01207012879
:105A800018D03D4900E013E03CA0FCF731F945E0B7
:105A90003846BDE8F081D4F8C0108872D4F8C01040
:105AA000C872FFF7BCBAD4F8C0201171FFF740BB31
:105AB0000122B0E7D5F8F801C4F8B400D5F8FC012C
:105AC000C4F8B800D5F80002C4F8BC0002F007061C
:105AD000204603F0A7FF002820DB204603F0C5FC8A
