:020000040800F2
:1000000038170020B1010008F31A00084B19000846
:10001000F11A0008B3070008AD1E00080000000038
:10002000000000000000000000000000811C00082B
:10003000B507000800000000F51A0008831C00083E
:10004000CB010008CB010008CB010008CB01000860
:10005000CB010008CB010008CB010008CB01000850
:10006000CB010008CB010008CB010008CB01000840
:10007000CB010008CB010008CB010008CB01000830
:10008000CB010008CB010008CB01000800000000F4
:10009000000000000000000000000000CB0100088C
:1000A000CB010008CB010008CB010008CB01000800
:1000B000CB010008CB010008CB010008CB010008F0
:1000C000CB010008CB010008CB010008F91A000899
:1000D000CB010008CB010008CB01000800000000A4
:1000E000CB010008CB010008CB0100080000000094
:1000F000000000000000000000000000CB0100082C
:1001000000000000CB010008CB010008CB01000873
:1001100000000000000000000000000000000000DF
:10012000CB010008CB010008CB010008CB0100087F
:10013000CB010008000000000000000000000000EB
:10014000000000000000000000000000CB010008DB
:10015000CB010008CB010008CB010008CB0100084F
:10016000CB010008CB0100080000000000000000E7
:10017000000000000000000000000000000000007F
:1001800000000000CB01000800000000000000009B
:10019000CB010008CB010008DFF810D000F0CCFA4A
:1001A00000480047099B0008AFF300803817002083
:1001B0000648804706480047FEE7FEE7FEE7FEE701
:1001C000FEE7FEE7FEE7FEE7FEE7FEE7191D000893
:1001D000990100082DE9F05F0546002092469B46F4
:1001E00088460646814640241BE02846414647464D
:1001F000224600F020F853465A46C01A914110D3C7
:1002000011461846224600F091F92D1A67EB0108B5
:100210004F4622460120002100F088F917EB000923
:100220004E41201EA4F10104DFDC484631462A4637
:100230004346BDE8F09F202A04DB203A21FA02F071
:100240000021704721FA02F3D040C2F12002914010
:1002500008431946704740EA01039B0703D009E0B1
:1002600008C9121F08C0042AFAD203E011F8013BA2
:1002700000F8013B521EF9D27047D2B201E000F8FB
:10028000012B491EFBD270470022F6E710B513463A
:100290000A4604461946FFF7F0FF204610BD2DE937
:1002A000FE4F804681EA0300C00F0C46009021F00B
:1002B000004123F00045B8EB0200A94105D24046B9
:1002C000214690461C460B46024623F00040104350
:1002D00047D0270DC7F30A00C3F30A510290401A12
:1002E000019040286BDAC3F3130040F4801B0098A0
:1002F000924620B10023D2EB030A63EB0B0B01986B
:100300005946C0F14002504600F010F906460D462D
:1003100050465946019A00F018F910EB0800614167
:10032000002487EA115284EAE7731A4340D0009A06
:1003300062B3019A012A4FEA075215DC001B61EBF8
:1003400002014FF0004202EA0752CDE90042001CD0
:1003500041F5801132462B4600F018F903B0BDE894
:10036000F08F40462146F9E7001B61EB0201001CBB
:1003700041F5801300185B412018A2F5001747EBE8
:10038000030140EAD570B6196D4111E06D084FEADE
:10039000360645EAC0754FEA0752001B61EB0201C1
:1003A000001C41F5801149084FEA30000019514105
:1003B00032462B4603B0BDE8F04F00F0D8B80098A5
:1003C000012240000023D0EB020263EBE0730098AF
:1003D00021464FEAE074B8EB000061EB0401E9E765
:1003E00083F000435BE781F0004158E72DE9FE4FC1
:1003F00081EA030404F0004421F0004100944FF02E
:10040000000B23F0004350EA01045ED052EA0304DB
:100410005BD0C3F30A54C1F30A552C44A4F2F3345D
:100420000194A0FB0254C1F3130141F48011C3F302
:10043000130343F4801301FB024400FB034E840AC0
:10044000970A44EA815447EA8357A4FB0768029558
:100450008D0A05FB07854FEA932C04FB0C542705F6
:10046000029D4FEA065847EA1637B5EB08056EEBD2
:10047000070C870E920E47EA811742EA8312A7FB08
:100480000201B6EB0B0164EB00042B0D43EA0C33C5
:100490005E1844EB1C50DA465146E7FB0201C5F3F7
:1004A00013044FEA0B3343EA14534FEA0432019C1E
:1004B00043EA0603A4F10C040294009CCDE900B4C5
:1004C00000F064F803B0BDE8F08F00200146F9E7C2
:1004D000C1F30A52C1F3130140F2FF3341F480111A
:1004E0009A4202DA00200146704740F233439A42B2
:1004F000A2F2334202DC5242FFF79DBE00F016B872
:1005000030B50B46014600202022012409E021FAE3
:1005100002F59D4205D303FA02F5491B04FA02F5E0
:100520002844151EA2F10102F1DC30BD202A04DBB3
:10053000203A00FA02F1002070479140C2F12003F6
:1005400020FA03F3194390407047202A06DBCB17AB
:10055000203A41FA02F043EAE07306E041FA02F37E
:10056000D040C2F12002914008431946704710B5AF
:10057000141E73F1000408DA401C41F100019218C6
:100580005B411A4301D120F0010010BD2DE9F04D6F
:1005900092469B4611B1B1FA81F202E0B0FA80F2C4
:1005A00020329046FFF7C2FF04460F4640EA0A0099
:1005B00041EA0B0153465A46084313D0114653EA09
:1005C000010019D0C8F140025046FFF734FE05463D
:1005D0000E46504659464246FFF7A8FF084305D04D
:1005E000012004E020463946BDE8F08D0020054397
:1005F00046EAE0762C4337430A986305E40AA0EB09
:1006000008000022FD0A44EA47540A3002D50020BF
:100610000146E9E7010510196941DDE908450019BE
:100620006941BDE8F04DA2E72DE9F04D81EA0304F0
:1006300004F0004B21F0004514464FF0000A23F06F
:10064000004150EA050220D054EA01021DD0C5F352
:100650000A570246C5F31303C1F31300C1F30A5648
:1006600040F4801543F48013A7EB0608101BD64610
:1006700008F2FD3873EB050002D308F1010801E030
:1006800092185B41B8F1000F03DA00200146BDE883
:10069000F08D00204FF48011064684460EE0171BB3
:1006A00073EB050705D3121B63EB050306434CEA06
:1006B000010C49084FEA300092185B4150EA0107EB
:1006C000EDD152EA030012D082EA040083EA050168
:1006D000084305D0101BAB4106D20122002306E0DF
:1006E00000224FF0004302E06FF0010253101AEBBA
:1006F00006004CEB085110EB0A0041EB0B01BDE882
:10070000F04DFFF734BF000030B5041E71F1000456
:1007100004DB4FF00044404264EB0101141E73F10E
:10072000000405DB1C464FF00043524263EB040318
:10073000994208BF904230BD064C074D06E0E06884
:1007400040F0010394E8070098471034AC42F6D318
:10075000FFF726FD50BD000870BD000870B58C186D
:1007600010F8015B15F0070301D110F8013B2A11C5
:1007700006D110F8012B03E010F8016B01F8016BB2
:100780005B1EF9D12B0705D40023521E0DD401F8AE
:10079000013BFAE710F8013BCB1A921C03E013F877
:1007A000015B01F8015B521EF9D5A142D8D30020AC
:1007B00070BDFEE77047704772B6FEE790F83510DF
:1007C000022903D08021416501207047052180F86E
:1007D00035100068016821F00101016000207047B8
:1007E00070B5044600F00CF90546601C02D00448C0
:1007F0000078044400F004F9401BA042FAD370BD15
:10080000100200202DE9F84FDFF8B8A100220124E2
:1008100003254FF00F090AF1040BAAF1040E00BFE3
:100820000B6804FA02F63340B34273D10F7907F034
:100830000307012F01D0022F16D187684FEA420823
:1008400005FA08FC27EA0C07D1F80CC00CFA08FCE2
:100850004CEA070CC0F808C04768B7430E79C6F3E6
:10086000001696403E4346600E79F643B6070DD01B
:10087000C768560005FA06FC27EA0C07D1F808C03D
:100880000CFA06FC4CEA070CC0F80CC00E7906F016
:100890000306022E10D1D60800EB8608D8F8206097
:1008A00057074FEAD76C09FA0CF7BE430F6907FAEE
:1008B0000CF73743C8F8207006684FEA420C05FA77
:1008C0000CF7BE430F7907F0030707FA0CF737431D
:1008D00007604E6816F4403F6DD03B4E376847F4D2
:1008E00080473760366822F0030706F4804600969A
:1008F000364E07EB060CDCF8086897073F0F09FA3D
:1009000007F826EA0806DFF8C880404503D14FF013
:1009100000081EE04FE0DFF8BC80404502D14FF0F8
:10092000010816E0DFF8B080404502D14FF0020820
:100930000FE0DFF8A880404502D14FF0030808E03F
:10094000DFF89C80404502D14FF0040801E04FF0F1
:10095000070808FA07F848EA0608CCF80888DAF821
:1009600000605746D1F804C09E435FEACC2C00D506
:100970001E433E60DBF800605F46D1F804C09E4332
:100980005FEA8C2C00D51E433E60DEF8006077469F
:10099000D1F804C09E435FEA8C3C00D51E433E6004
:1009A000084F083F3E68D1F804C09E435FEACC3C44
:1009B00000D51E433E60521C102AFFF431AFBDE843
:1009C000F88F0000083C01404438024000300140EC
:1009D000000002400004024000080240000C0240F7
:1009E00000100240426921EA02030A4043EA024140
:1009F000816170470AB1816170470904FBE700001B
:100A00000148806870470000100200200248816899
:100A10000278114481607047100200200B4810B525
:100A2000016841F400710160016841F48061016076
:100A3000016841F480710160032000F06FF801202B
:100A400000F006F800F024F8002010BD003C024041
:100A500070B50D4D04464FF47A712878B1FBF0F073
:100A60000A490968B1FBF0F000F09DFE48B9102C6E
:100A700007D200222146501E00F030F800206C60A2
:100A800070BD012070BD0000100200201C0200207B
:100A90000A4808B5016841F480410160006800F42B
:100AA000804000900548001F016841F080510160BE
:100AB000006800F08050009008BD000044380240FB
:100AC000002809DB00F01F0201219140400980004D
:100AD00000F1E020C0F8001170470000F0B40E4BA8
:100AE0001B680C46C3F30223C3F10705042D00D98C
:100AF0000425191D072901D2002300E0DB1E012671
:100B000006FA05F1491E214099409E40761E164086
:100B10003143F0BC01F0DCB90CED00E0064900F017
:100B2000070208684FF6FF03184040EA0220034A14
:100B300010430860704700000CED00E00000FA056B
:100B40002DE9F0470E46050065D0DFF81481D8F88E
:100B50000000F7B200F00700B04207D288F800703A
:100B6000D8F8000000F00700B04254D128683D4C8E
:100B7000810712D5400703D5206840F4E05020607B
:100B80002878000703D5206840F460402060206882
:100B9000A96820F0F000084320602878C0072DD015
:100BA000304968680839012812D0022813D0032878
:100BB00011D00968890700292DDA216821F0030185
:100BC00001432160FFF71CFF814641F2883A0EE0A5
:100BD00009688903EFE709688901ECE7FFF710FF6F
:100BE000A0EB0901514502D90320BDE8F087206838
:100BF000696800F00C00B0EB810FEFD1D8F800105D
:100C0000404601F00701B14207D90770006800F0C3
:100C10000700B04201D00120E7E72878400705D55A
:100C20002068E96820F4E050084320602878000735
:100C300006D52068296920F4604040EAC1002060A0
:100C400000F038F82168084AC1F30311515CC8402C
:100C50000649086006480068FFF7FAFE0020C4E76E
:100C6000003C024008380240EA9F00081C020020B5
:100C7000140200200448054900680968044AC1F3C9
:100C80008221515CC84070471C0200200838024095
:100C9000FA9F00080448054900680968044AC1F33E
:100CA0004231515CC84070471C02002008380240A5
:100CB000FA9F0008154810B5006810F00C0214489F
:100CC00013D01449042A0FD0082A0ED10F4C241F28
:100CD0002268236802F03F025B0207D52068C0F358
:100CE0008810A0FB010106E0084610BD2168C1F391
:100CF0008811A1FB00010023FFF76CFA2168C1F302
:100D00000141491C4900B0FBF1F010BD0838024018
:100D10000024F40040787D012DE9F84F04006ED0E6
:100D20002078DFF84C93C007A9F104054AD009F1F7
:100D300004000168C1F38101012908D00068C0F3F3
:100D4000810002280AD1D9F80000400206D528689F
:100D5000800337D560680028E1D033E06068B0F5E3
:100D6000803F10D0B0F5A02F286810D020F480303C
:100D70002860286820F4802028606068A8B1FFF708
:100D80003FFE06460DE0286840F48030F4E740F46A
:100D900080202860F7E700BFFFF732FE801B642841
:100DA00073D828688003F7D50CE0FFF729FE0646C4
:100DB00005E000BFFFF724FE801B6428F0D82868F8
:100DC0008003F7D42078DFF8AC8280074FF0000A68
:100DD0003ED5A748001D016811F00C0F08D000682F
:100DE000C0F3810002280BD1D9F80000400207D4DB
:100DF0002868800716D5E068012800D112E033E1A9
:100E0000E068B8B10120C8F80000FFF7F9FD064618
:100E100005E000BFFFF7F4FD801B0228C0D828685A
:100E20008007F7D52868216920F0F80040EAC10062
:100E300028600DE0C8F800A0FFF7E2FD064604E0D8
:100E4000FFF7DEFD801B02281FD828688007F7D433
:100E50002078000722D5864F87486169703771B1C5
:100E600001210160FFF7CCFD064604E0FFF7C8FD55
:100E7000801B022809D838688007F7D50EE0C0F833
:100E800000A0FFF7BDFD064605E082E0FFF7B8FDD4
:100E9000801B02287DD838688007F7D42078400767
:100EA00068D5DFF8CCB100270BF13C0BDBF8000074
:100EB000C0000BD4DBF8001041F08051CBF80010DB
:100EC000DBF80000012700F0805000906B4E306886
:100ED000C00510D4306840F480703060FFF790FD9A
:100EE000009005E0FFF78CFD0099401A022850D8C9
:100EF0003068C005F6D55E4EA0686C3601280FD06C
:100F00000528306810D020F001003060306820F0F3
:100F100004003060A068B8B1FFF772FD00900FE0E8
:100F2000306840F00100F4E740F004003060F7E77B
:100F3000FFF766FD0099411A41F28830814266D878
:100F400030688007F4D50EE0FFF75AFD009007E007
:100F5000FFF756FD0099411A41F28830814256D878
:100F600030688007F4D42FB1DBF8001021F08051F5
:100F7000CBF80010A069C8B33D49091D0968C1F349
:100F8000810102294AD00228504607D0C8F86000E3
:100F900000E03CE0FFF734FD04463BE04746C8F87C
:100FA0006000FFF72DFD064605E000BFFFF728FDB6
:100FB000801B02282BD828688001F7D4D4E90701C8
:100FC0000843A16A2E4A490802EB0141626A41EADC
:100FD0008211084394F82C1040EA0161C9F800100E
:100FE00001203866FFF70CFD044606E03EE000BF36
:100FF000FFF706FD001B022809D828688001F7D5F5
:1010000034E000BFFFF7FCFC001B022802D90320DC
:10101000BDE8F88F28688001F4D427E00128F7D0D4
:10102000D9F80000E26900F4800191421CD1226AE3
:1010300000F03F01914217D147F6C071626A01404A
:10104000B1EB821F10D1A26A4FF0FF3300F44031A0
:1010500003EB5202B1EB024F06D194F82C1000F0D2
:101060007060B0EB016F01D00120D1E70020CFE725
:101070000438024000004742800E474200700040A2
:101080000000FFFF7047000038B5016804464A6859
:101090008868C043430606D5C30704D1D3435B0623
:1010A00001D4216C05E0830708D4D3431B0605D483
:1010B000616C01B02046BDE830400847830603D587
:1010C000430601D5C30551D4D3439B064ED44306F2
:1010D0000AD494F85130032B49D0636D43F00403D4
:1010E0006365CB688B680093830609D4636D43F016
:1010F000010363658B6800930B6823F040030B606A
:10110000C00506D4606D40F0080060652068806806
:101110000090606D002829D02068416821F0E0012E
:101120004160012084F85100900701D4D00722D0FB
:101130002068416821F003014160114DE06C40B12D
:101140000565E06CFFF73AFB18B1606D40F04000B8
:101150006065A06C002809D00565A06CFFF72EFB28
:10116000002803D0606D40F04000606538BDC8685D
:101170008868009038BD2046FFF784FF38BD000026
:10118000051B000870B5040009D0606A002540B155
:1011900025616561A56294F8510040B10CE0012021
:1011A00070BD6068B0F5827FF4D0E561F2E784F845
:1011B0005050204600F044F8022084F85100206886
:1011C000016821F040010160A088218900F482704B
:1011D00001F404410843A18901F400610843217C22
:1011E00001F002010843217D01F001010843218B38
:1011F00001F400710843217F01F03801084394F89D
:10120000201001F080010843218D01F400510843B2
:1012100021680860A069042101EA104094F82410B4
:1012200001F010010843216848602068C16921F479
:101230000061C1616565012084F85100002070BD26
:1012400070B586B0044614216846FFF71DF8284E95
:10125000226800212748022303240525B24225D114
:10126000244A1432166846F480561660126802F456
:1012700080520592026842F001020260006802AAF0
:1012800000F00100059082E83200E020CDE9000383
:1012900069461948FFF7B6FA002204212320FFF718
:1012A0001DFC2320FFF70CFC06B070BD134EB242AC
:1012B000FAD1104A1032166846F480461660126859
:1012C00002F480420592026842F002020260006865
:1012D00002AA00F00200059082E832004FF4444078
:1012E000CDE9000369460648FFF78CFADCE7000009
:1012F0000030014030380240000002400038004019
:10130000000402402DE9F84F044640680025984645
:1013100016460F464FF0040BB0F5827F01D1A0684E
:1013200088B194F85000012818D0012084F85000AA
:10133000FFF766FB814694F851004FF0000A012840
:101340000ED0022582E084F851B013460A462046AA
:10135000CDF8008000F036F9BDE8F88F0220FBE7F9
:10136000002F72D0002E70D084F851B0C4F854A071
:10137000A763A687E687C4F830A0A4F834A0A4F831
:1013800036A0C4F840A0C4F844A0A068B0F5004F4F
:1013900009D12068016821F04001016020680168DE
:1013A00021F48041016020680168490603D4016886
:1013B00041F040010160E068D8B139E020688168FF
:1013C000C90709D0007BA16B0870A06B401CA0630B
:1013D000E08F401EE0870CE0FFF712FBA0EB090155
:1013E000414503D3B8F1FF3F03D036E0B8F1000F19
:1013F00033D0E08F0028E1D11DE020688168C90763
:1014000009D0C068A16B0880A06B801CA063E08F2E
:10141000401EE0870CE0FFF7F3FAA0EB090141451D
:1014200003D3B8F1FF3F03D017E0B8F1000F14D099
:10143000E08F0028E1D14A464146204600F06AFB91
:1014400008B120206065606D00B10125012084F89D
:10145000510084F850A028467EE70325F6E72DE9E1
:10146000F84F044690F8500000271D46164689465E
:1014700001280DD04FF0010B84F850B0FFF7C0FAEF
:10148000804694F85100BA46012804D0022793E020
:101490000220BDE8F88FB9F1000F73D0002E71D093
:1014A000032084F85100C4F854A0C4F83090A686F4
:1014B000E686C4F838A0A4F83CA0A4F83EA0C4F87E
:1014C00044A0C4F840A0A068B0F5004F09D120683E
:1014D000016821F0400101602068016841F4804109
:1014E000016020680168490603D4016841F04001A9
:1014F0000160E068B0F5006F606803D030B3012E82
:1015000024D041E008B1012E1CD1206B2168008855
:10151000C86006E020688168890709D5216B0988C1
:10152000C160206B801C2063E08E401EE08609E0D5
:10153000FFF766FAA0EB0800A84202D3681C01D0AE
:1015400031E07DB3E08E0028E4D120E0206B2168FB
:101550000078087306E020688168890709D5216B47
:1015600009780173206B401C2063E08E401EE086EA
:101570000AE0FFF745FAA0EB0800A84203D3681C75
:1015800002D010E017E06DB1E08E0028E3D14246B2
:101590002946204600F0ECFA08B120206065A068DA
:1015A00018B106E0FFE7032706E02068C1688068FD
:1015B0000090606D00B1012784F851B084F850A00C
:1015C000384666E72DE9F84F044690F850000027AA
:1015D0000A9E1D4692468B464FF0010901280ED007
:1015E000012084F85000FFF70BFA804694F8510070
:1015F000616801280CD0B1F5827F07D102E002209A
:10160000BDE8F88FA16809B9042801D00227C2E01B
:10161000BBF1000F27D0BAF1000F24D01DB394F80E
:101620005100042802D0052084F851000020606594
:10163000C4F838A0E587A587C4F830B0E586A5864C
:101640002064606420680168490603D4016841F0A1
:1016500040010160E068B0F5006F606805D0E8B354
:10166000012D46D07FE0012795E008B1012D39D149
:10167000206B21680088C860206B801C2063E08E8E
:10168000401EE0862EE02068816889070FD5E18E34
:1016900069B1B9F1010F0AD1216B0988C160206BD2
:1016A000801C2063E08E401EE0864FF00009206819
:1016B0008168C9070CD0E18F51B1C068A16B088067
:1016C000A06B801CA063E08F401EE0874FF00109F3
:1016D000FFF796F9A0EB0800B04200E009E001D363
:1016E000701C50D1E08E0028CDD1E08F0028CAD1E7
:1016F0003FE0206B216800780873206B401C20635A
:10170000E08E401EE0862EE02068816889070FD5B4
:10171000E18E69B1B9F1010F0AD1216B097801732A
:10172000206B401C2063E08E401EE0864FF00009D5
:1017300020688168C9070CD0E18F51B1C068A16BE6
:101740000870A06B401CA063E08F401EE0874FF044
:101750000109FFF755F9A0EB0800B04202D3701C55
:1017600001D010E07EB1E08E0028CDD1E08F0028BE
:10177000CAD142463146204600F0FAF928B1012785
:101780002020606507E0032705E0A06818B92068FD
:10179000C16880680090012084F85100002084F81E
:1017A000500038462CE710B5401EB0F1807F01D3C1
:1017B000012010BD4FF0E02460610F21601700F0A0
:1017C00087FB0020A06107202061002010BD70B5BC
:1017D000040004D094F83D00002510B106E001207B
:1017E00070BD84F83C50204600F022F8242084F894
:1017F0003D002068C16821F40051C160204600F01E
:1018000093FA2068016921F49041016120684169DF
:1018100021F02A0141612068C16841F40051C16092
:101820002564202084F83D0084F83E00002070BD2F
:1018300010B586B0044614216846FEF725FD13490D
:101840002068884220D112480021026842F010022C
:101850000260006800F0100005900D48143802681E
:1018600042F002020260006800F002000590482089
:1018700000900220CDE9010103200390072004908D
:1018800069460448FEF7BEFF06B010BD00100140D7
:1018900044380240000402402DE9F843044690F821
:1018A0003D001F4616460D4620284CD1C5B1BEB19D
:1018B00094F83C00012846D0012084F83C004FF009
:1018C0000008C4F84080212084F83D00FFF798F814
:1018D000A6848146E684A068B0F5805F03D004E06A
:1018E0000120BDE8F883206928B12E465FF000058D
:1018F00084F83C800EE00026FAE78021204600F0C4
:1019000099FAA0B9AEB116F8010B21684860E08CD5
:10191000401EE084E08C4B464FF000020097002808
:10192000EBD14FF04001204600F084FA30B10320A3
:10193000D7E735F8020BC0F30800E6E7202084F86B
:101940003D000020CDE70220CBE7FEE72DE9F04780
:1019500086B014216846FEF797FC304800240168E1
:1019600041F004010160016801F004010591016882
:1019700041F080010160016801F08001059101687A
:1019800041F001010160016801F001010591016868
:1019900041F0020101600068DFF8848000F002007D
:1019A0004FF400560590002231464046FFF722F8DA
:1019B000DFF870A04FF48267002239465046FFF7E7
:1019C00019F8DFF86490002231464846FFF712F814
:1019D00001250096CDE90154694640460394FEF77F
:1019E00011FF0097CDE90154694650460394FEF774
:1019F00009FF0096CDE90154694648460394FEF775
:101A000001FF2802CDE900040220029069465046F9
:101A1000FEF7F8FE06B0BDE8F0870000303802405F
:101A20000008024000000240000402400F4810B5C8
:101A30000D4901604FF482714160002181600122F3
:101A4000C160C0E904125202C0E90621016241628C
:101A500081620A21C162FFF795FB002803D0BDE82F
:101A60001040FEF7A9BE10BD00300140400200202A
:101A7000104810B50E4901604FF482714160002199
:101A800081600122C160C0E90412520282612822F1
:101A9000C0E90721416281620A21C162FFF772FB3E
:101AA000002803D0BDE81040FEF786BE10BD000040
:101AB00000380040980200200C4810B50A49016027
:101AC0004FF4E1314160002181600C22C160C0E926
:101AD00004128161C161FFF77AFE002803D0BDE8DE
:101AE0001040FEF769BE10BD00100140F00200205A
:101AF000FEE7FEE7704700000148FFF7C5BA0000A7
:101B00004002002010B5806B0021C187C186FFF71D
:101B1000B9FA10BDF8B5044640684FF48273984294
:101B200021D1A0684FF48065B0F5004F01D0A842E4
:101B30000AD12068066826F0400606606068984270
:101B400011D1A068A8420ED000920B46002280213D
:101B5000204600F039F8002804D0606D40F02000E5
:101B600060650320F8BD00920B4600220121EFE7DB
:101B700038B504461248134B0068B0FBF3F04FF43D
:101B80007A73584300906068B0F5827F0DD10B46A0
:101B9000009200228021204600F016F870B1606D9E
:101BA00040F020006065032038BD009830B1401E31
:101BB000009020688068C0430006F6D5002038BD3C
:101BC0001C02002000366E012DE9F8431E469146A6
:101BD00088460446089DFEF713FF401B351AFEF7A2
:101BE0000FFF074625480068C0F3CB30684338E054
:101BF000701C37D0FEF704FFC01BA84203D215B1FA
:101C0000009860B32CE02068416821F0E001416059
:101C10006068B0F5827F0BD1A068B0F5004F02D0AC
:101C2000B0F5806F04D12068016821F040010160A7
:101C3000A06AB0F5005F09D12068016821F4005165
:101C400001602068016841F400510160012084F8BE
:101C50005100002084F850000320BDE8F8830025DF
:101C6000401E00902068816838EA010004D00021FD
:101C70004945BDD10020F0E70121F9E71C02002011
:101C80007047FEF7C3BE000030B593B03021684600
:101C9000FEF7FAFA14210CA8FEF7F6FA1C48002504
:101CA000016841F080510160006800F0805011909F
:101CB0001848016841F4404101600068022400F4C2
:101CC0004040119001200090000401908001CDE976
:101CD00006400C2008906020CDE9090404200B90F8
:101CE0006846FFF719F808B172B6FEE70CA90F2095
:101CF00081E831004FF48050CDE90F0503210CA895
:101D0000FEF71EFF002801D072B6FEE713B030BD0B
:101D100040380240007000400248016841F4700100
:101D20000160704788ED00E070B504460068016905
:101D3000E26821F44051114301612169A068E26920
:101D400008436169114308432168CA6849F20C637A
:101D50009A430243CA6020684169A26921F4407134
:101D60001143416131492068884202D0304988429C
:101D700002D1FEF78FFF01E0FEF77CFFE26900234E
:101D8000192164253226B2F5004F626828D0A0FBE5
:101D90000101930F9200FEF71DFA0146B0FBF5F02A
:101DA0006FF01802504301EB800006EB0010B0FB0F
:101DB000F5F000F0F002B1FBF5F002EB0012B1FB20
:101DC000F5F06FF01803584301EB800006EB0010AC
:101DD000B0FBF5F000F00F0021681044886070BD82
:101DE000A0FB010192185B41FEF7F4F90146B0FB3C
:101DF000F5F00201B1FBF5F06FF01803584301EB69
:101E0000800006EBC000B0FBF5F000F0F80002EB3C
:101E10004002B1FBF5F0584301EB800006EBC00037
:101E2000B0FBF5F000F00700D6E70000001001401D
:101E3000001401402DE9F041984617460E4604462D
:101E4000069D27E0681C25D02DB1FEF7D9FDA0EB3B
:101E50000800A8421ED920680C3050E8001F21F469
:101E6000D07140E80012002AF5D12068143050E803
:101E7000001F21F0010140E80012002AF5D12020C6
:101E800084F83D0084F83E00002084F83C000320E4
:101E9000BDE8F0812068006836EA000004D0002028
:101EA000B842CFD00020F3E70120F9E7FEE70000B9
:101EB0000FB4054B10B503A9044A029800F096F937
:101EC00010BC5DF814FB0000BD990008340200202E
:101ED0000907090E002804DB00F1E02080F8001457
:101EE000704700F00F0000F1E02080F8141D7047EB
:101EF00038B51D4614000BD001236A4606F014FCC9
:101F0000002804DB9DF800002040E840C0B238BD46
:101F10006FF0150038BD2DE9F8431E46089D1400EA
:101F20000F46804614D001236A4606F0FDFB0028C8
:101F30000CDB9DF80000B540A04325400543EAB204
:101F40008DF800203946404606F01EFCBDE8F883B7
:101F50006FF01500FAE770B5044602F0030060F375
:101F60005F110A461E46049DA021606806F00CFC25
:101F700006F0030646F07C02A121606806F004FC2E
:101F800046F07802A121606806F0FEFB1021204691
:101F900004F0F0FF00280DDB5DB1D4F8C000C06A8A
:101FA000022808D0A721606806F0B4FB00F0030007
:101FB0002870002070BDA821F5E700002DE9F04150
:101FC0005508134604464E080A461A491AA0FFF758
:101FD0006FFF1CA0FFF76CFF2046A16E07F084FB8B
:101FE000074602463146204605F06CFB00281EDB02
:101FF0003A462946204606F0B9FD002817DB31464F
:10200000204605F0FFFB002811DB2946204606F09C
:1020100011FE00280BDB2046E16E07F065FB02464F
:102020003946204604F0D0FF002800DB0020BDE840
:10203000F0810000C8B7000825733A2025752025D7
:10204000750000000A00000002E008C8121F08C165
:10205000002AFAD170477047002001E001C1121F29
:10206000002AFBD1704700002DE9FF5F82B00021FC
:10207000DDE90430020DDDF840B0034318D044F62A
:102080001050A2F2FF3242431514119801281FD0BC
:10209000A5EB0B00401C5FEA000A4FF000064E4F14
:1020A000DFF83891B046504615D5CAF1000413E068
:1020B000119801244AA3012801D16FEA0B0102986B
:1020C000119AC0E90031C0E9024206B0BDE8F09FB4
:1020D000CBF10000DFE704460021404A491842EBFB
:1020E0000450CDE9001012E0E00707D032463B462D
:1020F00040464946FEF77AF98046894632463B46D5
:1021000010461946FEF772F906460F466410002C79
:10211000EAD1DDE90401DDE90023BAF1000F06DAB6
:10212000FEF764F942464B46FEF760F905E0FEF71C
:102130007BFA42464B46FEF777FA04460E460022EB
:10214000284BFEF7E1FA03D84FF0FF30014607E0D5
:102150000022254B20463146FEF7A1F8FEF7B8F9DC
:10216000102409E0002C0ADB0A220023FEF732F8D3
:10217000039B30321A55641E50EA0102F2D1641CEE
:10218000039AC4F111031444119A012A03D00122C5
:1021900008430DD10AE0084304D000204FF0110B92
:1021A000119072E7A3EB0B056D1E0DE05B4504DD9E
:1021B0004FF0000205F1010504E003DA4FF00002E0
:1021C000A5F10105002AECD002981199C0E902316D
:1021D000C0E9004579E70000000014400000F03F2E
:1021E000300000000000F0430000E03F2DE9FF4F09
:1021F00095B09A46884606460025EEE1252877D117
:1022000000242746F94A0121039400E0044316F80C
:10221000013F203B01FA03F01042F7D130782A2821
:1022200011D06FF02F033078A0F13002092A16D8B0
:10223000039A44F0020402EB820203EB42021044D0
:10224000761C0390EFE758F8042B0392002A03DA78
:10225000504244F40054039044F00204761C307859
:102260002E2816D116F8010F44F004042A280DD0A8
:102270006FF02F023078A0F13003092B09D807EB5B
:10228000870302EB4303C718761CF3E758F8047B77
:10229000761C30786C280FD006DC4C2817D06828C4
:1022A0000DD06A2814D104E0742810D07A280FD1F8
:1022B0000DE044F400140AE044F4801401E044F416
:1022C00040147278824202D104F58014761C761C88
:1022D000307866280BD013DC582877D009DC00282A
:1022E00075D04528F6D04628F4D047281AD193E176
:1022F00018E0632835D0642879D0652812D18BE1A5
:10230000702873D008DC6728F1D069286FD06E2858
:102310000DD06F2806D1ACE073282CD0752874D06E
:10232000782853D05246179990476D1C54E1C4F356
:102330000250022809D003280DD0D8F80010042834
:102340000DD00D6008F1040846E1D8F80010EA1736
:10235000C1E90052F6E7D8F800100D80F2E70D70E1
:10236000F0E718F8041B8DF8001000208DF801002C
:10237000EB46012003E058F804BB4FF0FF30610743
:102380004FF0000102D40DE009F101018946B94284
:102390000FDA8145F8DB1BF809100029F4D108E0B9
:1023A00009F1010189468142FADB1BF80910002975
:1023B000F6D103985346A0EB090721463846179AF1
:1023C00000F080FA284400EB090507E044E008E14A
:1023D0000DE01BF8010B524617999047B9F101091E
:1023E000F7D2534621463846179AF2E039E00A21DF
:1023F000C4F302524FF0000B0091022A06D058F8A5
:10240000040BC117032A09D00AE023E008F10700F2
:1024100020F00702F2E80201904605E000B2C11781
:10242000042A01D140B2C117002906DA0A46002168
:10243000404261EB02012D2202E0220504D52B224D
:102440008DF80420012203E0E20701D02022F7E703
:10245000914657E00A2100E010214FF0000B009157
:102460000BE010214FF0000B44F00404082700910A
:1024700003E008204FF0000B0090C4F30252022A40
:1024800005D058F8040B0021032A08D008E008F111
:10249000070020F00702F2E80201904603E080B254
:1024A000042A00D1C0B24FF0000922072AD53278A1
:1024B000702A07D0DDF800C08CF0100C5CEA0B0C21
:1024C00005D00EE040228DF80420012208E050EAF9
:1024D000010306D030238DF804308DF80520022248
:1024E0009146009B83F0080353EA0B030AD150EA9C
:1024F000010201D1620705D530228DF804204FF08A
:1025000001097F1E3278582A04D039A20C920CAAF5
:1025100002920BE03BA2F9E75B46009AFDF75AFEF8
:102520000C9B9B5C029A521E0292137050EA0102AD
:10253000F2D1029804A9081A00F1200B600702D515
:1025400024F4803400E001275F4502DDA7EB0B0097
:1025500000E0002000EB0B01009003984944401A72
:102560000390E00306D453462146179A039800F0DF
:10257000A9F90544002706E001A85246C05D179955
:1025800090476D1C7F1C4F45F6DBE0030CD553468E
:102590002146179A039800F095F9054404E030208D
:1025A0005246179990476D1C0099481E00900029CB
:1025B000F5DC08E00298029952460078491C029125
:1025C000179990476D1CBBF10001ABF1010BF1DCD9
:1025D0005BE100F065F90544761C307800287FF453
:1025E0000DAE19B02846BDE8F08F000009280100A3
:1025F0003031323334353637383961626364656679
:10260000000000003031323334353637383941423A
:102610004344454600000000600700D4062708F147
:10262000070020F00700F0E80223804603F0004C8A
:102630005FEA0C0001D097A009E0200501D596A023
:1026400005E0E00701D095A001E0AFF24C00139047
:10265000307823F0004365280CD006DC452809D0EB
:1026600046281DD047287FD13BE0662818D0672830
:102670007AD136E00021112F01DB112000E0781C17
:10268000CDE9000104A90CA8FFF7EEFCDDE90D017E
:102690000C9A4FF0000B07F10109109200914EE0E7
:1026A0004FF000400097CDE9011004A90CA8FFF7F6
:1026B000DBFCDDE90D020C9B0F994FF0000B9146FE
:1026C0001093009211B9791C00EB0109B7EB0900D6
:1026D00003D4C0F1FF3B07F10109A9EB070001900A
:1026E00042E0012F00DA01270021112F01DD112026
:1026F00000E03846CDE9000104A90CA8FFF7B4FCBE
:10270000DDE90D010C9A00914FF0000BB9461092D3
:1027100021070FD4009A4A4503DA914601E0A9F156
:102720000109B9F1010F05DD109AA9F10101515C10
:102730003029F4D0B84202DA10F1040F03DA012193
:10274000CDE9011010E0002803DC8344A9EB00016F
:1027500002E0411C494500DD8946A0EB0B00401C0E
:1027600001904FF000400290200705D401984845A1
:1027700002DB4FF0FF30019000208DF84B000298F3
:102780000DF14B07B0F1004F25D002200C902B200B
:102790000D90029800280CDA404202902D200D90F6
:1027A00007E00A210298FDF7ABFE3031029007F8EE
:1027B000011D0C99481E0C900029F2DC029800289B
:1027C000EFD1791E0D980870307800F0200040F0AD
:1027D000450007F8020D11A8C01BC01D02901398F8
:1027E000007800B1012000EB0901019801EBE071D4
:1027F000029801440398401A401E0390E00306D457
:1028000053462146179A039800F05CF80544139844
:10281000007818B15246179990476D1CE00323D5F4
:1028200053462146179A039800F04CF805441BE0E4
:10283000BBF1000F07DB0098584504DD109817998D
:1028400010F80B0001E0179930205246904701988C
:102850000BF1010B401E05F10105019004D12E2062
:102860005246179990476D1CB9F10001A9F1010971
:10287000DEDC05E017F8010B5246179990476D1CF6
:102880000299481E02900029F4DC53462146179A0B
:1028900003989EE62D0000002B00000020000000A1
:1028A0002DE9F041044600251E461746880404D44D
:1028B00005E039462020B0476D1C641EF9D5284636
:1028C000BDE8F0812DE9F041044600251E46904602
:1028D000C80301D5302700E02027880404D505E08F
:1028E00041463846B0476D1C641EF9D52846BDE800
:1028F000F08100002DE9F0410C464768164620495A
:1029000020A0FFF7D5FA20A0FFF7D2FA4FF47A7093
:10291000B6FBF0F0616894F90020484300F1805064
:10292000450F0B21384605F02FFF00220C213846B9
:1029300005F02AFF207B00B1012040EA45020D216D
:10294000384605F021FFA06807F09AF800F007026A
:102950000F21384605F018FF20691C21B6FBF0F264
:10296000384605F011FF606907F08AF84007020F4A
:102970001D21384605F008FF0020BDE8F081000069
:1029800034B90008257300000A0000002DE9F8435F
:1029900014461346074688460A46D0F80490334941
:1029A00033A0FFF785FA37A0FFF782FA4FEA887065
:1029B000050E284606F0E9FF034664B100200090AA
:1029C0002A4623214846FFF7A6FA4FF4997084421D
:1029D00003DA044604E00120F1E7B4F5EC6F0ADA0B
:1029E000A4F599704FF47A71484340F27C5190FB02
:1029F000F1F5002609E0A4F2E1604FF47A71484352
:102A000040F22C7190FBF1F50C2640F2FF3085422C
:102A100000D215B1854200D30546B8F1010F06D0AA
:102A2000B8F1020F12D06FF01500BDE8F883AA08C4
:102A30001821484605F0A8FE05F0030232431A218A
:102A4000484605F0A1FEA7F89A410DE0AA08192111
:102A5000484605F099FE05F0030232431B21484623
:102A600005F092FEA7F89C410020DEE70EB90008B1
:102A70002573204441432564203D202564206D5664
:102A8000000000000A000000F8B50C460646456844
:102A900029492A48FFF70CFA2848001DFFF708FAD1
:102AA000228801213046FFF771FF628802213046FB
:102AB000FFF76CFFA079617A227A40EA41006179E0
:102AC000800741EA4201800E01F0030140EA8100E3
:102AD000E179A27A41EA420101F003010843C043CF
:102AE000C6B23F2006F051FF03463F22232128466D
:102AF0000096FFF710FA802006F047FF0346207982
:102B00000090802226212846FFF705FAE27A30213C
:102B1000284605F039FE227B3121284605F034FE97
:102B2000627B3221284605F02FFEA27B3321284606
:102B300005F02AFE0020F8BD20B90008FC8300083B
:102B40007FB50C460068042301AA442105F0ECFD82
:102B50009DF807009DF80610000440EA01209DF84A
:102B600005109DF804500843A4FB0010CDE90210A5
:102B70004FF4FF12002302A806F0FCFEDDE902017B
:102B8000E4FB0501CDE9020104B070BDF0B51D48BC
:102B900085B01546814233D84010814230D300249D
:102BA000CDE90214234602A82A6806F0E3FE4FF49A
:102BB000FF17A0FB072CCDE9000101FB07C1002393
:102BC00000FB03102968029E490851186041CDE9B5
:102BD000001068462A6806F0CDFE009829683A463B
:102BE000A1FB0010CDE900100023684606F0C2FEEC
:102BF0002868DDE90012704340185441CDE9000413
:102C000005B0F0BD80113C552DE9F0430746D0F8E2
:102C1000009049A087B01446006813460D460A4646
:102C20000190464946A0FFF743F94EA0FFF740F94F
:102C3000E8099621A0FB0110CDE90410E00942014A
:102C40000026334604A806F095FE049819210C309E
:102C5000B0FBF1F2521E402A6BDA012A00DC01229D
:102C60004621484605F090FD032301AA4A21484623
:102C700005F0B4FDE0224B21484605F085FD102209
:102C80004E21484605F080FDCDE90256224600233C
:102C900002A806F06FFE4FF4FF13A0FB03C8CDE9B6
:102CA000040101FB0381002200FB021061081CEB00
:102CB00001017041CDE90410029D2246002304A8C1
:102CC00006F058FE2A4644214846049C05F05CFD67
:102CD00022464321484605F057FD220A4221484634
:102CE00005F052FD220C4121484605F04DFD05221C
:102CF0003F21484605F048FD01223F21484605F0A6
:102D000043FD86224C21484605F03EFD01224D211F
:102D1000484605F039FD05224D21484605F034FDB1
:102D2000012380225E21786800F050FA07B0BDE8E8
:102D3000F083402294E70000355BE80024BB0008E4
:102D400025733A205261746520257520487A2050F9
:102D50006172656E74205261746520257520487A11
:102D6000000000000A0000002DE9F04104460E4674
:102D70000A46214921A0FFF79BF823A0FFF798F806
:102D800040F2F5373946606805F0C4FC0546C4F8E2
:102D9000E4613EB1012E07D0022E22D06FF0150063
:102DA000BDE8F08100211DE00021204602F050F92D
:102DB0000121204603F03FF81221606805F0AAFCCB
:102DC000410704D5000702D545F0800001E025F059
:102DD000800040F0010239466068BDE8F04105F02E
:102DE000D3BC0121204602F033F90021204603F034
:102DF00022F825F08102EEE749B6000825733A2053
:102E00006D6F6465202564000A00000070B50646F9
:102E10000D460A4600240D490DA0FFF749F80FA002
:102E2000FFF746F886F8E8513DB1012D02D0022D9A
:102E300003D101E0012400E0092422467068BDE8C6
:102E400070404FF47D7105F09FBC00005EB6000835
:102E500025733A206D6F6465202564000A00000028
:102E60002DE9FF4782B00EA9DDE9128691E8300610
:102E7000DDE9042306F03CFB002835D1421E04E0C6
:102E800049184041CDE90410521CDDE90410184FE7
:102E900001237F1A8341F3D2C8F80020DDE9040141
:102EA000C6E9000122462B4604A806F063FD114E38
:102EB000CDE90001A0FB062701FB0671002300FB02
:102EC000031069084FEA3403D2184841CDE90020C5
:102ED00022462B46684606F04DFD0498C9F80000CE
:102EE0000098CAF80000002006B0BDE8F087000096
:102EF00000BCA065F1FF7F002DE9FF4F91B00025D8
:102F0000012091466C1E0E909B462E462746DDF80A
:102F100078801C227C4906A8FDF79DF9119890F84D
:102F2000540108B1012002E0119890F89201824604
:102F3000119890F8550108B1012002E0119890F81D
:102F400090010590B9F1010F04D0B9F1000F0BD039
:102F50006EA10AE012990AFB01F06E49B1EBC00FB5
:102F6000F6D9002081460E906BA1CDE900A16649FB
:102F70006CA02339059B129AFEF79AFF77A0FEF703
:102F800097FF77491298884205D900BF6FF0150066
:102F900015B0BDE8F08F024605981299424311988A
:102FA00001FB0AF190F8560108B1022000E001206F
:102FB000414348460DF1180E6A4B4AE00EEB80057E
:102FC000DFF850C195F90060CCF1000C06FB01F56B
:102FD0005643AC449C453BD8AE4203D9B6FBF5F111
:102FE000494201E0B5FBF6F15F4A954206D8044636
:102FF000012900D10021671A2E4614E06E0804460C
:10300000042802D0052804D007E0002905DB0727A3
:103010000FE0002901DB012200E002221019012942
:1030200000D10021471A072F03D2002C01DB062C08
:1030300027DDB9F1070F0FD20E9868B1CDF80080E7
:10304000DDE9110109F101025B46FFF755FF9FE73A
:10305000401C0728B2DBECE7072F03D2002C01DB72
:10306000062C0EDD2B48854201D240A200E045A28D
:1030700025494AA02339FEF71BFF38A0FEF718FFA9
:1030800084E74021A5FB0102DFF83CC14908002389
:10309000BCEB000C934101D20229F3D2CBE900052D
:1030A0000EEB84020EEB870192F90130B5FBF3F3CE
:1030B000CBF8083092F90240B3FBF4F3CBF80C30B4
:1030C00092F90320B3FBF2F2B2FBFAF3CBE904234B
:1030D000C8E9000691F90100B6FBF0F0C8F8080055
:1030E00091F90220B0FBF2F0C8F80C0091F903103E
:1030F000B0FBF1F0C8F810000599B0FBF1F1002029
:10310000C8F8141044E70000E0B900084E6F6D697C
:103110006E616C0040787D01486967686573742052
:103120004F53520025733A2072657175657374654B
:1031300064207261746520257520545846495220D8
:10314000696E742025752052584649522064656383
:10315000202575206D6F6465202573000A0000002E
:103160000080A903C027A82400D0121341444320A3
:10317000636C6F636B2062656C6F77206C696D693F
:10318000740000004242504C4C2072617465206112
:10319000626F7665206C696D6974000025733A2052
:1031A0004661696C656420746F2066696E64207383
:1031B00075697461626C65206469766964657273AF
:1031C0003A2025730000000080113C552DE9F0479E
:1031D0001D4691460F46064641F288344FF49668E4
:1031E000484606F0D2FB03464A4639467068FEF769
:1031F0007FFEA84202D10020BDE8F087162F10D034
:103200005FF0780006F0DAFE641EE9D24A463946DD
:1032100005A0FEF74DFE0DA0FEF74AFE6FF06D0013
:10322000EAE74046EEE7000043616C696272617450
:10323000696F6E2054494D454F55542028307825EC
:10324000582C203078255829000000000A00000082
:1032500070B50D46044601F0BDFDA068E168684305
:10326000B0FBF1F070BD000070B504461068012598
:103270001646884206D801EB5001B1FBF0F0C4E9D4
:1032800002050EE000EB5100B0FBF1F0C4E9025082
:1032900038B90A490AA0FEF70BFE0EA0FEF708FE99
:1032A000E5600021204604F057FB002805DB30686C
:1032B000E168B0FBF1F0A168484370BDECBA0008CA
:1032C00025733A20646976696465206279207A659D
:1032D000726F00000A0000002DE9F0411546134608
:1032E00004460E460A46134913A0FEF7E1FD1BA053
:1032F000FEF7DEFD0127AE4206D306EB5500B0FB1C
:10330000F5F0C4E902070EE005EB5600B0FBF6F05D
:10331000C4E9027038B9074911A0FEF7C9FD0FA032
:10332000FEF7C6FDE7602046BDE8F041012104F04C
:1033300013BB000009BB000825733A205261746575
:1033400020257520487A20506172656E7420526184
:10335000746520257520487A000000000A000000EE
:1033600025733A20646976696465206279207A65FC
:10337000726F00002DE9F04104460D460A46476889
:10338000104911A0FEF794FD13A0FEF791FD052151
:10339000384600F08DFC012D10D00022207C13282F
:1033A0000ED00021384605F0EFFA060000D4A560E3
:1033B000384600F027FD3046BDE8F0810122EDE7F8
:1033C0000121EFE7A3BB000825733A20696E64650D
:1033D00078202564000000000A0000002DE9F0417B
:1033E0000546DDE90674142006F0F2FB06006FF0D6
:1033F0000B081AD0377474746868C6E9000505EBC9
:103400008700C665082006F0E3FB040014D0142FE3
:1034100022D2DFE807F01919191B2426282A2C26A6
:103420002E3032343A3C42464A4A22A0FEF740FD52
:103430002FA0FEF73DFD02E0304606F0CBFA4046F5
:10344000BDE8F041FDF7B7B9A86819E0E868416840
:103450003046FFF775FB60602046BDE8F081A86943
:103460000EE0E8690CE0286A0AE0686A08E0A86AE9
:1034700006E0286B04E0686B02E0A86B00E0E86BF4
:1034800041683046FFF7E4FEE5E7286900E0686937
:103490004168304603F06EF8DDE7D5F8C000806E75
:1034A000D9E7D5F8C000006FD5E7304603F070FAD1
:1034B000D1E700006164393336315F636C6B5F7252
:1034C000656769737465723A20636F756C64206E0A
:1034D0006F7420616C6C6F636174652066697865D8
:1034E0006420666163746F7220636C6B000000007F
:1034F0000A0000002DE9F74F0446A0B0D4E9775048
:10350000009000200C900D90F648924609AE07C836
:1035100086E80700F34953461339F3A0219AFEF7D2
:10352000C7FCF7A0FEF7C4FC4FF48041009806F0FA
:103530009BF81E90D4F8C000C17C022902D05FEA3B
:103540008A610ED590F8F7200621606805F01CF915
:10355000D4F8C000072190F8F820606805F014F94D
:103560005BE10121204605F0F9FB5FEA4A7003D5D3
:103570000021204602F0BCFD5FEA0A7003D501215C
:10358000204602F0B5FDD4F8C0004078C8B105214E
:10359000204600F08DFB204600F034FC2868466889
:1035A000042E00DD042602212046FFF72FFC4FF0F9
:1035B000000840F2044B202101A8FCF765FE002022
:1035C0007CE000220121204604F028FB0A2120464D
:1035D00000F06EFBE2E7219878B1D4F8C00090F8D3
:1035E000F610C9060DD4007858B1119809A951F800
:1035F00020004108204604F02FFC002005461090D2
:103600000BE0119909A850F82110F3E70025109854
:1036100018B105F00F00002201E000202A4660F3F7
:103620001F1208F10601606805F0AEF8002706E0F9
:103630000BEB87110622009806F053F87F1CB74267
:10364000F6DB042006F0FAFAB8F1010F05D05C2190
:10365000009806F009F8C0070DD00027B94607E02A
:103660000BEB8711009805F0FFFF40EA09097F1C6A
:10367000B742F5DB01E04FF00109109901A800EB1A
:103680000110415D41EA090141556D1C102DBEDB61
:103690001098401C10900228B8DB5FEA8A700BD5A6
:1036A000219848B1B8F1000F01D0012200E00022BA
:1036B00001A9204600F036FA1198401C119021987B
:1036C00008B1032100E001211198814283D80EAA9C
:1036D000102101A800F070FE05460FAA102105A8D0
:1036E00000F06AFE074655EA070007D05FEACA7095
:1036F00026D0B8F1000F1ED001221DE0B8F1000F56
:1037000001D0012200E0002201A9204600F00AFABF
:10371000B8F1000F01D07BA200E07BA271497BA031
:103720001339FEF7C5FB76A0FEF7C2FB0C9860F0DC
:1037300004000C9004E0002201A9204600F0F2F9F8
:10374000AF4205D90F9800EB57000007020E04E0C6
:103750000E9800EB550000F00F0208F106016068BA
:1037600005F012F8B8F1000F17D05FEA0A7003D520
:103770000121204600F04EF900212046FFF7F4FA1F
:103780001E980821B1EB104F05D944F248010D9A5B
:10379000009805F0A6FF0025F3E05FEA4A7003D524
:1037A0000021204600F036F900212046FFF72EFBCD
:1037B00002224021009805F094FF03224021009846
:1037C00005F08FFFD4F8C000C07C01280BD0012188
:1037D0002046FFF7C9FA032244F24001009805F0A1
:1037E00080FF002564E05FEACA6007D406216068B4
:1037F00004F090FFD4F8C01081F8F700D4F8C000AE
:10380000417831B98279204604F008FA204600F068
:10381000F9FA0021204605F0A1FA002023B0BDE806
:10382000F08F00BF4FF4806000EB85173946009899
:1038300005F01AFF1AA940F2512241F82500394635
:10384000009805F04EFF09222946009805F013FF65
:1038500044F2144000EB85118946009805F004FFFE
:10386000014616A840F825101E990720B0EB114F0D
:1038700018D244F2184000EB85110F46009805F06D
:10388000F3FE12A9092241F825003946009805F0F7
:1038900028FF49460022009805F023FF012244F248
:1038A000440101E049460122009805F01AFF6D1C11
:1038B000B542B7DB1E980821B1EB104F0ED944F288
:1038C00048052946009805F0CFFE0D9020F00F0026
:1038D00040F001022946009805F003FF08F10108B5
:1038E00069E60000D4BC000825733A206672657151
:1038F00020257520666C61677320307825580A0092
:103900000A000000545800005258000025733A2065
:1039100054756E696E67202573204641494C4544B5
:10392000210000001AA850F825204FF4806000EB19
:103930008511009805F0D5FE00222946009805F073
:103940009AFE1E980721B1EB104F0FD212A850F823
:10395000252044F2184000EB8511009805F0C1FEC7
:10396000012244F24401009805F0BBFE16A850F86D
:10397000252044F2144000EB8511009805F0B1FEBB
:103980006D1CB542CEDB0C98401D17D05FEACA60B3
:103990000FD40621606804F0BDFED4F8C01081F891
:1039A000F7000721606804F0B5FED4F8C01081F874
:1039B000F800D4F8C0004178A9B11BE0D4F8C000E9
:1039C000062190F8F720606804F0DEFED4F8C0000D
:1039D000072190F8F820606804F0D6FE21980028AE
:1039E000E7D10C90E5E78279204604F017F92046EC
:1039F00000F008FA02224021009805F072FE03222E
:103A00004021009805F06DFE0021204605F0A6F942
:103A10000C9803E72DE9F04F8B46D0E977108246EA
:103A200008688FB04568042D00DD04254FF00009BB
:103A300040F2044800265B4632464946504602F0B2
:103A400009FA012006F0FAF8002406E008EB8411D8
:103A50000622504605F045FE641CAC42F6DB0A2007
:103A600006F0ECF800273C4607E000BF08EB8711A2
:103A7000504605F0F9FD04437F1CAF42F6DB07A872
:103A80008455761C202ED6DB05AA202100F094FC5C
:103A9000044605985B4600EB54024946504602F046
:103AA000D9F90599BBF1000F01EB5400CDE90010E5
:103AB00001D00AA100E00AA123464A4609A0FEF768
:103AC000F7F917A0FEF7F4F909F10109B9F1070FA9
:103AD000B0DB0FB00020BDE8F08F000054580000AC
:103AE000525800002573204C616E652025642C20FF
:103AF00077696E646F7720636E74202575202C20A3
:103B000073746172742025752C20494F44454C41D3
:103B1000592073657420746F2025750A0000000019
:103B20000A0000002DE9F0410E461446C16F05F071
:103B3000DBFD01460CB119A200E019A219A0FEF7A5
:103B4000B7F91FA0FEF7B4F9002421461DA0FEF727
:103B5000AFF9641C102CF8DB18A0FEF7A9F90024BB
:103B6000214618A0FEF7A4F9002506EB0417785D9E
:103B700008B1232100E06F2113A0FEF799F96D1C15
:103B8000102DF4DB0DA0FEF793F9641C022CE7DB8B
:103B9000BDE8F04109A0FEF78BB9000054580000C1
:103BA0005258000053414D504C20434C4B3A202575
:103BB000752074756E696E673A2025730A000000DF
:103BC0002020000025783A002563200070B51646B5
:103BD000134604460D460A461E491FA0FEF768F923
:103BE00022A0FEF765F900231A461946204604F084
:103BF00051FE00282CDB0521204600F059F8022D4B
:103C00000CD0102D16D1D4F8480133464208D4F810
:103C100044014108204605F0D3F80BE02046D4F8D3
:103C2000A41005F061FD00F0EFFB02460B462046B4
:103C300002F0E0FB94F8983194F8962194F89711EB
:103C4000204604F027FE0546204600F0DBF8284613
:103C500070BD000083BA000825733A2043414C2010
:103C60002575204152472025640000000A0000000D
:103C7000F8B506468807040E1546204605F085FE71
:103C800003460095224603217068FEF744F9F8BD0B
:103C9000F8B506468807040E1546204605F075FE61
:103CA00003460095224602217068FEF734F9F8BDFC
:103CB0002DE9F041054647680E460F2005F065FEE8
:103CC00003460F2217213846FEF712F9C4B285F8D1
:103CD000C440B44202D1314623A021E032462146FD
:103CE0002DA0FEF7E5F836A0FEF7E2F814213846DD
:103CF00004F010FDC10603D520F01000012100E002
:103D0000002185F815110CB120F00100052E10D00E
:103D1000062E08D0082E09D00A2E04D0314629A03C
:103D2000FEF7C6F818E040F0200406E040F040043A
:103D300003E020F0600040F005040522142138461D
:103D400004F022FD22461421384604F01DFD00280F
:103D500007D026A0FEF7ACF8BDE8F04118A0FEF7AA
:103D6000A7B8BDE8F08100004E6F7468696E6720E7
:103D7000746F20646F2C20646576696365206973B5
:103D800020616C726561647920696E2025642073FE
:103D9000746174650000000044657669636520699C
:103DA0007320696E2025782073746174652C2066F9
:103DB0006F7263696E6720746F20257800000000C1
:103DC0000A0000004E6F2068616E646C696E6720A7
:103DD000666F7220666F7263696E67202564206566
:103DE0006E736D2073746174650000004661696CC8
:103DF000656420746F20726573746F7265207374CC
:103E00006174650070B5466805461421304604F0BB
:103E100081FC95F8C41020F06500082910D004DC5E
:103E2000052910D0062904D107E00A2905D0FF2969
:103E300017D017A0FEF73CF824E040F0200404E07F
:103E400040F0400401E040F0010405221421304616
:103E500004F09AFC22461421304604F095FC70B917
:103E600001E014A00CE095F8150100280FD044F0F3
:103E700010021421304604F087FC002807D018A057
:103E8000FEF716F8BDE870401DA0FEF711B870BD32
:103E9000436F756C64206E6F7420726573746F72FB
:103EA0006520746F20256420454E534D2073746146
:103EB000746500004E6F206E65656420746F20721B
:103EC0006573746F72652C20454E534D2073746179
:103ED0007465207761736E27742073617665640062
:103EE0004661696C656420746F207772697465201F
:103EF000454E534D5F434F4E4649475F31000000EA
:103F00000A0000002DE9F8430F469046044690F859
:103F1000C510D0F8049000263A4691A0FDF7C8FFDE
:103F200098A0FDF7C5FF94F8C50080281CD1D4F8EF
:103F3000C000007900B1102040F007020921484676
:103F400004F022FC142006F039F80522142148461A
:103F500004F01AFC01220021204604F0DDFD0122BC
:103F60001146204604F0D8FDD4F8C010487908B1B5
:103F7000002000E008205FEA080200D01022104371
:103F800094F8992102B18022104340F001056FF0AE
:103F90001500082F12D005DC9FB3052F32D0062F55
:103FA00004D106E00A2F12D0802F36D0394676A0F1
:103FB00074E045F0200503E0064611E045F04005B9
:103FC0004A7842B994F8C520052AF5D11EE04A780E
:103FD00045F02005AAB9064694F8C500052857D033
:103FE00015F0600F54D025F0600040F00502142158
:103FF000484604F0C9FB05230F2217212046FFF78E
:10400000E5F803E025F0600040F00505D4F8C000B5
:10401000417851EA080147D062E00022114620466B
:1040200004F07AFD00220121204604F075FD0022F3
:104030001421484604F0A8FBD4F8C000407808B129
:10404000202200E040221421484604F09DFB204637
:10405000E16E05F049FB5649B1FBF0F005F0AEFF0B
:1040600000221421484604F08FFB012005F0A6FF32
:10407000D4F8C000007908B1102200E00022092124
:10408000484604F081FB84F8C5700020BDE8F88341
:10409000487808B147A100E047A148A0FDF708FF14
:1040A00038A0FDF705FF55E0007AC8B9062F01D00A
:1040B000082F15D1102005F068FC0346062F25D0E7
:1040C00000200090102215216068FDF724FF062FC4
:1040D0001ED040F24721012302222046FFF776F846
:1040E0002A461421484604F04FFB060005D03EA0A6
:1040F000FDF7DEFE23A0FDF7DBFE680628D594F869
:10410000940140B194F8950128B121E00120D8E74D
:1041100040F28721DFE740F207184146484604F0A5
:10412000F9FA00F03F0594F89401A8B15FF000009F
:1041300045EA000294F8950180B10020024341460F
:10414000484604F021FB2A464146484604F01CFB41
:1041500084F8C570304699E74020E9E78020EDE714
:1041600044657669636520697320696E202578202F
:1041700073746174652C206D6F76696E6720746F3F
:10418000202578000A0000004E6F2068616E646C84
:10419000696E6720666F7220666F7263696E672052
:1041A000256420656E736D20737461746500000072
:1041B0000060E3164644440054444400496E76616E
:1041C0006C696420454E534D20737461746520748E
:1041D00072616E736974696F6E20696E2025732039
:1041E0006D6F6465000000004661696C6564207451
:1041F0006F20726573746F726520737461746500EB
:104200002DE9F84F1F0093460E46044601D050A0FA
:1042100000E051A000900EB152A200E052A25B4615
:10422000524953A0FDF744FE57A0FDF741FE16B1D9
:104230004025012001E00025022004EB060980460C
:1042400099F8A90100B1012037EA00014FF0010AF5
:104250002FD0D4F8C00016B1D0F88C0001E0D0F80F
:104260008800FA21B0FBF1F205F25B21606804F0EE
:104270008BFA0BF007000AEB4012574605F25A2161
:10428000606804F081FA002205F25F21606804F0A2
:104290007BFA404605F079FB03460097424615211C
:1042A0006068FDF738FE00223146204604F034FCF9
:1042B0004BE0B84349D0002205F25A21606804F06F
:1042C00063FA802005F061FBCDF800A00346574655
:1042D00005F2362180228A466068FDF71CFE012027
:1042E00005F053FB0097D4F804C0034605F50E71A2
:1042F00001220F466046FDF70EFE802005F045FBCB
:10430000002503460095802251466068FDF703FEB4
:10431000012005F03AFB0095D4F804C003460122C1
:1043200039466046FDF7F7FD01223146204604F08C
:10433000F3FB404605F029FB034600954246152154
:104340006068FDF7E8FD89F8A9510020BDE8F88F05
:104350005072657061726500556E2D5072657061A6
:1043600072650000545800005258000027BA000837
:1043700025733A2025732050726F66696C6520257D
:10438000753A2025730000000A00000070B505464C
:10439000002401B1402402F007001A4660F31F1206
:1043A00004F51771284604F0EFF904F25E2128465F
:1043B000BDE8704004F0AEB92DE9F0470024924604
:1043C0008146621E2046254623469046264609E041
:1043D00019F803709FB1844201DD2046154642461C
:1043E00000245B1CDF17B3EB010CB741F0DB844208
:1043F00001DD20461546CAF80050BDE8F087571C7D
:1044000000D11A46641CECE70021001849417047AE
:104410002DE9F84F0C460746D0F804A0FD49FEA050
:10442000FDF746FDFDA0FDF743FD2078E0210328C0
:1044300002D06278032A00D1F021627887F89401D3
:1044400002F00303024663F39F0260780A4387F891
:104450009501FA21504604F097F9012005F095FAEC
:104460000346E07B00900122FB215046FDF753FDFF
:10447000022005F08AFA0346207C00900222FB21EC
:104480005046FDF748FD042005F07FFA0346607BA7
:1044900000900422FB215046FDF73DFDA07808283E
:1044A0000DD2012800D80120A070401E00F00701A5
:1044B000D7F8C000C07868B1E07B20B901E00820DF
:1044C000F2E7207C30B1E07C012803D0022817D02D
:1044D00041F00801607C082815D2012800D801208D
:1044E0006074401E00F0070041EA4012FC21504673
:1044F00004F04AF9D7F8C000C07830B1282505E0AB
:1045000041F01001E6E70820EAE74C252A46FD21A4
:10451000504604F039F92A4640F20911504604F099
:1045200033F92A464FF48671504604F02DF9A07CE9
:10453000082824D2012800D80120A0744007020EC8
:10454000FE21504604F020F9607B58B194F8250014
:10455000A27B00F0070060F35F124FF480715046B9
:1045600004F012F92279E0784FF482714D1C8242F6
:1045700007D30246504604F007F9227905E00820E7
:10458000DBE7504604F000F9E2782946504604F093
:10459000FBF8E0884FF0FF3505EB10123F2A00D3FF
:1045A0003F224FF48471504604F0EEF8208905EB69
:1045B00010153F2D00D33F253F2005F0E6F90346B7
:1045C0003F2240F2071150460095FDF7A4FCD7F8B2
:1045D000C000C07888B158224FF48571504604F06D
:1045E000D3F8182240F20D11504604F0CDF82722DE
:1045F0004FF48D71504604F0C7F8002240F20B11C1
:10460000504604F0C1F800224FF48771504604F080
:10461000BBF8207B402800D3402042004FF48A7131
:10462000504604F0B1F800228121504604F0ACF865
:10463000402005F0AAF94FF4AE7803460126402247
:104640004546414650460096FDF765FC202005F0A2
:104650009CF903462022294650460096FDF75BFC54
:10466000207801282AD06078012827D060890009A5
:1046700005F006FA05460F2005F087F903460F22DC
:10468000414650460095FDF746FCE57D7F2D00D361
:104690007F25A8467F2005F078F903467F2240F267
:1046A000011150460095FDF736FC657E7F2D00D345
:1046B0007F2594F8200018B1802202E0206BD6E715
:1046C00000222A434FF49071504604F05DF8617D5A
:1046D000A8EB0100E17E00F00F004A1B60F31F12FF
:1046E00040F22911504604F04FF8A07D227F00F0DF
:1046F0000F0060F31F124FF49571504604F044F818
:1047000094F82C0000B1082094F82D1001B18021FC
:10471000084314F8181F01F0070140EA0112A078BD
:1047200040F2231100F007000243504604F02CF839
:10473000A079627900F00F0060F31F124FF49171BD
:10474000504604F021F80F2005F01FF90346E079E8
:104750000F2200F00F0000904FF483715046FDF7D8
:10476000DAFB607AA27A00F00F0060F31F1240F2C9
:104770002111504604F008F81C2005F006F9034604
:10478000E07A00901C2240F203115046FDF7C3FB73
:10479000207B00F00F02A07B183C00B110200243E8
:1047A0004FF49471504603F0EFFF012005F0EDF84F
:1047B000034614F8380F4FF48878009001224146E0
:1047C0005046FDF7A8FB627840F21B11504603F0FB
:1047D000DBFFA578383C6D1E072D00D30725E020B0
:1047E00005F0D3F80346E02240F217115046009539
:1047F000FDF791FB402005F0C8F894F83C10034603
:1048000040F211190091402249465046FDF783FBC2
:1048100006E00000FEB80008257300000A00000052
:1048200094F83D503F2D00D33F253F2005F0ADF8D3
:1048300003463F224FF48C7150460095FDF76BFB09
:1048400094F83E50032D00D30325C02005F09DF8B9
:104850000346C0224FF4897150460095FDF75BFB7B
:1048600094F83F50032D00D30325C02005F08DF8A8
:104870000346C02240F2131150460095FDF74BFB52
:1048800094F84050072D00D30725E02005F07DF86F
:1048900003464FF48B7BE022594650460095FDF7C6
:1048A0003AFB802005F071F894F84110034600911E
:1048B000802241465046FDF72EFB94F842501020CE
:1048C00005F063F80346012D3FD000200090102230
:1048D00041465046FDF71FFB042005F056F80346FD
:1048E000022D34D000200090042241465046FDF7AE
:1048F00012FB802005F049F8034694F8430000902D
:10490000802249465046FDF706FB94F844500F2D8F
:1049100000D30F250F2005F038F803460F22594623
:1049200050460095FDF7F7FA94F8450058B194F811
:10493000470040B194F84B0028B194F84C0010B1F6
:1049400094F84D0028B1012504E00120BEE70120C4
:10495000C9E70025402005F018F803464022FB2156
:1049600050460095FDF7D7FA94F84500E0B30025CE
:10497000802005F00AF80346802240F215115046C7
:104980000095FDF7C8FA94F846503F2D00D33F2517
:104990003F2004F0FAFF03463F2240F21311504635
:1049A0000095FDF7B8FA94F849503F2D00D33F2504
:1049B0003F2004F0EAFF03463F224FF4897150463E
:1049C0000095FDF7A8FA94F84850402004F0DDFF68
:1049D00003464022414650460095FDF79CFA94F864
:1049E0004700E8B3002500E049E0082004F0CDFFCF
:1049F00003460822414650460095FDF78CFA94F88C
:104A00004A503F2D00D33F253F2004F0BEFF034610
:104A10003F2240F2191150460095FDF77CFA94F8B8
:104A20004B0070B394F84C0058B30025022004F0FA
:104A3000ACFF03460222414650460095FDF76BFA53
:104A400094F84B0010B30025802004F09EFF03462D
:104A500080224FF48A7150460095FDF75CFA00E021
:104A600010E094F84D00002578B394F84E0078B12A
:104A700001282BD002283BD0032858D160E0012523
:104A800076E701E00125AEE70125CFE70125DBE769
:104A9000202004F07AFF0346202249465046009623
:104AA000FDF739FA202004F070FF03462022464625
:104AB000414650460095FDF72EFA402004F065FF70
:104AC00003464022314600952EE039E0202004F0D4
:104AD0005CFF03462022494650460095FDF71BFA2D
:104AE000202004F052FF03462022414600961BE09E
:104AF000202004F04AFF03462022494650460096F3
:104B0000FDF709FA202004F040FF0346009520221B
:104B1000454641465046FDF7FEF9402004F035FF7A
:104B200003464022294600965046FDF7F4F994F8D2
:104B30004F00000904F0A4FF0F2813D2044612E02E
:104B4000202004F022FF03462022414650460095D3
:104B5000FDF7E1F9202004F018FF03462022494622
:104B60000095E1E70F24E02004F00FFF0346E02268
:104B70004FF4857150460094FDF7CDF9802004F084
:104B800004FF0346E0080090802240F209115046DD
:104B9000FDF7C1F93846BDE8F84F00F001B8000054
:104BA0002DE9FC5F0546406801902846A96F04F096
:104BB0009BFD06464FF4FA70B6FBF0F0804AD5F83C
:104BC000C010B2FBF0F2D1F80441C820604302EB00
:104BD00050004FF47A7900F2E730B0FBF9F091F829
:104BE000A8100844C7B21F2F03D210F0FF0F03D143
:104BF00001E01F2700E000273F2004F0C6FE034627
:104C00003F22222100970198FDF785F98046B6FBE7
:104C1000F9F0DFF8B0A104F16401484300EB0A01A8
:104C20000AF1010BB1FBFBF0401CC7B21F2F03D2EE
:104C300010F0FF0F03D101E01F2700E000271F2025
:104C400004F0A3FE03461F22FE2100970198FDF702
:104C500062F940EA08074FF4FA60B6FBF0F0C83496
:104C600000FB04A1DA46B1FBFAF0C01DC4B21F2C50
:104C700003D210F0FF0F03D101E01F2400E0002455
:104C80001F2004F082FE03461F2240F211110094FF
:104C90000198FDF740F940EA0708B6FBF9F06FF01C
:104CA0007C0114FB01F1484A02EB0112D5F8C01057
:104CB000D1F8BC3003FB00204FF4FA6200F57A70A3
:104CC000B0FBF2F44148844200D214B1844200D3D4
:104CD000044695F89401012835D095F895010128EE
:104CE00031D02846E96F04F0FFFC06EB5007284658
:104CF000E96F04F0F9FCB7FBF0F16200B2FBF1F2EE
:104D0000D5F8C000B0F89E00B2FBF0F2022A01D242
:104D1000B4FBF1F0000904F0B3FE07460F2004F0E5
:104D200034FE03460F224FF4AE7100970198FDF751
:104D3000F2F8202004F029FE4FF4803B03465C4546
:104D400004D3012003E0D1F8C400E3E70020009081
:104D500020224FF494710198FDF7DDF840EA08072E
:104D60005C4500D36408E2B24FF49271019803F0FD
:104D70000BFD40EA0708220A40F22511019803F0D2
:104D800003FD40EA0804B6FBF9F0D5F8C010104A5C
:104D9000D1F8C81001FB0021B1FBFAF51F2D00D39B
:104DA0001F251F2004F0F1FD03461F2240F21711BA
:104DB00000950198FDF7AFF82043BDE8FC9F000087
:104DC000809FD5003F420F0030F8FFFFFFFF01003A
:104DD00020A107002DE9F04704460768007C002663
:104DE00001254FF42B786FF015090E2837D2DFE834
:104DF00000F0070E253639444A585E6A71777D8483
:104E00004521384603F086FC00F003001FE0012036
:104E100004F0BBFD0346012240F2AB213846FDF70A
:104E200067F80546802004F0B0FD03468022414625
:104E30003846FDF75DF840EA450008E00C2004F034
:104E4000A4FD03460C2241463846FDF751F80028E0
:104E500062D0012862D0022866D0032867D0484675
:104E6000BDE8F0870A21384603F054FC00F0070142
:104E700005FA01F0C4E9025023E0302004F085FD7A
:104E80000346302204E0082004F07FFD0346082298
:104E900003213846FDF72CF80121401CC4E902101B
:104EA0000FE0042004F071FD03460422F0E7032024
:104EB00004F06BFD03220346114624E00120C4E9FF
:104EC00002053046CCE7082004F05FFD08220346C7
:104ED0000A21DEE7302004F058FD034630220AE0C4
:104EE000082004F052FD0346082204E0042004F0E8
:104EF0004CFD034604220221CBE7032004F045FDCC
:104F00000322034602213846FCF7F2FF10B1401E8F
:104F10008540D3E70125D1E7012009E001200221E6
:104F2000C4E9020100209BE701200421F8E70220E8
:104F30000121F5E708B501290DD07621406802234B
:104F40006A4603F0F1FB002804DBBDF80000FA21FB
:104F500040BA484308BD7421F0E7000070B50C4624
:104F600045682E492EA0FCF7A3FF2EA0FCF7A0FF5A
:104F70002079A179A27A40EA4100217AE37A890076
:104F800041EAC20108436179E27900F00F0041EA89
:104F90004202617A890041EAC3010A4360F31F12A9
:104FA0002021284603F0F0FB20786178E27840EA7F
:104FB0004100A178890041EAC201084300F00F02D4
:104FC0002721284603F0E0FB227B2821284603F016
:104FD000DBFB627B2C21284603F0D6FBA27B292138
:104FE000284603F0D1FBE27B2D21284603F0CCFBC1
:104FF000227C2A21284603F0C7FB627C2E2128460A
:1050000003F0C2FBA27C2B21284603F0BDFBE27C0F
:105010002F21284603F0B8FB002070BD5FB90008BF
:10502000257300000A000000074B00221B1A8A416A
:1050300001D300207047054B0022181A8A4101D382
:105040000120704702207047006D7C4D00286BEEF8
:105050002DE9F05FD0E977508A4683464FF48041CE
:1050600004F002FB06464FF00709B9EB164F02D2D7
:1050700044F2184701E044F21447002427E000BF3F
:1050800007EB84118846584604F0EEFA0246B9EB65
:10509000164F0FD2BAF1000F06D0082A06D005EB42
:1050A0008400426008220DE0082A0BD105EB840041
:1050B000426807E0BAF1000F02D042F0020201E0BC
:1050C00022F002024146584604F00BFB641C28689B
:1050D0004068A042D4DC0020BDE8F09F2DE9F041FB
:1050E00080460D4600264FF4007004F070FF040067
:1050F0006FF00B077DD0FE486060082004F067FF6A
:10510000A0600028F6D04FF4B87004F060FFC4F837
:10511000C0000028EED0442004F059FFC4F8DC01A0
:105120000028E7D0082004F052FFC4F8E00100286E
:10513000E0D004602878207068786070A1686868A2
:105140004860E87A00B10120D4F8C0104870287B8C
:1051500000B10120D4F8C0108870287A00B1012075
:10516000D4F8C0100870D4F8C010687A8862D4F8F7
:10517000C010A87AC862687B00B10120D4F8C010C2
:105180000872A87B00B10120D4F8C0104872D4F88E
:10519000C0106869C1F88800D4F8C0102869C1F847
:1051A0008C00287E00B10120D4F8C01081F8900056
:1051B000687E00B10120D4F8C01081F891002178F8
:1051C000002002297ED0A97E01B10121D4F8C0209F
:1051D0009172E97E01B10121D4F8C020D172D4F8D6
:1051E000C020297F9173D4F8C020697FD173A97F33
:1051F00000E0FDE3D4F8C0201174D4F8C020E97FAA
:105200005174D4F8C02095F82010917495F82110AD
:1052100001B10121D4F8C020D170D4F8C020696A4E
:10522000116695F8281001B10121D4F8C0205173FE
:1052300095F8291001B10121D4F8C020517195F8D9
:105240002A1001B10121D4F8C0209171D5E90C12C6
:10525000D4F8C030C3E91A12D5E90E12D4F8C03020
:10526000C3E91C125FF0300105EB860201EB8607F3
:10527000D4F8C030126C761CDA51062EF4DB002113
:105280005FF0480205EB810302EB8107D4F8C060B0
:105290009B6D491CF3510629F4DBD4F8C020296F1B
:1052A0009167D4F8C020696FD167D4F8C020A96F86
:1052B0001162D4F8C020E96F5162D5F88010D4F89B
:1052C000C02000E0FEE3C2F8801095F8841001B120
:1052D0000121D4F8C02082F8841022780121022A0A
:1052E0007DD095F8852002B10122D4F8C0301A7122
:1052F000D4F8C030D5F888209A61D4F8C030D5F8F9
:105300008C20DA61D4F8C03095F8902083F8922090
:10531000D4F8C03095F8942083F89420D4F8C030A5
:1053200095F8952083F89520D4F8C03095F896200C
:1053300083F89820D4F8C03095F8972083F8962009
:10534000D4F8C03095F8982083F89720D4F8C0306E
:10535000B5F89A20A3F89E2095F89C2002B101226E
:10536000D4F8C03083F8A120D4F8C030B5F89E201E
:10537000A3F89A20D4F8C030B5F8A020A3F89C2058
:10538000D4F8C03095F8A22083F8A020D4F8C0301B
:1053900095F8A32083F8A220D4F8C03095F8A42073
:1053A00083F8A620D4F8C03095F8A52083F8A5206E
:1053B00095F8A62002B10122D4F8C03083F8A320CA
:1053C00095F8A72002B10122D4F8C03083F8A420B8
:1053D000D4F8C03095F8A82083F8A72000E0FCE3BB
:1053E000D4F8C03095F8A92083F8B220D4F8C030A2
:1053F00095F8AA2083F8B32095F8AB2002B10122DA
:10540000D4F8C03083F8B420D4F8C03095F8AC207C
:1054100083F8B120D4F8C03095F8AD2083F8B920D6
:10542000D4F8C03095F8AE2083F8B820D4F8C03056
:10543000D5F8B020C3F8BC2095F8B42002B1012201
:10544000D4F8C03083F8C02095F8B52002B101220D
:10545000D4F8C03083F8C120D4F8C03095F8B62015
:1054600083F8AB20D4F8C03095F8B72083F8AC208F
:10547000D4F8C03095F8B82083F8AD20D4F8C03007
:1054800095F8B92083F8AE20D4F8C03095F8BA204A
:1054900083F8B520D4F8C03095F8BB2083F8B72046
:1054A000D4F8C03095F8BC2083F8B620D4F8C030CA
:1054B00095F8BD2083F8A920D4F8C03095F8BE2017
:1054C00083F8AA20D4F8C03095F8BF2083F8AF2025
:1054D000D4F8C03095F8C02083F8B020D4F8C0309C
:1054E00095F8C42083F8A82095F8C8201AB101E0E7
:1054F000980200200122D4F8C03083F8BA20D4F8F2
:10550000C030D5F8CC20C3F8C420D4F8C030D5F8CA
:10551000D020C3F8C82095F8D42002B10122D4F8D5
:10552000C03083F8CC20D4F8C03095F8D82083F868
:10553000CD20D4F8C03095F8DC2083F8CE20D4F804
:10554000C03095F8E02083F8CF2095F8E42002B130
:105550000122D4F8C03083F8D020D4F8C03095F8B8
:10556000E82083F8D120D4F8C03095F8EC2083F8F7
:10557000D220D4F8C03095F8F02083F8D320D4F8A6
:10558000C03095F8F42083F8D42095F8F82002B1C3
:105590000122D4F8C03083F8D520D4F8C03095F873
:1055A000FC2083F8D62095F8002102B10122D4F81E
:1055B000C03083F8D72095F8012102B10122D4F838
:1055C000C03083F8D920D4F8C03095F8042183F88E
:1055D000D820D4F8C03095F8082183F8DA2095F85F
:1055E0000C2102B10122D4F8C03083F8DB2095F8F9
:1055F0000D2102B10122D4F8C03083F8DC20D4F8A8
:10560000C03095F8102183F8DD20D4F8C03095F82B
:10561000142183F8DE2095F8182102B10122D4F874
:10562000C03083F8DF2095F8192102B10122D4F8A7
:10563000C03083F8E02095F81A2102B10122D4F895
:10564000C03083F8E120D4F8C03095F81C2183F8ED
:10565000E220D4F8C03095F8202183F8E320D4F874
:10566000C030D5F82421C3F8E820D4F8C030D5F8EC
:105670002821C3F8F020D4F8C03095F82C2183F805
:10568000E42095F82D2102B10122D4F8C03083F82E
:10569000E520D4F8C030D5F83021C3F8EC20D4F898
:1056A000C030D5F83421C3F82021D4F8C030D5F863
:1056B0003821C3F81C2195F83C2102B10122D4F80D
:1056C000C03083F82821D4F8C030B5F84021A3F8C1
:1056D000242195F8442102B10122D4F8C03083F886
:1056E000292195F8452102B10122D4F8C03083F870
:1056F0002A2195F8462102B10122D4F8C03083F85E
:105700002B21D4F8C03095F8482183F82F21D4F804
:10571000C03095F84C2183F83021D4F8C030B5F86A
:105720005021A3F8262195F8542102B10122D4F882
:10573000C03083F82C2195F8552102B10122D4F80C
:10574000C03083F82D2195F8562102B10122D4F8FA
:10575000C03083F82E21D4F8C03095F8582183F852
:105760003121D4F8C03095F85C2183F83221D4F887
:10577000C030D5F86021C3F81421D4F8C030B5F892
:105780006421C3F81021D4F8C03095F8662183F85D
:105790000C2195F8672102B10122D4F8C03083F8BA
:1057A0001821D4F8C03095F8682183F8FE20D4F889
:1057B000C03095F8692183F8FD20D4F8C030D5F8C1
:1057C0006C21C3F80421D4F8C030B5F87021A3F8D7
:1057D0000021D4F8C030B5F87421A3F8022195F85F
:1057E000782102B10122D4F8C03083F8082195F85D
:1057F000792102B10122D4F8C03083F8092195F84B
:105800007A2102B10122D4F8C03083F80A21D4F8F9
:10581000C03095F87B21DA74D4F8C03095F87C213B
:105820001A7595F87D21D4F8C030D20183F8F420A0
:1058300095F87E61D4F8C03042EA861283F8F420ED
:1058400095F87F61D4F8C03042EA461283F8F4201C
:1058500095F88061D4F8C03042EA061283F8F4204B
:1058600095F88161D4F8C03042EAC60283F8F4208A
:1058700095F88261D4F8C03042EA860283F8F420B9
:1058800095F88361D4F8C03042EA460283F8F420E8
:1058900095F88461D4F8C030324383F8F42095F849
:1058A0008521D4F8C030D20183F8F52095F88661BF
:1058B000D4F8C03042EA860283F8F52095F88721B3
:1058C000D4F8C030D20183F8F62095F88861D4F876
:1058D000C03042EA861283F8F62095F88961D4F840
:1058E000C03042EA461283F8F62095F88A61D4F86F
:1058F000C03042EA061283F8F62095F88B61D4F89E
:10590000C03042EAC60283F8F62095F88C61D4F8DC
:10591000C03042EA860283F8F62095F88D61D4F80B
:10592000C03042EA460283F8F62095F88E61D4F83A
:10593000C030324383F8F620D4F8C02095F8906147
:1059400012F8F53F06F003063343137095F89421DF
:10595000D4F8C030120183F8F72095F89861D4F894
:10596000C03006F00F06324383F8F72095F89C21EB
:10597000D4F8C030120183F8F82095F8A061D4F86B
:10598000C03006F00F06324383F8F820D5F8A42182
:105990004B234B3AB2FBF3F202F00703D4F8C020DA
:1059A00082F8FA3095F8A861D4F8C02043EA46138B
:1059B00082F8FA3095F8A92102B10122D4F8C0305A
:1059C0001A7395F8AC2102B10122D4F8C03083F8E3
:1059D000342195F8AD2102B10122D4F8C03083F80A
:1059E000352195F8AE2102B10122D4F8C03000E093
:1059F0002FE183F8362195F8AF2102B10122D4F8C6
:105A0000C03083F8372195F8B02102B10122D4F8D3
:105A1000C03083F8382195F8B12102B10122D4F8C1
:105A2000C03083F8392195F8B22102B10122D4F8AF
:105A3000C03083F83A2195F8B32102B10122D4F89D
:105A4000C03083F83B2195F8B42102B10122D4F88B
:105A5000C03083F83C2195F8B52102B10122D4F879
:105A6000C03083F83D2195F8B62102B10122D4F867
:105A7000C03083F83E2195F8B72102B10122D4F855
:105A8000C03083F83F21D4F8C03095F8B82183F8AE
:105A90004021D4F8C03095F8B92183F84121D4F8D9
:105AA000C03095F8BA2183F84221D4F8C03095F877
:105AB000BB2183F84321D4F8C03095F8BC2183F88A
:105AC000442100E0C8E0D4F8C03095F8BD2183F847
:105AD0004521D4F8C03095F8BE2183F84621D4F88A
