:020000040800F2
:1000000038190020B1010008DB1500089F14000812
:10001000D9150008EB070008791A00080000000055
:10002000000000000000000000000000FD150008B6
:10003000ED07000800000000DD1500085118000859
:10004000CB010008CB010008CB010008CB01000860
:10005000CB010008CB010008CB010008CB01000850
:10006000CB010008CB010008CB010008CB01000840
:10007000CB010008CB010008CB010008CB01000830
:10008000CB010008CB010008CB01000800000000F4
:10009000000000000000000000000000CB0100088C
:1000A000CB010008CB010008CB010008CB01000800
:1000B000CB010008CB010008CB010008CB010008F0
:1000C000CB010008CB010008CB010008E1150008B6
:1000D000CB010008CB010008CB01000800000000A4
:1000E000CB010008CB010008CB0100080000000094
:1000F000000000000000000000000000CB0100082C
:1001000000000000CB010008CB010008CB01000873
:1001100000000000000000000000000000000000DF
:10012000CB010008CB010008CB010008CB0100087F
:10013000CB010008000000000000000000000000EB
:10014000000000000000000000000000CB010008DB
:10015000CB010008CB010008CB010008CB0100084F
:10016000CB010008CB0100080000000000000000E7
:10017000000000000000000000000000000000007F
:1001800000000000CB01000800000000000000009B
:10019000CB010008CB010008DFF810D000F0E4FA32
:1001A00000480047C59A0008AFF3008038190020C6
:1001B0000648804706480047FEE7FEE7FEE7FEE701
:1001C000FEE7FEE7FEE7FEE7FEE7FEE7E5180008CC
:1001D000990100082DE9F05F0546002092469B46F4
:1001E00088460646814640241BE02846414647464D
:1001F000224600F020F853465A46C01A914110D3C7
:1002000011461846224600F019FA2D1A67EB01082C
:100210004F4622460120002100F010FA17EB00099A
:100220004E41201EA4F10104DFDC484631462A4637
:100230004346BDE8F09F202A04DB203A21FA02F071
:100240000021704721FA02F3D040C2F12002914010
:1002500008431946704740EA01039B0703D009E0B1
:1002600008C9121F08C0042AFAD203E011F8013BA2
:1002700000F8013B521EF9D27047D2B201E000F8FB
:10028000012B491EFBD270470022F6E710B513463A
:100290000A4604461946FFF7F0FF204610BD2DE937
:1002A000FE4F804681EA0300C00F0C46009021F00B
:1002B000004123F00045B8EB0200A94105D24046B9
:1002C000214690461C460B46024623F00040104350
:1002D00047D0270DC7F30A00C3F30A510290401A12
:1002E000019040286BDAC3F3130040F4801B0098A0
:1002F000924620B10023D2EB030A63EB0B0B01986B
:100300005946C0F14002504600F098F906460D46A5
:1003100050465946019A00F0A0F910EB08006141DF
:10032000002487EA115284EAE7731A4340D0009A06
:1003300062B3019A012A4FEA075215DC001B61EBF8
:1003400002014FF0004202EA0752CDE90042001CD0
:1003500041F5801132462B4600F0A0F903B0BDE80C
:10036000F08F40462146F9E7001B61EB0201001CBB
:1003700041F5801300185B412018A2F5001747EBE8
:10038000030140EAD570B6196D4111E06D084FEADE
:10039000360645EAC0754FEA0752001B61EB0201C1
:1003A000001C41F5801149084FEA30000019514105
:1003B00032462B4603B0BDE8F04F00F060B900981C
:1003C000012240000023D0EB020263EBE0730098AF
:1003D00021464FEAE074B8EB000061EB0401E9E765
:1003E00083F000435BE781F0004158E72DE9FE4FC1
:1003F00081EA030404F0004421F0004100944FF02E
:10040000000B23F0004350EA01045ED052EA0304DB
:100410005BD0C3F30A54C1F30A552C44A4F2F3345D
:100420000194A0FB0254C1F3130141F48011C3F302
:10043000130343F4801301FB024400FB034E840AC0
:10044000970A44EA815447EA8357A4FB0768029558
:100450008D0A05FB07854FEA932C04FB0C542705F6
:10046000029D4FEA065847EA1637B5EB08056EEBD2
:10047000070C870E920E47EA811742EA8312A7FB08
:100480000201B6EB0B0164EB00042B0D43EA0C33C5
:100490005E1844EB1C50DA465146E7FB0201C5F3F7
:1004A00013044FEA0B3343EA14534FEA0432019C1E
:1004B00043EA0603A4F10C040294009CCDE900B4C5
:1004C00000F0ECF803B0BDE8F08F00200146F9E73A
:1004D0002DE9F04D81EA030404F0004B21F00045C2
:1004E00014464FF0000A23F0004150EA050220D0E4
:1004F00054EA01021DD0C5F30A570246C5F313039F
:10050000C1F31300C1F30A5640F4801543F480137D
:10051000A7EB0608101BD64608F2FD3873EB050062
:1005200002D308F1010801E092185B41B8F1000F15
:1005300003DA00200146BDE8F08D00204FF4801161
:10054000064684460EE0171B73EB050705D3121B06
:1005500063EB050306434CEA010C49084FEA3000FF
:1005600092185B4150EA0107EDD152EA030012D024
:1005700082EA040083EA0501084305D0101BAB4161
:1005800006D20122002306E000224FF0004302E0E1
:100590006FF0010253101AEB06004CEB085110EB00
:1005A0000A0041EB0B01BDE8F04D00F068B80EB554
:1005B00040F2334102910021CDE900110A460B4679
:1005C00000F06CF803B000BD0EB540F23342029269
:1005D0000022CDE90022134600F060F803B000BD10
:1005E000C1F30A52C1F3130140F2FF3341F4801109
:1005F0009A4202DA00200146704740F233439A42A1
:10060000A2F2334202DC5242FFF715BE00F016B8E8
:1006100030B50B46014600202022012409E021FAD2
:1006200002F59D4205D303FA02F5491B04FA02F5CF
:100630002844151EA2F10102F1DC30BD202A04DBA2
:10064000203A00FA02F1002070479140C2F12003E5
:1006500020FA03F3194390407047202A06DBCB179A
:10066000203A41FA02F043EAE07306E041FA02F36D
:10067000D040C2F12002914008431946704710B59E
:10068000141E73F1000408DA401C41F100019218B5
:100690005B411A4301D120F0010010BD2DE9F04D5E
:1006A00092469B4611B1B1FA81F202E0B0FA80F2B3
:1006B00020329046FFF7C2FF04460F4640EA0A0088
:1006C00041EA0B0153465A46084313D0114653EAF8
:1006D000010019D0C8F140025046FFF7ACFD0546B5
:1006E0000E46504659464246FFF7A8FF084305D03C
:1006F000012004E020463946BDE8F08D0020054386
:1007000046EAE0762C4337430A986305E40AA0EBF7
:1007100008000022FD0A44EA47540A3002D50020AE
:100720000146E9E7010510196941DDE908450019AD
:100730006941BDE8F04DA2E730B5041E71F1000437
:1007400004DB4FF00044404264EB0101141E73F1DE
:10075000000405DB1C464FF00043524263EB0403E8
:10076000994208BF904230BD064C074D06E0E06854
:1007700040F0010394E8070098471034AC42F6D3E8
:10078000FFF70EFD94BF0008B4BF000870B58D18C8
:1007900010F8014B14F0030201D110F8012B2311C2
:1007A00006D110F8013B03E010F8016B01F8016B72
:1007B000521EF9D1ABB110F8012B04F00C048A1AC7
:1007C0000C2C03D0A2EB84129B1C08E010F8014B08
:1007D000A2EB0422F8E712F8014B01F8014B5B1E73
:1007E000F9D5A942D4D3002070BDFEE77047704709
:1007F00072B6FEE790F83510022903D080214165DA
:1008000001207047052180F835100068016821F04B
:10081000010101600020704770B5044600F010F936
:100820000546601C02D004480078044400F008F932
:10083000401BA042FAD370BD680400202DE9F84F98
:10084000DFF8B8A10022012403254FF00F090AF1B7
:10085000040BAAF1040E00BF0B6804FA02F6334041
:10086000B34273D10F7907F00307012F01D0022F94
:1008700016D187684FEA420805FA08FC27EA0C07F8
:10088000D1F80CC00CFA08FC4CEA070CC0F808C000
:100890004768B7430E79C6F3001696403E4346605C
:1008A0000E79F643B6070DD0C768560005FA06FC68
:1008B00027EA0C07D1F808C00CFA06FC4CEA070C32
:1008C000C0F80CC00E7906F00306022E10D1D6082F
:1008D00000EB8608D8F8206057074FEAD76C09FA72
:1008E0000CF7BE430F6907FA0CF73743C8F82070BE
:1008F00006684FEA420C05FA0CF7BE430F7907F081
:10090000030707FA0CF7374307604E6816F4403FB9
:100910006DD03B4E376847F480473760366822F029
:10092000030706F480460096364E07EB060CDCF80B
:10093000086897073F0F09FA07F826EA0806DFF864
:10094000C880404503D14FF000081EE04FE0DFF8BB
:10095000BC80404502D14FF0010816E0DFF8B080BE
:10096000404502D14FF002080FE0DFF8A880404573
:1009700002D14FF0030808E0DFF89C80404502D127
:100980004FF0040801E04FF0070808FA07F848EABA
:100990000608CCF80888DAF800605746D1F804C099
:1009A0009E435FEACC2C00D51E433E60DBF800601E
:1009B0005F46D1F804C09E435FEA8C2C00D51E43ED
:1009C0003E60DEF800607746D1F804C09E435FEADF
:1009D0008C3C00D51E433E60084F083F3E68D1F86E
:1009E00004C09E435FEACC3C00D51E433E60521CCF
:1009F000102AFFF431AFBDE8F88F0000083C014039
:100A0000443802400030014000000240000402402F
:100A100000080240000C024000100240006908403B
:100A200000D001207047426921EA02030A4043EAEC
:100A30000241816170470AB1816170470904FBE797
:100A400001488068704700006804002002488168FF
:100A50000278114481607047680400200B4810B58B
:100A6000016841F400710160016841F48061016036
:100A7000016841F480710160032000F06FF80120EB
:100A800000F006F800F024F8002010BD003C024001
:100A900070B50D4D04464FF47A712878B1FBF0F033
:100AA0000A490968B1FBF0F000F026FC48B9102CA7
:100AB00007D200222146501E00F030F800206C6062
:100AC00070BD012070BD0000680400207404002087
:100AD0000A4808B5016841F480410160006800F4EB
:100AE000804000900548001F016841F0805101607E
:100AF000006800F08050009008BD000044380240BB
:100B0000002809DB00F01F0201219140400980000C
:100B100000F1E020C0F8001170470000F0B40E4B67
:100B20001B680C46C3F30223C3F10705042D00D94B
:100B30000425191D072901D2002300E0DB1E012630
:100B400006FA05F1491E214099409E40761E164046
:100B50003143F0BC00F0A2BF0CED00E0064900F00C
:100B6000070208684FF6FF03184040EA0220034AD4
:100B700010430860704700000CED00E00000FA052B
:100B80002DE9F0470E46050065D0DFF81481D8F84E
:100B90000000F7B200F00700B04207D288F80070FA
:100BA000D8F8000000F00700B04254D128683D4C4E
:100BB000810712D5400703D5206840F4E05020603B
:100BC0002878000703D5206840F460402060206842
:100BD000A96820F0F000084320602878C0072DD0D5
:100BE000304968680839012812D0022813D0032838
:100BF00011D00968890700292DDA216821F0030145
:100C000001432160FFF71CFF814641F2883A0EE064
:100C100009688903EFE709688901ECE7FFF710FF2E
:100C2000A0EB0901514502D90320BDE8F0872068F7
:100C3000696800F00C00B0EB810FEFD1D8F800101C
:100C4000404601F00701B14207D90770006800F083
:100C50000700B04201D00120E7E72878400705D51A
:100C60002068E96820F4E0500843206028780007F5
:100C700006D52068296920F4604040EAC100206060
:100C800000F038F82168084AC1F30311515CC840EC
:100C90000649086006480068FFF7FAFE0020C4E72E
:100CA000003C0240083802402EA2000874040020D4
:100CB0006C0400200448054900680968044AC1F32F
:100CC0008221515CC84070477404002008380240FB
:100CD0003EA200080448054900680968044AC1F3B7
:100CE0004231515CC840704774040020083802400B
:100CF0003EA20008154810B5006810F00C02144818
:100D000013D01449042A0FD0082A0ED10F4C241FE7
:100D10002268236802F03F025B0207D52068C0F317
:100D20008810A0FB010106E0084610BD2168C1F350
:100D30008811A1FB00010023FFF74CFA2168C1F3E1
:100D40000141491C4900B0FBF1F010BD08380240D8
:100D50000024F40040787D012DE9F84F04006ED0A6
:100D60002078DFF84C93C007A9F104054AD009F1B7
:100D700004000168C1F38101012908D00068C0F3B3
:100D8000810002280AD1D9F80000400206D528685F
:100D9000800337D560680028E1D033E06068B0F5A3
:100DA000803F10D0B0F5A02F286810D020F48030FC
:100DB0002860286820F4802028606068A8B1FFF7C8
:100DC0003FFE06460DE0286840F48030F4E740F42A
:100DD00080202860F7E700BFFFF732FE801B642801
:100DE00073D828688003F7D50CE0FFF729FE064684
:100DF00005E000BFFFF724FE801B6428F0D82868B8
:100E00008003F7D42078DFF8AC8280074FF0000A27
:100E10003ED5A748001D016811F00C0F08D00068EE
:100E2000C0F3810002280BD1D9F80000400207D49A
:100E30002868800716D5E068012800D112E033E168
:100E4000E068B8B10120C8F80000FFF7F9FD0646D8
:100E500005E000BFFFF7F4FD801B0228C0D828681A
:100E60008007F7D52868216920F0F80040EAC10022
:100E700028600DE0C8F800A0FFF7E2FD064604E098
:100E8000FFF7DEFD801B02281FD828688007F7D4F3
:100E90002078000722D5864F87486169703771B185
:100EA00001210160FFF7CCFD064604E0FFF7C8FD15
:100EB000801B022809D838688007F7D50EE0C0F8F3
:100EC00000A0FFF7BDFD064605E082E0FFF7B8FD94
:100ED000801B02287DD838688007F7D42078400727
:100EE00068D5DFF8CCB100270BF13C0BDBF8000034
:100EF000C0000BD4DBF8001041F08051CBF800109B
:100F0000DBF80000012700F0805000906B4E306845
:100F1000C00510D4306840F480703060FFF790FD59
:100F2000009005E0FFF78CFD0099401A022850D888
:100F30003068C005F6D55E4EA0686C3601280FD02B
:100F40000528306810D020F001003060306820F0B3
:100F500004003060A068B8B1FFF772FD00900FE0A8
:100F6000306840F00100F4E740F004003060F7E73B
:100F7000FFF766FD0099411A41F28830814266D838
:100F800030688007F4D50EE0FFF75AFD009007E0C7
:100F9000FFF756FD0099411A41F28830814256D838
:100FA00030688007F4D42FB1DBF8001021F08051B5
:100FB000CBF80010A069C8B33D49091D0968C1F309
:100FC000810102294AD00228504607D0C8F86000A3
:100FD00000E03CE0FFF734FD04463BE04746C8F83C
:100FE0006000FFF72DFD064605E000BFFFF728FD76
:100FF000801B02282BD828688001F7D4D4E9070188
:101000000843A16A2E4A490802EB0141626A41EA9B
:101010008211084394F82C1040EA0161C9F80010CD
:1010200001203866FFF70CFD044606E03EE000BFF5
:10103000FFF706FD001B022809D828688001F7D5B4
:1010400034E000BFFFF7FCFC001B022802D903209C
:10105000BDE8F88F28688001F4D427E00128F7D094
:10106000D9F80000E26900F4800191421CD1226AA3
:1010700000F03F01914217D147F6C071626A01400A
:10108000B1EB821F10D1A26A4FF0FF3300F4403160
:1010900003EB5202B1EB024F06D194F82C1000F092
:1010A0007060B0EB016F01D00120D1E70020CFE7E5
:1010B0000438024000004742800E47420070004062
:1010C0000000FFFF7047000038B5016804464A6819
:1010D0008868C043430606D5C30704D1D3435B06E3
:1010E00001D4216C05E0830708D4D3431B0605D443
:1010F000616C01B02046BDE830400847830603D547
:10110000430601D5C30551D4D3439B064ED44306B1
:101110000AD494F85130032B49D0636D43F0040393
:101120006365CB688B680093830609D4636D43F0D5
:10113000010363658B6800930B6823F040030B6029
:10114000C00506D4606D40F00800606520688068C6
:101150000090606D002829D02068416821F0E001EE
:101160004160012084F85100900701D4D00722D0BB
:101170002068416821F003014160114DE06C40B1ED
:101180000565E06CFFF736FB18B1606D40F040007C
:101190006065A06C002809D00565A06CFFF72AFBEC
:1011A000002803D0606D40F04000606538BDC8681D
:1011B0008868009038BD2046FFF784FF38BD0000E6
:1011C000ED15000870B5040009D0606A002540B133
:1011D00025616561A56294F8510040B10CE00120E1
:1011E00070BD6068B0F5827FF4D0E561F2E784F805
:1011F0005050204600F044F8022084F85100206846
:10120000016821F040010160A088218900F482700A
:1012100001F404410843A18901F400610843217CE1
:1012200001F002010843217D01F001010843218BF7
:1012300001F400710843217F01F03801084394F85C
:10124000201001F080010843218D01F40051084372
:1012500021680860A069042101EA104094F8241074
:1012600001F010010843216848602068C16921F439
:101270000061C1616565012084F85100002070BDE6
:1012800010B586B0044614216846FEF7FDFF1749E5
:101290002068884228D116480021026842F4805212
:1012A0000260006800F4805005901148143802680C
:1012B00042F001020260006800F001000590E020A9
:1012C00000900220CDE90101032003900520049045
:1012D00069460848FFF7B2FA002204212320FFF7ED
:1012E0001DFC2320FFF70CFC06B010BD00300140B0
:1012F000443802400000024010B5401EB0F1807F2B
:1013000001D3012010BD4FF0E02460610F21601770
:1013100000F0C4FB0020A06107202061002010BD68
:1013200070B5040004D094F83D00002510B106E02B
:10133000012070BD84F83C50204600F023F82420A2
:1013400084F83D002068C16821F40051C160204646
:1013500000F0D0FA2068016921F490410161206811
:10136000416921F02A0141612068C16841F40051BE
:10137000C1602564202084F83D0084F83E000020F0
:1013800070BD000010B586B0044614216846FEF713
:101390007BFF13492068884220D11248002102684F
:1013A00042F010020260006800F0100005900D4845
:1013B0001438026842F002020260006800F0020085
:1013C0000590482000900220CDE901010320039000
:1013D0000720049069460448FFF730FA06B010BDB4
:1013E0000010014044380240000402402DE9F84357
:1013F000044690F83D001F4616460D4620284CD165
:10140000C5B1BEB194F83C00012846D0012084F853
:101410003C004FF00008C4F84080212084F83D00D3
:10142000FFF70EFBA6848146E684A068B0F5805FD6
:1014300003D004E00120BDE8F883206928B12E46DE
:101440005FF0000584F83C800EE00026FAE780217A
:10145000204600F0D5FAA0B9AEB116F8010B21680C
:101460004860E08C401EE084E08C4B464FF0000268
:1014700000970028EBD14FF04001204600F0C0FA61
:1014800030B10320D7E735F8020BC0F30800E6E7D8
:10149000202084F83D000020CDE70220CBE7FEE7C6
:1014A0002DE9F04186B014216846FEF7EDFE28488C
:1014B0000024016841F004010160016801F00401A9
:1014C0000591016841F080010160016801F080012F
:1014D0000591016841F001010160016801F001011D
:1014E0000591016841F0020101600068194F00F0A8
:1014F00002004FF400550590002229463846FFF7B8
:101500009AFADFF854804FF4826600223146404652
:10151000FFF791FA00950125CDE901546946384657
:101520000394FFF78BF90096CDE9015469464046D4
:101530000394FFF783F92802CDE90004022002900A
:1015400069464046FFF77AF906B0BDE8F081000031
:101550003038024000080240000002400F4810B539
:101560000D4901604FF482714160002181600122C8
:10157000C160C0E904125202C0E906210162416261
:1015800081620A21C162FFF71DFE002803D0BDE879
:101590001040FFF72DB910BD003001409804002025
:1015A0000C4810B50A4901604FF4E1314160002157
:1015B00081600C22C160C0E904128161C161FFF742
:1015C000AFFE002803D0BDE81040FFF711B910BDF1
:1015D00000100140F0040020FEE7FEE77047000025
:1015E0000148FFF771BD00009804002010B5806B22
:1015F0000021C187C186FFF765FD10BD704708B5A2
:101600000220ADF80000BDF80000411EADF800104A
:10161000F9D208BD2DE9F04387B00446142168468D
:10162000FEF732FE2C482D4900250470086840F072
:1016300002000860086800F002000590086840F0A9
:1016400002000860086800F002000590086840F099
:1016500002000860086800F002000590086840F089
:101660000200086008684FF4804900F0020005900D
:1016700002200126CDE90250DFF86480CDE9009612
:1016800069464046FFF7DAF8F003009069464046A5
:10169000FFF7D4F8B0028DE8610069464046FFF7D5
:1016A000CDF877030097CDE9016569464046FFF71D
:1016B000C5F8012239464046FFF7BDF94CB1012C6F
:1016C00007D0012249464046FFF7B5F907B0BDE80B
:1016D000F0830022F6E70000890400203038024041
:1016E000000402402DE9F041DFF834800D46064643
:1016F0004FF40057002239464046FFF79CF900247A
:1017000005E0FF2000F030F83055641CA4B2AC4274
:10171000F7D339464046BDE8F0410122FFF78BB9C7
:10172000000402402DE9F047DFF8389016460D46D8
:1017300007464FF40058002241464846FFF77BF920
:10174000002406E0385D00F00FF805B12855641C50
:10175000A4B2B442F6D341464846BDE8F047012260
:10176000FFF769B9000402402DE9F05F0024364D0F
:10177000DFF8D880064627464FF400494FF4804AE8
:101780004FF4806B287860B102280AD0012833D04A
:10179000002251464046FFF74EF930062ED5012271
:1017A0002DE0300601D5012200E0002249464046E6
:1017B000FFF741F97006060EFFF721FF2878B8B150
:1017C000002251464046FFF736F9FFF718FF600642
:1017D000040E59464046FFF721F908B144F00104D0
:1017E000287838B1012251464046FFF724F921E01C
:1017F0000122E6E70022F6E70122CAE70022494675
:101800004046FFF718F97006060EFFF7F8FE287835
:10181000012816D0012251464046FFF70CF9FFF788
:10182000EEFE6006040E59464046FFF7F7F808B191
:1018300044F001047F1CFFB2082FA3D32046BDE86B
:10184000F09F0022E7E70000890400200004024026
:10185000FFF7FCB830B593B030216846FEF714FDB1
:1018600014210CA8FEF710FD1C480025016841F06A
:1018700080510160006800F08050119018480168A4
:1018800041F4404101600068022400F4404011909E
:1018900001200090000401908001CDE906400C2059
:1018A00008906020CDE9090404200B906846FFF7FA
:1018B00053FA08B172B6FEE70CA90F2081E8310097
:1018C0004FF48050CDE90F0503210CA8FFF758F91C
:1018D000002801D072B6FEE713B030BD4038024098
:1018E000007000400248016841F4700101607047D7
:1018F00088ED00E070B5044600680169E26821F4F3
:101900004051114301612169A068E269084361699E
:10191000114308432168CA6849F20C639A430243A1
:10192000CA6020684169A26921F440711143416194
:1019300031492068884202D03049884202D1FFF7FD
:10194000C9F901E0FFF7B6F9E2690023192164251E
:101950003226B2F5004F626828D0A0FB0101930F38
:101960009200FEF737FC0146B0FBF5F06FF018026D
:10197000504301EB800006EB0010B0FBF5F000F0E7
:10198000F002B1FBF5F002EB0012B1FBF5F06FF0E5
:101990001803584301EB800006EB0010B0FBF5F094
:1019A00000F00F0021681044886070BDA0FB0101A9
:1019B00092185B41FEF70EFC0146B0FBF5F0020108
:1019C000B1FBF5F06FF01803584301EB800006EB14
:1019D000C000B0FBF5F000F0F80002EB4002B1FBF4
:1019E000F5F0584301EB800006EBC000B0FBF5F0CA
:1019F00000F00700D6E7000000100140001401408D
:101A00002DE9F041984617460E460446069D27E00C
:101A1000681C25D02DB1FFF713F8A0EB0800A842F1
:101A20001ED920680C3050E8001F21F4D07140E826
:101A30000012002AF5D12068143050E8001F21F070
:101A4000010140E80012002AF5D1202084F83D0071
:101A500084F83E00002084F83C000320BDE8F081BB
:101A60002068006836EA000004D00020B842CFD0D9
:101A70000020F3E70120F9E7FEE700000FB4054B73
:101A800010B503A9044A029800F096F910BC5DF85D
:101A900014FB0000799900088C0400200907090E46
:101AA000002804DB00F1E02080F80014704700F00B
:101AB0000F0000F1E02080F8141D704738B51D4676
:101AC00014000BD001236A4606F00CFE002804DB4C
:101AD0009DF800002040E840C0B238BD6FF015000E
:101AE00038BD2DE9F8431E46089D14000F46804678
:101AF00014D001236A4606F0F5FD00280CDB9DF8A2
:101B00000000B540A04325400543EAB28DF800200F
:101B10003946404606F016FEBDE8F8836FF0150022
:101B2000FAE770B5044602F0030060F35F110A465D
:101B30001E46049DA021606806F004FE06F0030620
:101B400046F07C02A121606806F0FCFD46F07802B8
:101B5000A121606806F0F6FD1021204605F042F94B
:101B600000280DDB5DB1D4F8C000C06A022808D09F
:101B7000A721606806F0ACFD00F00300287000208B
:101B800070BDA821F5E700002DE9F0415508134686
:101B900004464E080A461A491AA0FFF76FFF1CA018
:101BA000FFF76CFF2046A16E07F07CFD074602465A
:101BB0003146204605F0BEFC00281EDB3A46294689
:101BC000204606F0B1FF002817DB3146204605F01D
:101BD00051FD002811DB2946204607F009F80028AE
:101BE0000BDB2046E16E07F05DFD024639462046DC
:101BF00005F022F9002800DB0020BDE8F08100009C
:101C00000CBA000825733A202575202575000000C0
:101C10000A00000002E008C8121F08C1002AFAD119
:101C200070477047002001E001C1121F002AFBD15C
:101C3000704700002DE9FF5F82B00021DDE904302C
:101C4000020DDDF840B0034318D044F61050A2F264
:101C5000FF3242431514119801281FD0A5EB0B0049
:101C6000401C5FEA000A4FF000064E4FDFF8389143
:101C7000B046504615D5CAF1000413E0119801246E
:101C80004AA3012801D16FEA0B010298119AC0E919
:101C90000031C0E9024206B0BDE8F09FCBF1000080
:101CA000DFE704460021404A491842EB0450CDE9E1
:101CB000001012E0E00707D032463B464046494656
:101CC000FEF794FB8046894632463B46104619464D
:101CD000FEF78CFB06460F466410002CEAD1DDE9C6
:101CE0000401DDE90023BAF1000F06DAFEF77EFBFE
:101CF00042464B46FEF77AFB05E0FEF7E9FB42461B
:101D00004B46FEF7E5FB04460E460022284BFEF745
:101D100013FD03D84FF0FF30014607E00022254BAA
:101D200020463146FEF7BBFAFEF75AFC102409E0C4
:101D3000002C0ADB0A220023FEF74CFA039B303208
:101D40001A55641E50EA0102F2D1641C039AC4F1D0
:101D500011031444119A012A03D0012208430DD122
:101D60000AE0084304D000204FF0110B119072E7F5
:101D7000A3EB0B056D1E0DE05B4504DD4FF000028B
:101D800005F1010504E003DA4FF00002A5F10105B9
:101D9000002AECD002981199C0E90231C0E900454F
:101DA00079E70000000014400000F03F3000000020
:101DB0000000F0430000E03F2DE9FF4F95B09A4648
:101DC000884606460025EEE1252877D100242746DF
:101DD000F94A0121039400E0044316F8013F203B37
:101DE00001FA03F01042F7D130782A2811D06FF0B1
:101DF0002F033078A0F13002092A16D8039A44F054
:101E0000020402EB820203EB42021044761C0390B0
:101E1000EFE758F8042B0392002A03DA504244F407
:101E20000054039044F00204761C30782E2816D11A
:101E300016F8010F44F004042A280DD06FF02F0289
:101E40003078A0F13003092B09D807EB870302EBA8
:101E50004303C718761CF3E758F8047B761C3078E8
:101E60006C280FD006DC4C2817D068280DD06A28C3
:101E700014D104E0742810D07A280FD10DE044F476
:101E800000140AE044F4801401E044F44014727831
:101E9000824202D104F58014761C761C30786628C4
:101EA0000BD013DC582877D009DC002875D04528E2
:101EB000F6D04628F4D047281AD193E118E06328D9
:101EC00035D0642879D0652812D18BE1702873D081
:101ED00008DC6728F1D069286FD06E280DD06F28F4
:101EE00006D1ACE073282CD0752874D0782853D054
:101EF0005246179990476D1C54E1C4F302500228D2
:101F000009D003280DD0D8F8001004280DD00D609A
:101F100008F1040846E1D8F80010EA17C1E90052B8
:101F2000F6E7D8F800100D80F2E70D70F0E718F82A
:101F3000041B8DF8001000208DF80100EB460120F5
:101F400003E058F804BB4FF0FF3061074FF0000189
:101F500002D40DE009F101018946B9420FDA814549
:101F6000F8DB1BF809100029F4D108E009F10101A0
:101F700089468142FADB1BF809100029F6D1039843
:101F80005346A0EB090721463846179A00F080FA1D
:101F9000284400EB090507E044E008E10DE01BF8E8
:101FA000010B524617999047B9F10109F7D25346F0
:101FB00021463846179AF2E039E00A21C4F302526A
:101FC0004FF0000B0091022A06D058F8040BC117FD
:101FD000032A09D00AE023E008F1070020F00702F5
:101FE000F2E80201904605E000B2C117042A01D1CF
:101FF00040B2C117002906DA0A460021404261EBCF
:1020000002012D2202E0220504D52B228DF80420A6
:10201000012203E0E20701D02022F7E7914657E0D2
:102020000A2100E010214FF0000B00910BE010217D
:102030004FF0000B44F004040827009103E008204F
:102040004FF0000B0090C4F30252022A05D058F85A
:10205000040B0021032A08D008E008F1070020F053
:102060000702F2E80201904603E080B2042A00D1A0
:10207000C0B24FF0000922072AD53278702A07D063
:10208000DDF800C08CF0100C5CEA0B0C05D00EE003
:1020900040228DF80420012208E050EA010306D016
:1020A00030238DF804308DF8052002229146009BE4
:1020B00083F0080353EA0B030AD150EA010201D16D
:1020C000620705D530228DF804204FF001097F1EEC
:1020D0003278582A04D039A20C920CAA02920BE052
:1020E0003BA2F9E75B46009AFEF774F80C9B9B5CF9
:1020F000029A521E0292137050EA0102F2D1029823
:1021000004A9081A00F1200B600702D524F48034DA
:1021100000E001275F4502DDA7EB0B0000E0002097
:1021200000EB0B01009003984944401A0390E00330
:1021300006D453462146179A039800F0A9F905449E
:10214000002706E001A85246C05D179990476D1C14
:102150007F1C4F45F6DBE0030CD553462146179A0A
:10216000039800F095F9054404E030205246179991
:1021700090476D1C0099481E00900029F5DC08E08E
:102180000298029952460078491C0291179990478B
:102190006D1CBBF10001ABF1010BF1DC5BE100F068
:1021A00065F90544761C307800287FF40DAE19B02F
:1021B0002846BDE8F08F0000092801003031323395
:1021C0003435363738396162636465660000000073
:1021D000303132333435363738394142434445465D
:1021E00000000000600700D4062708F1070020F077
:1021F0000700F0E80223804603F0004C5FEA0C0081
:1022000001D097A009E0200501D596A005E0E007E0
:1022100001D095A001E0AFF24C001390307823F08C
:10222000004365280CD006DC452809D046281DD07F
:1022300047287FD13BE0662818D067287AD136E05E
:102240000021112F01DB112000E0781CCDE90001F5
:1022500004A90CA8FFF7EEFCDDE90D010C9A4FF084
:10226000000B07F10109109200914EE04FF0004081
:102270000097CDE9011004A90CA8FFF7DBFCDDE90C
:102280000D020C9B0F994FF0000B9146109300929A
:1022900011B9791C00EB0109B7EB090003D4C0F1B7
:1022A000FF3B07F10109A9EB0700019042E0012F74
:1022B00000DA01270021112F01DD112000E038464E
:1022C000CDE9000104A90CA8FFF7B4FCDDE90D017C
:1022D0000C9A00914FF0000BB946109221070FD4D1
:1022E000009A4A4503DA914601E0A9F10109B9F1E2
:1022F000010F05DD109AA9F10101515C3029F4D0DC
:10230000B84202DA10F1040F03DA0121CDE901101D
:1023100010E0002803DC8344A9EB000102E0411C2B
:10232000494500DD8946A0EB0B00401C01904FF0B1
:1023300000400290200705D40198484502DB4FF089
:10234000FF30019000208DF84B0002980DF14B07F3
:10235000B0F1004F25D002200C902B200D90029858
:1023600000280CDA404202902D200D9007E00A214F
:102370000298FEF74DF93031029007F8011D0C99D3
:10238000481E0C900029F2DC02980028EFD1791E3B
:102390000D980870307800F0200040F0450007F8F4
:1023A000020D11A8C01BC01D02901398007800B147
:1023B000012000EB0901019801EBE0710298014452
:1023C0000398401A401E0390E00306D4534621466A
:1023D000179A039800F05CF805441398007818B138
:1023E0005246179990476D1CE00323D5534621466A
:1023F000179A039800F04CF805441BE0BBF1000F5E
:1024000007DB0098584504DD1098179910F80B0069
:1024100001E0179930205246904701980BF1010BCB
:10242000401E05F10105019004D12E205246179956
:1024300090476D1CB9F10001A9F10109DEDC05E04E
:1024400017F8010B5246179990476D1C0299481EC8
:1024500002900029F4DC53462146179A03989EE621
:102460002D0000002B000000200000002DE9F041AD
:10247000044600251E461746880404D405E0394664
:102480002020B0476D1C641EF9D52846BDE8F081B8
:102490002DE9F041044600251E469046C80301D5AB
:1024A000302700E02027880404D505E0414638465F
:1024B000B0476D1C641EF9D52846BDE8F081D0F800
:1024C000C00003782BB909B1C06A00E0806A022815
:1024D00001D010467047501C704700002DE9F041B4
:1024E0000C4647681646204920A0FFF7C7FA20A0EF
:1024F000FFF7C4FA4FF47A70B6FBF0F0616894F914
:102500000020484300F18050450F0B21384606F06B
:1025100019F900220C21384606F014F9207B00B18D
:10252000012040EA45020D21384606F00BF9A0686B
:1025300007F084FA00F007020F21384606F002F98E
:1025400020691C21B6FBF0F2384606F0FBF8606902
:1025500007F074FA4007020F1D21384606F0F2F822
:102560000020BDE8F081000078BB00082573000062
:102570000A0000002DE9F843144613460746884632
:102580000A46D0F80490334933A0FFF777FA37A012
:10259000FFF774FA4FEA8870050E284607F0D3F962
:1025A000034664B1002000902A4623214846FFF7E5
:1025B00098FA4FF49970844203DA044604E001204B
:1025C000F1E7B4F5EC6F0ADAA4F599704FF47A717B
:1025D000484340F27C5190FBF1F5002609E0A4F25B
:1025E000E1604FF47A71484340F22C7190FBF1F5B1
:1025F0000C2640F2FF30854200D215B1854200D34F
:102600000546B8F1010F06D0B8F1020F12D06FF0F5
:102610001500BDE8F883AA081821484606F092F88C
:1026200005F0030232431A21484606F08BF8A7F85A
:102630009A410DE0AA081921484606F083F805F0F2
:10264000030232431B21484606F07CF8A7F89C4160
:102650000020DEE752BB0008257320444143256477
:10266000203D202564206D56000000000A00000077
:10267000F8B50C460646456829492A48FFF7FEF991
:102680002848001DFFF7FAF9228801213046FFF79C
:1026900071FF628802213046FFF76CFFA079617AF2
:1026A000227A40EA41006179800741EA4201800EC6
:1026B00001F0030140EA8100E179A27A41EA420196
:1026C00001F003010843C043C6B23F2007F03BF9C5
:1026D00003463F22232128460096FFF702FA802076
:1026E00007F031F903462079009080222621284600
:1026F000FFF7F7F9E27A3021284606F023F8227B2B
:102700003121284606F01EF8627B3221284606F069
:1027100019F8A27B3321284606F014F80020F8BDF2
:1027200064BB0008B88300087FB50C46006804232A
:1027300001AA442105F0D6FF9DF807009DF8061078
:10274000000440EA01209DF805109DF8045008435C
:10275000A4FB0010CDE902104FF4FF12002302A8E1
:1027600007F0E6F8DDE90201E4FB0501CDE902012D
:1027700004B070BDF0B51D4885B01546814233D810
:102780004010814230D30024CDE90214234602A830
:102790002A6807F0CDF84FF4FF17A0FB072CCDE90E
:1027A000000101FB07C1002300FB03102968029E02
:1027B000490851186041CDE9001068462A6807F0C1
:1027C000B7F8009829683A46A1FB0010CDE900103F
:1027D0000023684607F0ACF82868DDE90012704372
:1027E00040185441CDE9000405B0F0BD80113C55BE
:1027F0002DE9F0430746D0F8009049A087B0144671
:10280000006813460D460A460190464946A0FFF768
:1028100035F94EA0FFF732F9E8099621A0FB011027
:10282000CDE90410E00942010026334604A807F070
:102830007FF8049819210C30B0FBF1F2521E402AA7
:102840006BDA012A00DC01224621484605F07AFFB6
:10285000032301AA4A21484605F09EFFE0224B21AE
:10286000484605F06FFF10224E21484605F06AFFEA
:10287000CDE902562246002302A807F059F84FF48A
:10288000FF13A0FB03C8CDE9040101FB0381002273
:1028900000FB021061081CEB01017041CDE904103E
:1028A000029D2246002304A807F042F82A4644214C
:1028B0004846049C05F046FF22464321484605F061
:1028C00041FF220A4221484605F03CFF220C4121EB
:1028D000484605F037FF05223F21484605F032FF04
:1028E00001223F21484605F02DFF86224C21484613
:1028F00005F028FF01224D21484605F023FF05225F
:102900004D21484605F01EFF012380225E21786894
:1029100000F050FA07B0BDE8F083402294E70000D1
:10292000355BE80068BD000825733A205261746584
:1029300020257520487A20506172656E742052619E
:10294000746520257520487A000000000A00000008
:102950002DE9F04104460E460A46214921A0FFF721
:102960008DF823A0FFF78AF840F2F5373946606802
:1029700005F0AEFE0546C4F8E4613EB1012E07D075
:10298000022E22D06FF01500BDE8F08100211DE07D
:102990000021204602F078F90121204603F067F873
:1029A0001221606805F094FE410704D5000702D5A6
:1029B00045F0800001E025F0800040F0010239463A
:1029C0006068BDE8F04105F0BDBE0121204602F07F
:1029D0005BF90021204603F04AF825F08102EEE77A
:1029E0008DB8000825733A206D6F6465202564005A
:1029F0000A00000070B506460D460A4600240D493F
:102A00000DA0FFF73BF80FA0FFF738F886F8E85164
:102A10003DB1012D02D0022D03D101E0012400E0DF
:102A2000092422467068BDE870404FF47D7105F0BE
:102A300089BE0000A2B8000825733A206D6F646556
:102A4000202564000A0000002DE9FF4782B00EA98E
:102A5000DDE9128691E83006DDE9042306F026FD63
:102A6000002835D1421E04E049184041CDE9041048
:102A7000521CDDE90410184F01237F1A8341F3D261
:102A8000C8F80020DDE90401C6E9000122462B4612
:102A900004A806F04DFF114ECDE90001A0FB06276A
:102AA00001FB0671002300FB031069084FEA3403A1
:102AB000D2184841CDE9002022462B46684606F050
:102AC00037FF0498C9F800000098CAF800000020F9
:102AD00006B0BDE8F087000000BCA065F1FF7F00F4
:102AE0002DE9FF4F91B00025012091466C1E0E90FC
:102AF0009B462E462746DDF878801C227C4906A896
:102B0000FDF7A9FB119890F8540108B1012002E0EB
:102B1000119890F892018246119890F8550108B1E9
:102B2000012002E0119890F890010590B9F1010F91
:102B300004D0B9F1000F0BD06EA10AE012990AFB84
:102B400001F06E49B1EBC00FF6D9002081460E901E
:102B50006BA1CDE900A166496CA02339059B129AAF
:102B6000FEF78CFF77A0FEF789FF7749129888421D
:102B700005D900BF6FF0150015B0BDE8F08F024613
:102B8000059812994243119801FB0AF190F85601F9
:102B900008B1022000E00120414348460DF1180E23
:102BA0006A4B4AE00EEB8005DFF850C195F90060F2
:102BB000CCF1000C06FB01F55643AC449C453BD8D8
:102BC000AE4203D9B6FBF5F1494201E0B5FBF6F19F
:102BD0005F4A954206D80446012900D10021671AB0
:102BE0002E4614E06E080446042802D0052804D0BE
:102BF00007E0002905DB07270FE0002901DB0122A0
:102C000000E002221019012900D10021471A072FE4
:102C100003D2002C01DB062C27DDB9F1070F0FD200
:102C20000E9868B1CDF80080DDE9110109F10102CB
:102C30005B46FFF755FF9FE7401C0728B2DBECE738
:102C4000072F03D2002C01DB062C0EDD2B4885421A
:102C500001D240A200E045A225494AA02339FEF74F
:102C60000DFF38A0FEF70AFF84E74021A5FB010213
:102C7000DFF83CC149080023BCEB000C934101D2B2
:102C80000229F3D2CBE900050EEB84020EEB87019B
:102C900092F90130B5FBF3F3CBF8083092F902401A
:102CA000B3FBF4F3CBF80C3092F90320B3FBF2F250
:102CB000B2FBFAF3CBE90423C8E9000691F901005D
:102CC000B6FBF0F0C8F8080091F90220B0FBF2F072
:102CD000C8F80C0091F90310B0FBF1F0C8F810002F
:102CE0000599B0FBF1F10020C8F8141044E700008A
:102CF00024BC00084E6F6D696E616C0040787D01E8
:102D000048696768657374204F53520025733A20F1
:102D100072657175657374656420726174652025D0
:102D20007520545846495220696E742025752052EA
:102D30005846495220646563202575206D6F64658F
:102D4000202573000A0000000080A903C027A824E2
:102D500000D0121341444320636C6F636B206265A3
:102D60006C6F77206C696D69740000004242504CB2
:102D70004C20726174652061626F7665206C696DAC
:102D80006974000025733A204661696C656420749B
:102D90006F2066696E64207375697461626C65206A
:102DA00064697669646572733A20257300000000D7
:102DB00080113C552DE9F0471D4691460F460646C9
:102DC00041F288344FF49668484606F0BCFD03464D
:102DD0004A4639467068FEF771FEA84202D10020CB
:102DE000BDE8F087162F10D05FF0780007F008FAE2
:102DF000641EE9D24A46394605A0FEF73FFE0DA003
:102E0000FEF73CFE6FF06D00EAE74046EEE700009B
:102E100043616C6962726174696F6E2054494D45FB
:102E20004F55542028307825582C203078255829A3
:102E3000000000000A00000070B50D46044601F0D5
:102E4000BDFDA068E1686843B0FBF1F070BD000013
:102E500070B50446106801251646884206D801EB75
:102E60005001B1FBF0F0C4E902050EE000EB5100A7
:102E7000B0FBF1F0C4E9025038B90A490AA0FEF7E4
:102E8000FDFD0EA0FEF7FAFDE5600021204604F0EE
:102E90009BFC002805DB3068E168B0FBF1F0A1681D
:102EA000484370BD30BD000825733A2064697669D7
:102EB0006465206279207A65726F00000A00000064
:102EC0002DE9F0411546134604460E460A461349BD
:102ED00013A0FEF7D3FD1BA0FEF7D0FD0127AE42E5
:102EE00006D306EB5500B0FBF5F0C4E902070EE08F
:102EF00005EB5600B0FBF6F0C4E9027038B907499B
:102F000011A0FEF7BBFD0FA0FEF7B8FDE76020465D
:102F1000BDE8F041012104F057BC00004DBD0008A0
:102F200025733A205261746520257520487A205017
:102F30006172656E74205261746520257520487A2F
:102F4000000000000A00000025733A2064697669D9
:102F50006465206279207A65726F00002DE9F04186
:102F600004460D460A464768104911A0FEF786FD43
:102F700013A0FEF783FD0521384600F08DFC012DDE
:102F800010D00022207C13280ED00021384605F0F6
:102F9000D9FC060000D4A560384600F027FD304675
:102FA000BDE8F0810122EDE70121EFE7E7BD000870
:102FB00025733A20696E646578202564000000005E
:102FC0000A0000002DE9F0410546DDE906741420F1
:102FD00006F050FF06006FF00B081AD037747474B7
:102FE0006868C6E9000505EB8700C665082006F09D
:102FF00041FF040014D0142F22D2DFE807F0191982
:10300000191B2426282A2C262E3032343A3C4246DC
:103010004A4A22A0FEF732FD2FA0FEF72FFD02E064
:10302000304606F0B5FC4046BDE8F041FDF7DFBB99
:10303000A86819E0E86841683046FFF775FB6060F2
:103040002046BDE8F081A8690EE0E8690CE0286A36
:103050000AE0686A08E0A86A06E0286B04E0686B8A
:1030600002E0A86B00E0E86B41683046FFF7E4FE41
:10307000E5E7286900E068694168304603F0B2F985
:10308000DDE7D5F8C000806ED9E7D5F8C000006F45
:10309000D5E7304603F0B4FBD1E700006164393373
:1030A00036315F636C6B5F72656769737465723A22
:1030B00020636F756C64206E6F7420616C6C6F633D
:1030C00061746520666978656420666163746F72F7
:1030D00020636C6B000000000A0000002DE9F74F30
:1030E0000446A0B0D4E97750009000200C900D90D9
:1030F000F648924609AE07C886E80700F3495346EA
:103100001339F3A0219AFEF7B9FCF7A0FEF7B6FC3D
:103110004FF48041009806F085FA1E90D4F8C00064
:10312000C17C022902D05FEA8A610ED590F8F720AF
:103130000621606805F006FBD4F8C000072190F86E
:10314000F820606805F0FEFA5BE10121204605F0F9
:10315000E3FD5FEA4A7003D50021204602F000FF3C
:103160005FEA0A7003D50121204602F0F9FED4F887
:10317000C0004078C8B10521204600F08DFB2046F4
:1031800000F034FC28684668042E00DD0426022185
:103190002046FFF72FFC4FF0000840F2044B20219F
:1031A00001A8FDF771F800207CE0002201212046F3
:1031B00004F0A0FC0A21204600F06EFBE2E7219813
:1031C00078B1D4F8C00090F8F610C9060DD4007894
:1031D00058B1119809A951F820004108204604F07F
:1031E000B9FD0020054610900BE0119909A850F890
:1031F0002110F3E70025109818B105F00F00002208
:1032000001E000202A4660F31F1208F10601606801
:1032100005F098FA002706E00BEB871106220098CC
:1032200006F03DFA7F1CB742F6DB042006F058FE9C
:10323000B8F1010F05D05C21009806F0F3F9C00742
:103240000DD00027B94607E00BEB8711009806F078
:10325000E9F940EA09097F1CB742F5DB01E04FF0CC
:103260000109109901A800EB0110415D41EA090133
:1032700041556D1C102DBEDB1098401C109002288B
:10328000B8DB5FEA8A700BD5219848B1B8F1000F1E
:1032900001D0012200E0002201A9204600F036FA08
:1032A0001198401C1190219808B1032100E00121E0
:1032B0001198814283D80EAA102101A800F070FE57
:1032C00005460FAA102105A800F06AFE074655EA38
:1032D000070007D05FEACA7026D0B8F1000F1ED0F1
:1032E00001221DE0B8F1000F01D0012200E0002210
:1032F00001A9204600F00AFAB8F1000F01D07BA224
:1033000000E07BA271497BA01339FEF7B7FB76A0E2
:10331000FEF7B4FB0C9860F004000C9004E000226F
:1033200001A9204600F0F2F9AF4205D90F9800EB51
:1033300057000007020E04E00E9800EB550000F065
:103340000F0208F10601606805F0FCF9B8F1000F02
:1033500017D05FEA0A7003D50121204600F04EF92C
:1033600000212046FFF7F4FA1E980821B1EB104F18
:1033700005D944F248010D9A009806F090F900250D
:10338000F3E05FEA4A7003D50021204600F036F9E9
:1033900000212046FFF72EFB02224021009806F074
:1033A0007EF903224021009806F079F9D4F8C00094
:1033B000C07C01280BD001212046FFF7C9FA032267
:1033C00044F24001009806F06AF9002564E05FEAE3
:1033D000CA6007D40621606805F07AF9D4F8C010F5
:1033E00081F8F700D4F8C000417831B982792046DD
:1033F00004F080FB204600F0F9FA0021204605F099
:103400008BFC002023B0BDE8F08F00BF4FF480603C
:1034100000EB85173946009806F004F91AA940F226
:10342000512241F825003946009806F038F9092262
:103430002946009806F0FDF844F2144000EB85118F
:103440008946009806F0EEF8014616A840F82510C7
:103450001E990720B0EB114F18D244F2184000EB30
:1034600085110F46009806F0DDF812A9092241F8EF
:1034700025003946009806F012F9494600220098C6
:1034800006F00DF9012244F2440101E0494601220F
:10349000009806F004F96D1CB542B7DB1E980821B0
:1034A000B1EB104F0ED944F248052946009806F0BA
:1034B000B9F80D9020F00F0040F001022946009865
:1034C00006F0EDF808F1010869E6000018BF0008F1
:1034D00025733A206672657120257520666C6167D8
:1034E0007320307825580A000A0000005458000064
:1034F0005258000025733A2054756E696E67202576
:1035000073204641494C4544210000001AA850F858
:1035100025204FF4806000EB8511009806F0BFF87D
:1035200000222946009806F084F81E980721B1EB86
:10353000104F0FD212A850F8252044F2184000EB8B
:103540008511009806F0ABF8012244F2440100987E
:1035500006F0A5F816A850F8252044F2144000EB18
:103560008511009806F09BF86D1CB542CEDB0C98D7
:10357000401D17D05FEACA600FD40621606805F0CD
:10358000A7F8D4F8C01081F8F7000721606805F0AB
:103590009FF8D4F8C01081F8F800D4F8C000417842
:1035A000A9B11BE0D4F8C000062190F8F7206068AC
:1035B00005F0C8F8D4F8C000072190F8F82060683A
:1035C00005F0C0F821980028E7D10C90E5E7827952
:1035D000204604F08FFA204600F008FA022240212B
:1035E000009806F05CF803224021009806F057F896
:1035F0000021204605F090FB0C9803E72DE9F04FE1
:103600008B46D0E97710824608688FB04568042D54
:1036100000DD04254FF0000940F2044800265B4617
:1036200032464946504602F031FA012006F058FC75
:10363000002406E008EB84110622504606F02FF81D
:10364000641CAC42F6DB0A2006F04AFC00273C462C
:1036500007E000BF08EB8711504605F0E3FF044385
:103660007F1CAF42F6DB07A88455761C202ED6DBE4
:1036700005AA202100F094FC044605985B4600EB67
:1036800054024946504602F001FA0599BBF1000F79
:1036900001EB5400CDE9001001D00AA100E00AA11D
:1036A00023464A4609A0FEF7E9F917A0FEF7E6F916
:1036B00009F10109B9F1070FB0DB0FB00020BDE837
:1036C000F08F000054580000525800002573204C21
:1036D000616E652025642C2077696E646F772063A6
:1036E0006E74202575202C207374617274202575EA
:1036F0002C20494F44454C41592073657420746F08
:103700002025750A000000000A0000002DE9F041A4
:103710000E461446C16F05F0C5FF01460CB119A253
:1037200000E019A219A0FEF7A9F91FA0FEF7A6F95B
:10373000002421461DA0FEF7A1F9641C102CF8DB23
:1037400018A0FEF79BF90024214618A0FEF796F971
:10375000002506EB0417785D08B1232100E06F21F6
:1037600013A0FEF78BF96D1C102DF4DB0DA0FEF7F6
:1037700085F9641C022CE7DBBDE8F04109A0FEF7E7
:103780007DB90000545800005258000053414D507C
:103790004C20434C4B3A2025752074756E696E673A
:1037A0003A2025730A0000002020000025783A0006
:1037B0002563200070B51646134604460D460A469A
:1037C0001E491FA0FEF75AF922A0FEF757F9002361
:1037D0001A461946204605F03BF800282CDB052147
:1037E000204600F059F8022D0CD0102D16D1D4F837
:1037F000480133464208D4F844014108204605F008
:10380000BDFA0BE02046D4F8A41005F04BFF00F001
:10381000EFFB02460B46204602F024FD94F8983157
:1038200094F8962194F89711204605F011F8054672
:10383000204600F0DBF8284670BD0000C7BC000839
:1038400025733A2043414C202575204152472025BD
:10385000640000000A000000F8B506468807040E60
:103860001546204606F06FF80346009522460321D0
:103870007068FEF736F9F8BDF8B506468807040EFD
:103880001546204606F05FF80346009522460221C1
:103890007068FEF726F9F8BD2DE9F0410546476846
:1038A0000E460F2006F04FF803460F221721384628
:1038B000FEF704F9C4B285F8C440B44202D13146DF
:1038C00023A021E0324621462DA0FEF7D7F836A0EE
:1038D000FEF7D4F81421384604F0FAFEC10603D5E9
:1038E00020F01000012100E0002185F815110CB135
:1038F00020F00100052E10D0062E08D0082E09D089
:103900000A2E04D0314629A0FEF7B8F818E040F09E
:10391000200406E040F0400403E020F0600040F0A6
:10392000050405221421384604F00CFF2246142118
:10393000384604F007FF002807D026A0FEF79EF8BF
:10394000BDE8F04118A0FEF799B8BDE8F08100008D
:103950004E6F7468696E6720746F20646F2C2064EA
:10396000657669636520697320616C72656164794D
:1039700020696E2025642073746174650000000066
:1039800044657669636520697320696E2025782017
:1039900073746174652C20666F7263696E6720743E
:1039A0006F202578000000000A0000004E6F20689C
:1039B000616E646C696E6720666F7220666F7263F9
:1039C000696E6720256420656E736D207374617461
:1039D000650000004661696C656420746F20726543
:1039E00073746F72652073746174650070B5466896
:1039F00005461421304604F06BFE95F8C41020F003
:103A00006500082910D004DC052910D0062904D14E
:103A100007E00A2905D0FF2917D017A0FEF72EF8D6
:103A200024E040F0200404E040F0400401E040F0D5
:103A3000010405221421304604F084FE224614219C
:103A4000304604F07FFE70B901E014A00CE095F858
:103A5000150100280FD044F010021421304604F064
:103A600071FE002807D018A0FEF708F8BDE87040E6
:103A70001DA0FEF703B870BD436F756C64206E6FB8
:103A80007420726573746F726520746F20256420D2
:103A9000454E534D20737461746500004E6F206E67
:103AA00065656420746F20726573746F72652C2075
:103AB000454E534D207374617465207761736E2792
:103AC00074207361766564004661696C6564207476
:103AD0006F20777269746520454E534D5F434F4E9A
:103AE0004649475F310000000A0000002DE9F84315
:103AF0000F469046044690F8C510D0F80490002672
:103B00003A4691A0FDF7BAFF98A0FDF7B7FF94F8E9
:103B1000C50080281CD1D4F8C000007900B1102065
:103B200040F007020921484604F00CFE142006F07C
:103B300067FB05221421484604F004FE01220021FF
:103B4000204604F0C7FF01221146204604F0C2FFC0
:103B5000D4F8C010487908B1002000E008205FEADE
:103B6000080200D01022104394F8992102B180225B
:103B7000104340F001056FF01500082F12D005DC4E
:103B80009FB3052F32D0062F04D106E00A2F12D0A2
:103B9000802F36D0394676A074E045F0200503E04A
:103BA000064611E045F040054A7842B994F8C52030
:103BB000052AF5D11EE04A7845F02005AAB9064647
:103BC00094F8C500052857D015F0600F54D025F0A3
:103BD000600040F005021421484604F0B3FD0523BF
:103BE0000F2217212046FFF7E5F803E025F06000DB
:103BF00040F00505D4F8C000417851EA080147D0EB
:103C000062E000221146204604F064FF00220121F8
:103C1000204604F05FFF00221421484604F092FD84
:103C2000D4F8C000407808B1202200E040221421DE
:103C3000484604F087FD2046E16E05F033FD564905
:103C4000B1FBF0F006F0DCFA00221421484604F043
:103C500079FD012006F0D4FAD4F8C000007908B14B
:103C6000102200E000220921484604F06BFD84F890
:103C7000C5700020BDE8F883487808B147A100E08E
:103C800047A148A0FDF7FAFE38A0FDF7F7FE55E082
:103C9000007AC8B9062F01D0082F15D1102005F0E1
:103CA00052FE0346062F25D0002000901022152139
:103CB0006068FDF716FF062F1ED040F24721012352
:103CC00002222046FFF776F82A461421484604F0DF
:103CD00039FD060005D03EA0FDF7D0FE23A0FDF77C
:103CE000CDFE680628D594F8940140B194F895016A
:103CF00028B121E00120D8E740F28721DFE740F238
:103D000007184146484604F0E3FC00F03F0594F8EC
:103D10009401A8B15FF0000045EA000294F8950113
:103D200080B1002002434146484604F00BFD2A467C
:103D30004146484604F006FD84F8C570304699E7D0
:103D40004020E9E78020EDE74465766963652069F6
:103D50007320696E2025782073746174652C206D42
:103D60006F76696E6720746F202578000A00000066
:103D70004E6F2068616E646C696E6720666F72209A
:103D8000666F7263696E6720256420656E736D20AF
:103D900073746174650000000060E31646444400DB
:103DA00054444400496E76616C696420454E534D1D
:103DB000207374617465207472616E736974696FC5
:103DC0006E20696E202573206D6F64650000000011
:103DD0004661696C656420746F20726573746F72DC
:103DE00065207374617465002DE9F84F1F009346D8
:103DF0000E46044601D050A000E051A000900EB144
:103E000052A200E052A25B46524953A0FDF736FE93
:103E100057A0FDF733FE16B14025012001E0002533
:103E2000022004EB0609804699F8A90100B101209F
:103E300037EA00014FF0010A2FD0D4F8C00016B1C4
:103E4000D0F88C0001E0D0F88800FA21B0FBF1F244
:103E500005F25B21606804F075FC0BF007000AEBCB
:103E60004012574605F25A21606804F06BFC0022AC
:103E700005F25F21606804F065FC404605F063FDD3
:103E800003460097424615216068FDF72AFE00228E
:103E90003146204604F01EFE4BE0B84349D00022D4
:103EA00005F25A21606804F04DFC802005F04BFDBE
:103EB000CDF800A00346574605F2362180228A46F7
:103EC0006068FDF70EFE012005F03DFD0097D4F877
:103ED00004C0034605F50E7101220F466046FDF74A
:103EE00000FE802005F02FFD00250346009580226E
:103EF00051466068FDF7F5FD012005F024FD0095B1
:103F0000D4F804C00346012239466046FDF7E9FDB6
:103F100001223146204604F0DDFD404605F013FD48
:103F200003460095424615216068FDF7DAFD89F8E1
:103F3000A9510020BDE8F88F50726570617265006C
:103F4000556E2D5072657061726500005458000006
:103F5000525800006BBC000825733A20257320508E
:103F6000726F66696C652025753A20257300000024
:103F70000A00000070B50546002401B1402402F09B
:103F800007001A4660F31F1204F51771284604F063
:103F9000D9FB04F25E212846BDE8704004F098BBCE
:103FA0002DE9F047002492468146621E20462546B0
:103FB00023469046264609E019F803709FB18442D3
:103FC00001DD20461546424600245B1CDF17B3EB9B
:103FD000010CB741F0DB844201DD20461546CAF8EA
:103FE0000050BDE8F087571C00D11A46641CECE76E
:103FF00000210018494170472DE9F84F0C4607464B
:10400000D0F804A0FD49FEA0FDF738FDFDA0FDF7A6
:1040100035FD2078E021032802D06278032A00D100
:10402000F021627887F8940102F00303024663F3FB
:104030009F0260780A4387F89501FA21504604F000
:1040400081FB012005F07FFC0346E07B009001220C
:10405000FB215046FDF745FD022005F074FC0346A8
:10406000207C00900222FB215046FDF73AFD0420FF
:1040700005F069FC0346607B00900422FB2150465A
:10408000FDF72FFDA07808280DD2012800D80120C7
:10409000A070401E00F00701D7F8C000C07868B1DA
:1040A000E07B20B901E00820F2E7207C30B1E07C21
:1040B000012803D0022817D041F00801607C0828AD
:1040C00015D2012800D801206074401E00F00700BE
:1040D00041EA4012FC21504604F034FBD7F8C000FE
:1040E000C07830B1282505E041F01001E6E708204E
:1040F000EAE74C252A46FD21504604F023FB2A46D8
:1041000040F20911504604F01DFB2A464FF4867117
:10411000504604F017FBA07C082824D2012800D8C0
:104120000120A0744007020EFE21504604F00AFB55
:10413000607B58B194F82500A27B00F0070060F383
:104140005F124FF48071504604F0FCFA2279E07857
:104150004FF482714D1C824207D30246504604F050
:10416000F1FA227905E00820DBE7504604F0EAFA8C
:10417000E2782946504604F0E5FAE0884FF0FF3532
:1041800005EB10123F2A00D33F224FF484715046B2
:1041900004F0D8FA208905EB10153F2D00D33F25F8
:1041A0003F2005F0D0FB03463F2240F20711504666
:1041B0000095FDF796FCD7F8C000C07888B158226A
:1041C0004FF48571504604F0BDFA182240F20D11EB
:1041D000504604F0B7FA27224FF48D71504604F090
:1041E000B1FA002240F20B11504604F0ABFA002263
:1041F0004FF48771504604F0A5FA207B402800D385
:10420000402042004FF48A71504604F09BFA00228D
:104210008121504604F096FA402005F094FB4FF4BB
:10422000AE78034601264022454641465046009658
:10423000FDF757FC202005F086FB03462022294687
:1042400050460096FDF74DFC207801282AD0607872
:10425000012827D06089000905F0F0FB05460F20F2
:1042600005F071FB03460F22414650460095FDF7CD
:1042700038FCE57D7F2D00D37F25A8467F2005F003
:1042800062FB03467F2240F2011150460095FDF784
:1042900028FC657E7F2D00D37F2594F8200018B17F
:1042A000802202E0206BD6E700222A434FF490716F
:1042B000504604F047FA617DA8EB0100E17E00F072
:1042C0000F004A1B60F31F1240F22911504604F000
:1042D00039FAA07D227F00F00F0060F31F124FF427
:1042E0009571504604F02EFA94F82C0000B1082085
:1042F00094F82D1001B18021084314F8181F01F023
:10430000070140EA0112A07840F2231100F00700F3
:104310000243504604F016FAA079627900F00F00CB
:1043200060F31F124FF49171504604F00BFA0F2006
:1043300005F009FB0346E0790F2200F00F00009022
:104340004FF483715046FDF7CCFB607AA27A00F0FF
:104350000F0060F31F1240F22111504604F0F2F9F1
:104360001C2005F0F0FA0346E07A00901C2240F28F
:1043700003115046FDF7B5FB207B00F00F02A07B38
:10438000183C00B1102002434FF49471504604F0E1
:10439000D9F9012005F0D7FA034614F8380F4FF485
:1043A00088780090012241465046FDF79AFB6278DA
:1043B00040F21B11504604F0C5F9A578383C6D1E3B
:1043C000072D00D30725E02005F0BDFA0346E022C3
:1043D00040F2171150460095FDF783FB402005F091
:1043E000B2FA94F83C10034640F2111900914022B1
:1043F00049465046FDF775FB06E0000042BB000849
:10440000257300000A00000094F83D503F2D00D3B2
:104410003F253F2005F097FA03463F224FF48C7169
:1044200050460095FDF75DFB94F83E50032D00D3F8
:104430000325C02005F087FA0346C0224FF4897196
:1044400050460095FDF74DFB94F83F50032D00D3E7
:104450000325C02005F077FA0346C02240F213116D
:1044600050460095FDF73DFB94F84050072D00D3D2
:104470000725E02005F067FA03464FF48B7BE02226
:10448000594650460095FDF72CFB802005F05BFA5D
:1044900094F8411003460091802241465046FDF7B2
:1044A00020FB94F84250102005F04DFA0346012DF0
:1044B0003FD000200090102241465046FDF711FBEE
:1044C000042005F040FA0346022D34D0002000906D
:1044D000042241465046FDF704FB802005F033FAE4
:1044E000034694F843000090802249465046FDF769
:1044F000F8FA94F844500F2D00D30F250F2005F043
:1045000022FA03460F22594650460095FDF7E9FA74
:1045100094F8450058B194F8470040B194F84B0026
:1045200028B194F84C0010B194F84D0028B1012541
:1045300004E00120BEE70120C9E70025402005F086
:1045400002FA03464022FB2150460095FDF7C9FAC6
:1045500094F84500E0B30025802005F0F4F9034607
:10456000802240F2151150460095FDF7BAFA94F8F2
:1045700046503F2D00D33F253F2005F0E4F9034688
:104580003F2240F2131150460095FDF7AAFA94F825
:1045900049503F2D00D33F253F2005F0D4F9034675
:1045A0003F224FF4897150460095FDF79AFA94F82E
:1045B0004850402005F0C7F9034640224146504686
:1045C0000095FDF78EFA94F84700E8B3002500E067
:1045D00049E0082005F0B7F9034608224146504655
:1045E0000095FDF77EFA94F84A503F2D00D33F2501
:1045F0003F2005F0A8F903463F2240F2191150462A
:104600000095FDF76EFA94F84B0070B394F84C00E7
:1046100058B30025022005F096F9034602224146D0
:1046200050460095FDF75DFA94F84B0010B3002555
:10463000802005F088F9034680224FF48A715046A5
:104640000095FDF74EFA00E010E094F84D000025CB
:1046500078B394F84E0078B101282BD002283BD0D3
:10466000032858D160E0012576E701E00125AEE797
:104670000125CFE70125DBE7202005F064F903469B
:104680002022494650460096FDF72BFA202005F0DF
:104690005AF9034620224646414650460095FDF70A
:1046A00020FA402005F04FF903464022314600959C
:1046B0002EE039E0202005F046F903462022494645
:1046C00050460095FDF70DFA202005F03CF9034611
:1046D0002022414600961BE0202005F034F90346D5
:1046E0002022494650460096FDF7FBF9202005F0B0
:1046F0002AF9034600952022454641465046FDF7DB
:10470000F0F9402005F01FF90346402229460096A3
:104710005046FDF7E6F994F84F00000905F08EF9D0
:104720000F2813D2044612E0202005F00CF90346AE
:104730002022414650460095FDF7D3F9202005F090
:1047400002F90346202249460095E1E70F24E020C4
:1047500005F0F9F80346E0224FF4857150460094C5
:10476000FDF7BFF9802005F0EEF80346E008009061
:10477000802240F209115046FDF7B3F93846BDE8F2
:10478000F84F00F001B800002DE9FC5F05464068D5
:1047900001902846A96F04F085FF06464FF4FA7091
:1047A000B6FBF0F0804AD5F8C010B2FBF0F2D1F8B9
:1047B0000441C820604302EB50004FF47A7900F2C4
:1047C000E730B0FBF9F091F8A8100844C7B21F2FEA
:1047D00003D210F0FF0F03D101E01F2700E00027F4
:1047E0003F2005F0B0F803463F22222100970198B0
:1047F000FDF777F98046B6FBF9F0DFF8B0A104F1D8
:104800006401484300EB0A010AF1010BB1FBFBF024
:10481000401CC7B21F2F03D210F0FF0F03D101E0DD
:104820001F2700E000271F2005F08DF803461F22F8
:10483000FE2100970198FDF754F940EA08074FF46C
:10484000FA60B6FBF0F0C83400FB04A1DA46B1FB15
:10485000FAF0C01DC4B21F2C03D210F0FF0F03D119
:1048600001E01F2400E000241F2005F06CF803463F
:104870001F2240F2111100940198FDF732F940EA2D
:104880000708B6FBF9F06FF07C0114FB01F1484A10
:1048900002EB0112D5F8C010D1F8BC3003FB0020A8
:1048A0004FF4FA6200F57A70B0FBF2F441488442AA
:1048B00000D214B1844200D3044695F89401012833
:1048C00035D095F89501012831D02846E96F04F0DC
:1048D000E9FE06EB50072846E96F04F0E3FEB7FB5C
:1048E000F0F16200B2FBF1F2D5F8C000B0F89E0022
:1048F000B2FBF0F2022A01D2B4FBF1F0000905F09C
:104900009DF807460F2005F01EF803460F224FF4CE
:10491000AE7100970198FDF7E4F8202005F013F838
:104920004FF4803B03465C4504D3012003E0D1F8FB
:10493000C400E3E70020009020224FF49471019816
:10494000FDF7CFF840EA08075C4500D36408E2B2FF
:104950004FF49271019803F0F5FE40EA0708220A2D
:1049600040F22511019803F0EDFE40EA0804B6FB81
:10497000F9F0D5F8C010104AD1F8C81001FB002199
:10498000B1FBFAF51F2D00D31F251F2004F0DBFF1C
:1049900003461F2240F2171100950198FDF7A1F878
:1049A0002043BDE8FC9F0000809FD5003F420F00E0
:1049B00030F8FFFFFFFF010020A107002DE9F047BD
:1049C00004460768007C002601254FF42B786FF021
:1049D00015090E2837D2DFE800F0070E25363944D6
:1049E0004A585E6A71777D844521384603F070FE2F
:1049F00000F003001FE0012004F0A5FF03460122A0
:104A000040F2AB213846FDF759F80546802004F006
:104A10009AFF0346802241463846FDF74FF840EAA8
:104A2000450008E00C2004F08EFF03460C224146AE
:104A30003846FDF743F8002862D0012862D00228EA
:104A400066D0032867D04846BDE8F0870A2138467B
:104A500003F03EFE00F0070105FA01F0C4E9025040
:104A600023E0302004F06FFF0346302204E00820EA
:104A700004F069FF0346082203213846FDF71EF8BB
:104A80000121401CC4E902100FE0042004F05BFF88
:104A900003460422F0E7032004F055FF03220346F7
:104AA000114624E00120C4E902053046CCE7082085
:104AB00004F049FF082203460A21DEE7302004F013
:104AC00042FF034630220AE0082004F03CFF034680
:104AD000082204E0042004F036FF034604220221E9
:104AE000CBE7032004F02FFF0322034602213846C0
:104AF000FCF7E4FF10B1401E8540D3E70125D1E764
:104B0000012009E001200221C4E9020100209BE705
:104B100001200421F8E702200121F5E710B50C4639
:104B2000D0F8A41004F0BEFDFFF762FAC4E900015A
:104B3000002010BD10B50C46C16F04F0B3FD20601D
:104B4000002010BD08B501290DD076214068022350
:104B50006A4603F0C7FD002804DBBDF80000FA2117
:104B600040BA484308BD7421F0E710B50C46D0F8B0
:104B7000A81004F097FDFFF73BFAC4E900010020FC
:104B800010BD10B50C46D0F8901004F08BFD2060DD
:104B9000002010BD70B50C4645682E492EA0FCF7CC
:104BA0006DFF2EA0FCF76AFF2079A179A27A40EA76
:104BB0004100217AE37A890041EAC2010843617920
:104BC000E27900F00F0041EA4202617A890041EA8D
:104BD000C3010A4360F31F122021284603F0B2FDEF
:104BE00020786178E27840EA4100A178890041EAC2
:104BF000C201084300F00F022721284603F0A2FD5E
:104C0000227B2821284603F09DFD627B2C2128462B
:104C100003F098FDA27B2921284603F093FDE27B57
:104C20002D21284603F08EFD227C2A21284603F000
:104C300089FD627C2E21284603F084FDA27C2B2175
:104C4000284603F07FFDE27C2F21284603F07AFD01
:104C5000002070BDA3BB0008257300000A000000FF
:104C6000074B00221B1A8A4101D300207047054BD5
:104C70000022181A8A4101D3012070470220704790
:104C8000006D7C4D00286BEE2DE9F05FD0E9775088
:104C90008A4683464FF4804104F0C4FC06464FF038
:104CA0000709B9EB164F02D244F2184701E044F26B
:104CB0001447002427E000BF07EB841188465846BC
:104CC00004F0B0FC0246B9EB164F0FD2BAF1000F58
:104CD00006D0082A06D005EB8400426008220DE0C9
:104CE000082A0BD105EB8400426807E0BAF1000FF7
:104CF00002D042F0020201E022F002024146584690
:104D000004F0CDFC641C28684068A042D4DC00207C
:104D1000BDE8F09F2DE9F04180460D4600264FF496
:104D2000007005F076FA04006FF00B077DD0FE48A6
:104D30006060082005F06DFAA0600028F6D04FF4FE
:104D4000B87005F066FAC4F8C0000028EED0442020
:104D500005F05FFAC4F8DC010028E7D0082005F070
:104D600058FAC4F8E0010028E0D0046028782070E8
:104D700068786070A16868684860E87A00B10120CE
:104D8000D4F8C0104870287B00B10120D4F8C010BE
:104D90008870287A00B10120D4F8C0100870D4F8C7
:104DA000C010687A8862D4F8C010A87AC862687B9C
:104DB00000B10120D4F8C0100872A87B00B1012016
:104DC000D4F8C0104872D4F8C0106869C1F88800DF
:104DD000D4F8C0102869C1F88C00287E00B10120E9
:104DE000D4F8C01081F89000687E00B10120D4F89A
:104DF000C01081F891002178002002297ED0A97E80
:104E000001B10121D4F8C0209172E97E01B10121E4
:104E1000D4F8C020D172D4F8C020297F9173D4F87F
:104E2000C020697FD173A97F00E0FDE3D4F8C020E2
:104E30001174D4F8C020E97F5174D4F8C02095F8DB
:104E40002010917495F8211001B10121D4F8C020EF
:104E5000D170D4F8C020696A116695F8281001B1A4
:104E60000121D4F8C020517395F8291001B1012116
:104E7000D4F8C020517195F82A1001B10121D4F85D
:104E8000C0209171D5E90C12D4F8C030C3E91A12D0
:104E9000D5E90E12D4F8C030C3E91C125FF030011E
:104EA00005EB860201EB8607D4F8C030126C761C45
:104EB000DA51062EF4DB00215FF0480205EB810396
:104EC00002EB8107D4F8C0609B6D491CF3510629A1
:104ED000F4DBD4F8C020296F9167D4F8C020696F43
:104EE000D167D4F8C020A96F1162D4F8C020E96F4F
:104EF0005162D5F88010D4F8C02000E0FEE3C2F87B
:104F0000801095F8841001B10121D4F8C02082F8F6
:104F1000841022780121022A7DD095F8852002B1E3
:104F20000122D4F8C0301A71D4F8C030D5F88820E6
:104F30009A61D4F8C030D5F88C20DA61D4F8C0304A
:104F400095F8902083F89220D4F8C03095F89420FA
:104F500083F89420D4F8C03095F8952083F89520F4
:104F6000D4F8C03095F8962083F89820D4F8C03053
:104F700095F8972083F89620D4F8C03095F89820BB
:104F800083F89720D4F8C030B5F89A20A3F89E2073
:104F900095F89C2002B10122D4F8C03083F8A120FA
:104FA000D4F8C030B5F89E20A3F89A20D4F8C030C9
:104FB000B5F8A020A3F89C20D4F8C03095F8A22022
:104FC00083F8A020D4F8C03095F8A32083F8A2205D
:104FD000D4F8C03095F8A42083F8A620D4F8C030C7
:104FE00095F8A52083F8A52095F8A62002B1012206
:104FF000D4F8C03083F8A32095F8A72002B101228D
:10500000D4F8C03083F8A420D4F8C03095F8A82094
:1050100083F8A72000E0FCE3D4F8C03095F8A9207D
:1050200083F8B220D4F8C03095F8AA2083F8B320D2
:1050300095F8AB2002B10122D4F8C03083F8B42037
:10504000D4F8C03095F8AC2083F8B120D4F8C03043
:1050500095F8AD2083F8B920D4F8C03095F8AE208B
:1050600083F8B820D4F8C030D5F8B020C3F8BC20FD
:1050700095F8B42002B10122D4F8C03083F8C020E2
:1050800095F8B52002B10122D4F8C03083F8C120D0
:10509000D4F8C03095F8B62083F8AB20D4F8C030EF
:1050A00095F8B72083F8AC20D4F8C03095F8B82034
:1050B00083F8AD20D4F8C03095F8B92083F8AE203D
:1050C000D4F8C03095F8BA2083F8B520D4F8C030B1
:1050D00095F8BB2083F8B720D4F8C03095F8BC20F1
:1050E00083F8B620D4F8C03095F8BD2083F8A92005
:1050F000D4F8C03095F8BE2083F8AA20D4F8C03088
:1051000095F8BF2083F8AF20D4F8C03095F8C020C0
:1051100083F8B020D4F8C03095F8C42083F8A820D4
:1051200095F8C8201AB101E0980400200122D4F8B3
:10513000C03083F8BA20D4F8C030D5F8CC20C3F8FA
:10514000C420D4F8C030D5F8D020C3F8C82095F8D2
:10515000D42002B10122D4F8C03083F8CC20D4F896
:10516000C03095F8D82083F8CD20D4F8C03095F819
:10517000DC2083F8CE20D4F8C03095F8E02083F806
:10518000CF2095F8E42002B10122D4F8C03083F892
:10519000D020D4F8C03095F8E82083F8D120D4F896
:1051A000C03095F8EC2083F8D220D4F8C03095F8C0
:1051B000F02083F8D320D4F8C03095F8F42083F899
:1051C000D42095F8F82002B10122D4F8C03083F839
:1051D000D520D4F8C03095F8FC2083F8D62095F877
:1051E000002102B10122D4F8C03083F8D72095F80D
:1051F000012102B10122D4F8C03083F8D920D4F8BB
:10520000C03095F8042183F8D820D4F8C03095F840
:10521000082183F8DA2095F80C2102B10122D4F894
:10522000C03083F8DB2095F80D2102B10122D4F8BB
:10523000C03083F8DC20D4F8C03095F8102183F812
:10524000DD20D4F8C03095F8142183F8DE2095F8DD
:10525000182102B10122D4F8C03083F8DF2095F87C
:10526000192102B10122D4F8C03083F8E02095F86A
:105270001A2102B10122D4F8C03083F8E120D4F819
:10528000C03095F81C2183F8E220D4F8C03095F89E
:10529000202183F8E320D4F8C030D5F82421C3F8C6
:1052A000E820D4F8C030D5F82821C3F8F020D4F88D
:1052B000C03095F82C2183F8E42095F82D2102B117
:1052C0000122D4F8C03083F8E520D4F8C030D5F8F6
:1052D0003021C3F8EC20D4F8C030D5F83421C3F81D
:1052E0002021D4F8C030D5F83821C3F81C2195F816
:1052F0003C2102B10122D4F8C03083F82821D4F82F
:10530000C030B5F84021A3F8242195F8442102B11A
:105310000122D4F8C03083F8292195F8452102B143
:105320000122D4F8C03083F82A2195F8462102B131
:105330000122D4F8C03083F82B21D4F8C03095F87E
:10534000482183F82F21D4F8C03095F84C2183F8F8
:105350003021D4F8C030B5F85021A3F8262195F8B3
:10536000542102B10122D4F8C03083F82C2195F8E1
:10537000552102B10122D4F8C03083F82D2195F8CF
:10538000562102B10122D4F8C03083F82E21D4F87E
:10539000C03095F8582183F83121D4F8C03095F801
:1053A0005C2183F83221D4F8C030D5F86021C3F8ED
:1053B0001421D4F8C030B5F86421C3F81021D4F812
:1053C000C03095F8662183F80C2195F8672102B169
:1053D0000122D4F8C03083F81821D4F8C03095F8F1
:1053E000682183F8FE20D4F8C03095F8692183F84D
:1053F000FD20D4F8C030D5F86C21C3F80421D4F8CE
:10540000C030B5F87021A3F80021D4F8C030B5F849
:105410007421A3F8022195F8782102B10122D4F871
:10542000C03083F8082195F8792102B10122D4F81F
:10543000C03083F8092195F87A2102B10122D4F80D
:10544000C03083F80A21D4F8C03095F87B21DA7493
:10545000D4F8C03095F87C211A7595F87D21D4F8E0
:10546000C030D20183F8F42095F87E61D4F8C030C2
:1054700042EA861283F8F42095F87F61D4F8C030B0
:1054800042EA461283F8F42095F88061D4F8C030DF
:1054900042EA061283F8F42095F88161D4F8C0300E
:1054A00042EAC60283F8F42095F88261D4F8C0304D
:1054B00042EA860283F8F42095F88361D4F8C0307C
:1054C00042EA460283F8F42095F88461D4F8C030AB
:1054D000324383F8F42095F88521D4F8C030D20106
:1054E00083F8F52095F88661D4F8C03042EA860248
:1054F00083F8F52095F88721D4F8C030D20183F8DD
:10550000F62095F88861D4F8C03042EA861283F814
:10551000F62095F88961D4F8C03042EA461283F843
:10552000F62095F88A61D4F8C03042EA061283F872
:10553000F62095F88B61D4F8C03042EAC60283F8B1
:10554000F62095F88C61D4F8C03042EA860283F8E0
:10555000F62095F88D61D4F8C03042EA460283F80F
:10556000F62095F88E61D4F8C030324383F8F620E7
:10557000D4F8C02095F8906112F8F53F06F00306C4
:105580003343137095F89421D4F8C030120183F896
:10559000F72095F89861D4F8C03006F00F06324332
:1055A00083F8F72095F89C21D4F8C030120183F8D5
:1055B000F82095F8A061D4F8C03006F00F06324309
:1055C00083F8F820D5F8A4214B234B3AB2FBF3F231
:1055D00002F00703D4F8C02082F8FA3095F8A861E9
:1055E000D4F8C02043EA461382F8FA3095F8A9218E
:1055F00002B10122D4F8C0301A7395F8AC2102B17F
:105600000122D4F8C03083F8342195F8AD2102B1DD
:105610000122D4F8C03083F8352195F8AE2102B1CB
:105620000122D4F8C03000E02FE183F8362195F84C
:10563000AF2102B10122D4F8C03083F8372195F8A8
:10564000B02102B10122D4F8C03083F8382195F896
:10565000B12102B10122D4F8C03083F8392195F884
:10566000B22102B10122D4F8C03083F83A2195F872
:10567000B32102B10122D4F8C03083F83B2195F860
:10568000B42102B10122D4F8C03083F83C2195F84E
:10569000B52102B10122D4F8C03083F83D2195F83C
:1056A000B62102B10122D4F8C03083F83E2195F82A
:1056B000B72102B10122D4F8C03083F83F21D4F8D9
:1056C000C03095F8B82183F84021D4F8C03095F85F
:1056D000B92183F84121D4F8C03095F8BA2183F874
:1056E0004221D4F8C03095F8BB2183F84321D4F887
:1056F000C03095F8BC2183F8442100E0C8E0D4F81C
:10570000C03095F8BD2183F84521D4F8C03095F814
:10571000BE2183F84621D4F8C03095F8BF2183F824
:105720004721D4F8C030D5F8C021C3F84C21D4F8B3
:10573000C03095F8C42183F85021D4F8C03095F8D2
:10574000C82183F8512195F8CC2102B10122D4F867
:10575000C03083F8482195F8CD2102B10122D4F858
:10576000C03083F84921D4F8C030B5F8D021A3F86F
:105770005221D4F8C030B5F8D421A3F85421D4F87C
:10578000C03095F8D82183F85621D4F8C03095F868
:10579000DC2183F85721D4F8C03095F8E02183F854
:1057A0005821D4F8C03095F8E42183F85921D4F871
:1057B000C020D171D4F8C030D5F8E821C3F85C21FD
:1057C000D4F8C030D5F8EC21C3F86021D4F8C0304B
:1057D000D5F8F021C3F86421D4F8C030D5F8F4210D
:1057E000C3F86821D4F8C02082F8F900D4F8C0309A
:1057F00095F8AA2183F8FB20D4F8C03095F8AB21A6
:1058000083F8FC20D4F8C0201278CAB300224F4B92
:1058100000E045E003EBC202D4F8DC311A6084F802
:105820005601032284F8142184F8551184F8541188
:10583000C4F8501184F8961184F8971184F89811DF
:10584000C4F8E40184F8E80184F8E901C4F8EC0143
:10585000C4F8F001C4F8F4013DA0FCF70FF92046AC
:1058600000F0A2FC3721606802F032FF0646C0F368
:10587000C4006FF01207012819D032463E4900E0FB
:1058800013E03EA0FCF7FAF849E03846BDE8F081A5
:10589000D4F8C0108872D4F8C010C872FFF7BBBA31
:1058A000D4F8C0201171FFF73FBB0122AFE73146AA
:1058B0003BA0FCF7E3F8D5F8F801C4F8B400D5F83C
:1058C000FC01C4F8B800D5F80002C4F8BC0006F02A
:1058D0000706204604F006FB002820DB204603F0E4
:1058E00094FE0021D4F8E00103F09CFED4F8E0110E
:1058F0004860204600F096F8204602F009FB002898
:105900000DDB204603F08CFE002808DB32461A49E6
:105910002AA0FCF7B3F80020C8F80040B6E7D4F896
:10592000DC0104F035F8D4F8E00104F031F8A068A7
:1059300004F02EF8D4F8C00004F02AF8204604F051
:1059400027F80D4929A0FCF799F89EE77804002074
:10595000506172616D7465727320737563636573F2
:105960007366756C6C7920696E697469616C697AAB
:1059700065642E0A0000000001BE00082573203A6D
:1059800020556E737570706F727465642050524F3D
:10599000445543545F494420307825580A0000009C
:1059A0005461726765742064657669636520494453
:1059B000203A20307825580A000000002573203A4C
:1059C000204144393336782052657620256420738F
:1059D00075636365737366756C6C7920696E697441
:1059E00069616C697A65640A000000002573203AD9
:1059F0002041443933367820696E697469616C6975
:105A00007A6174696F6E206572726F720A000000AD
:105A100070B50DF1100C9CE8700000F8041B80E8D4
:105A20007C0070BDFEB501254D2600210095CDE915
:105A300001610446CC3033462A46FFF7E9FFCDE941
:105A4000005604F1E40047236A1F00210295FFF786
:105A5000DFFF04210095CDE9016104F1FC003E2344
:105A60006FF009020021FFF7D3FF0020FEBDD0F840
:105A7000C0301A7842B9D3E90A239A4204D001B956
:105A80001A460321FDF7F8BE0020704710B573B128
:105A900043680824B4EB134F06D24FF4904303EB52
:105AA000810103F0FCFD04E06FF0120010BD03F073
:105AB0008DFD002010BD00002DE9FE4F044640681A
:105AC000002501901E4691468846DDF830B0AA4672
:105AD0006EA0FBF7D3FF4B4632466F496FA0CDF85F
