:020000040800F2
:10000000001E0020B10100081B1B0008CF190008CA
:10001000191B0008A50D0008292000080000000099
:10002000000000000000000000000000AD1B000800
:10003000A70D0008000000001D1B0008011E00089D
:10004000CB010008CB010008CB010008CB01000860
:10005000CB010008CB010008CB010008CB01000850
:10006000CB010008CB010008CB010008CB01000840
:10007000CB010008CB010008CB010008CB01000830
:10008000CB010008CB010008CB01000800000000F4
:10009000000000000000000000000000CB0100088C
:1000A000CB010008CB010008CB010008CB01000800
:1000B000CB010008CB010008CB010008CB010008F0
:1000C000CB010008CB010008CB010008CB010008E0
:1000D000CB010008CB010008CB01000800000000A4
:1000E000CB010008CB010008CB0100080000000094
:1000F000000000000000000000000000CB0100082C
:1001000000000000CB010008CB010008CB01000873
:1001100000000000000000000000000000000000DF
:10012000CB010008CB010008CB010008CB0100087F
:10013000CB010008000000000000000000000000EB
:10014000000000000000000000000000CB010008DB
:10015000CB010008CB010008CB010008CB0100084F
:10016000CB010008CB0100080000000000000000E7
:10017000000000000000000000000000000000007F
:1001800000000000CB01000800000000000000009B
:10019000CB010008CB010008DFF810D000F0A4FB71
:1001A0000048004799B70008AFF30080001E002008
:1001B0000648804706480047FEE7FEE7FEE7FEE701
:1001C000FEE7FEE7FEE7FEE7FEE7FEE7951E000816
:1001D000990100082DE9F05F0546002092469B46F4
:1001E00088460646814640241BE02846414647464D
:1001F000224600F020F853465A46C01A914110D3C7
:1002000011461846224600F069FA2D1A67EB0108DC
:100210004F4622460120002100F060FA17EB00094A
:100220004E41201EA4F10104DFDC484631462A4637
:100230004346BDE8F09F202A04DB203A21FA02F071
:100240000021704721FA02F3D040C2F12002914010
:1002500008431946704740EA01039B0703D009E0B1
:1002600008C9121F08C0042AFAD203E011F8013BA2
:1002700000F8013B521EF9D27047D2B201E000F8FB
:10028000012B491EFBD270470022F6E710B513463A
:100290000A4604461946FFF7F0FF204610BD2DE937
:1002A000FE4F804681EA0300C00F0C46009021F00B
:1002B000004123F00045B8EB0200A94105D24046B9
:1002C000214690461C460B46024623F00040104350
:1002D00047D0270DC7F30A00C3F30A510290401A12
:1002E000019040286BDAC3F3130040F4801B0098A0
:1002F000924620B10023D2EB030A63EB0B0B01986B
:100300005946C0F14002504600F0E8F906460D4655
:1003100050465946019A00F0F0F910EB080061418F
:10032000002487EA115284EAE7731A4340D0009A06
:1003300062B3019A012A4FEA075215DC001B61EBF8
:1003400002014FF0004202EA0752CDE90042001CD0
:1003500041F5801132462B4600F05FFA03B0BDE84C
:10036000F08F40462146F9E7001B61EB0201001CBB
:1003700041F5801300185B412018A2F5001747EBE8
:10038000030140EAD570B6196D4111E06D084FEADE
:10039000360645EAC0754FEA0752001B61EB0201C1
:1003A000001C41F5801149084FEA30000019514105
:1003B00032462B4603B0BDE8F04F00F01FBA00985C
:1003C000012240000023D0EB020263EBE0730098AF
:1003D00021464FEAE074B8EB000061EB0401E9E765
:1003E00083F000435BE781F0004158E72DE9FE4FC1
:1003F00081EA030404F0004421F0004100944FF02E
:10040000000B23F0004350EA01045ED052EA0304DB
:100410005BD0C3F30A54C1F30A552C44A4F2F3345D
:100420000194A0FB0254C1F3130141F48011C3F302
:10043000130343F4801301FB024400FB034E840AC0
:10044000970A44EA815447EA8357A4FB0768029558
:100450008D0A05FB07854FEA932C04FB0C542705F6
:10046000029D4FEA065847EA1637B5EB08056EEBD2
:10047000070C870E920E47EA811742EA8312A7FB08
:100480000201B6EB0B0164EB00042B0D43EA0C33C5
:100490005E1844EB1C50DA465146E7FB0201C5F3F7
:1004A00013044FEA0B3343EA14534FEA0432019C1E
:1004B00043EA0603A4F10C040294009CCDE900B4C5
:1004C00000F0ABF903B0BDE8F08F00200146F9E77A
:1004D0002DE9F04D81EA030404F0004B21F00045C2
:1004E00014464FF0000A23F0004150EA050220D0E4
:1004F00054EA01021DD0C5F30A570246C5F313039F
:10050000C1F31300C1F30A5640F4801543F480137D
:10051000A7EB0608101BD64608F2FD3873EB050062
:1005200002D308F1010801E092185B41B8F1000F15
:1005300003DA00200146BDE8F08D00204FF4801161
:10054000064684460EE0171B73EB050705D3121B06
:1005500063EB050306434CEA010C49084FEA3000FF
:1005600092185B4150EA0107EDD152EA030012D024
:1005700082EA040083EA0501084305D0101BAB4161
:1005800006D20122002306E000224FF0004302E0E1
:100590006FF0010253101AEB06004CEB085110EB00
:1005A0000A0041EB0B01BDE8F04D00F027B90EB594
:1005B00040F2334102910021CDE900110A460B4679
:1005C00000F02BF903B000BD0EB540F233420292A9
:1005D0000022CDE90022134600F01FF903B000BD50
:1005E00070B5C1F30A5201F000450024C1F31301B4
:1005F00040F2FF3341F480119A4201DA002070BDCD
:1006000040F233439A42A2F2334203DC5242FFF7F4
:1006100012FE00E090402C43F1D0404270BDC1F387
:100620000A5210B5C1F3130140F2FF3341F48011B7
:100630009A4201DA002010BD40F233439A42A2F2FE
:10064000334203DC5242FFF7F6FD10BD904010BD6F
:10065000C1F30A52C1F3130140F2FF3341F4801198
:100660009A4202DA00200146704740F233439A4230
:10067000A2F2334202DC5242FFF7DDBD00F02EB899
:1006800030B5041E71F1000404DB4FF00044404219
:1006900064EB0101141E73F1000405DB1C464FF0EE
:1006A0000043524263EB04038B4208BF824230BDD9
:1006B00030B50B46014600202022012409E021FA32
:1006C00002F59D4205D303FA02F5491B04FA02F52F
:1006D0002844151EA2F10102F1DC30BD202A04DB02
:1006E000203A00FA02F1002070479140C2F1200345
:1006F00020FA03F3194390407047202A06DBCB17FA
:10070000203A41FA02F043EAE07306E041FA02F3CC
:10071000D040C2F120029140084319467047426818
:1007200042B1016811F8013B23B1521EC0E9001229
:10073000184670470121C160881E704742685AB14F
:10074000C368016843B983688B4205D0491E521CB7
:10075000C0E90012002070474FF0FF3070470000E2
:100760000FB4002300B589B00CA900910B996FF06C
:100770000042CB601E4B06931E4B07930423CDE92A
:1007800001321D4A089202466B46002000F058F9DB
:1007900009B05DF814FB70B586B006464FF0FF3027
:1007A0000091CDE90101002015460C460490324627
:1007B000694604A8FFF7D4FF02460498211825B122
:1007C00008B1084600E020462860049800280DD0B3
:1007D000002A02DD0098884208D0081B0094CDE969
:1007E00001043246694604A8FFF7BAFF06B070BD9F
:1007F0001F0700083D0700080D09000810B5141E6A
:1008000073F1000408DA401C41F1000192185B41C9
:100810001A4301D120F0010010BD2DE9F04D9246A0
:100820009B4611B1B1FA81F202E0B0FA80F22032B7
:100830009046FFF753FF04460F4640EA0A0041EA9C
:100840000B0153465A46084313D0114653EA0100A0
:1008500019D0C8F140025046FFF7EDFC05460E46A0
:10086000504659464246FFF739FF084305D001205C
:1008700004E020463946BDE8F08D0020054346EAF5
:10088000E0762C4337430A986305E40AA0EB08009E
:100890000022FD0A44EA47540A3002D500200146EE
:1008A000E9E7010510196941DDE9084500196941C9
:1008B000BDE8F04DA2E7000030B5041E71F1000460
:1008C00004DB4FF00044404264EB0101141E73F15D
:1008D000000405DB1C464FF00043524263EB040367
:1008E000994208BF904230BD064C074D06E0E068D3
:1008F00040F0010394E8070098471034AC42F6D367
:10090000FFF74EFCC0F50008E0F50008C0B24FF458
:10091000F05100F0B1B900002DE9FF4F087883B025
:100920009946FF2805D0491C2D2804D0002400201A
:1009300008E000200BE00124F9E700EB800003EB66
:100940004000491C0B78FF2BF7D104B14042002333
:100950000293147819461D462D2C01D02B2C04D15E
:10096000521C2D2C13D000240294AA461478FF2C7C
:100970000FD00A25A3FB057801FB05814FF0000C81
:1009800003FB0C11521CE3194AEB0101EEE70124B1
:10099000EAE7814453EA010002D019F5C87F06DA7C
:1009A00003980021C0E9001107B0BDE8F08F0025D1
:1009B000AE4E2F46DFF8B8821846FFF705FECDE9A8
:1009C0000001B9F1000002DAC9F1000400E00446B8
:1009D0000023A74A1AEB030B42EB045A12E0E0078C
:1009E00007D02A46334638464146FFF7FFFC074604
:1009F00088462A46334610461946FFF7F7FC054657
:100A00000E466410002CEAD1DDE90001B9F1000FB7
:100A10005A46534606DAFFF75BFD3A464346FFF770
:100A200057FD05E0FFF7E2FC3A464346FFF7DEFCE0
:100A3000029A0AB181F00041039AC2E90001B3E7CA
:100A40002DE9FF4F1F468DB0D7E901464FF0FF3823
:100A50002E2045464FF000090B90B9696D1C0E9889
:100A60008847396A824688470028F6D1BAF1FF3FA5
:100A70000AD024F4D064002E11DDBAF12B0F08D077
:100A8000BAF12D0F0BD102E0404611B08DE744F4CE
:100A90008064B9696D1C0E9888478246761E694647
:100AA000600501D52D2000E02B208DF8000001F11C
:100AB000010B0DF1200809E0B9696D1C0E988847FB
:100AC00082460F9844F40074761E0560002E02DD05
:100AD000BAF1300FF0D00B998A453ED144F0800432
:100AE00006E00F99681CA9F1010944F4007408603C
:100AF000B9696D1C761E0E98884782463028F0D062
:100B00002BE00B998A4505D1200603D444F08004DC
:100B1000761E18E0504601F051FC08B30DF11301A8
:100B2000761E44F400748B4508D2AAF130000BF80D
:100B3000010B200607D5A9F1010003E0200602D42D
:100B400009F101008146A00502D50F99681C0860D3
:100B5000B9696D1C0E9888478246002ED1DC53E09F
:100B6000002E51DDBAF1650F02D0BAF1450F4BD11D
:100B7000A00549D5B9696D1C24F44074761E0E9801
:100B800088478246002E0CDD2B2804D0BAF12D0FA9
:100B900007D144F48074B9696D1C0E988847824669
:100BA000761EE00501D52D2100E02B2108F8011B60
:100BB000CDF82C8021E00DF12901761E44F400745B
:100BC00088450CD2AAF1300010F0FF0088F8000030
:100BD00002D10B99884509D908F1010806E0E00522
:100BE00001D5244801E042F20F708146B9696D1CBD
:100BF0000E98884782460F980560002E04DD504607
:100C000001F0DCFB0028D6D1F9690E988847FF2057
:100C10008BF8000088F800000020069007904B46F3
:100C20006A4608A906A8FFF777FEA00502D46FF070
:100C300001002AE714F0240F0AD0E00714D1DDE9FF
:100C400006123868031D3B600068C0E900120BE023
:100C5000DDE9060100F024F80146E00704D1386818
:100C6000021D3A600068016028460EE7000014404B
:100C70000000F03FF1D8FFFF7F2801D9002208E0F3
:100C8000064A02EB5002C007127800D1120902F0A6
:100C90000F020120904008407047000011E9000851
:100CA00001F0004330B421F0004150EA010206D0C7
:100CB0000A0DA2F56072C1F31301002A02DC30BCF8
:100CC00000207047440F44EAC104C100E01830BC62
:100CD00000EBC250AFF300800029A8BF7047401C52
:100CE000490008BF20F00100704710B4B0FA80FC42
:100CF00000FA0CF050EA010404BF10BC704749B17F
:100D0000CCF1200421FA04F411FA0CF118BF0121EE
:100D100021430843A3EB0C01CB1D4FEA00614FEACE
:100D2000102042BF002010BC704700EBC35010449D
:100D30000029A4BF10BC7047401C490008BF20F028
:100D4000010010BC704770B58D1810F8014B14F0FD
:100D5000030201D110F8012B231106D110F8013B39
:100D600003E010F8016B01F8016B521EF9D1ABB131
:100D700010F8012B04F00C048A1A0C2C03D0A2EBFF
:100D800084129B1C08E010F8014BA2EB0422F8E748
:100D900012F8014B01F8014B5B1EF9D5A942D4D3DF
:100DA000002070BDFEE77047704772B6FEE7000096
:100DB00070B5044600F010F90546601C02D00448E6
:100DC0000078044400F008F9401BA042FAD370BD3B
:100DD000700400202DE9F84FDFF8B8A100220124AB
:100DE00003254FF00F090AF1040BAAF1040E00BF0E
:100DF0000B6804FA02F63340B34273D10F7907F05F
:100E00000307012F01D0022F16D187684FEA42084D
:100E100005FA08FC27EA0C07D1F80CC00CFA08FC0C
:100E20004CEA070CC0F808C04768B7430E79C6F310
:100E3000001696403E4346600E79F643B6070DD045
:100E4000C768560005FA06FC27EA0C07D1F808C067
:100E50000CFA06FC4CEA070CC0F80CC00E7906F040
:100E60000306022E10D1D60800EB8608D8F82060C1
:100E700057074FEAD76C09FA0CF7BE430F6907FA18
:100E80000CF73743C8F8207006684FEA420C05FAA1
:100E90000CF7BE430F7907F0030707FA0CF7374347
:100EA00007604E6816F4403F6DD03B4E376847F4FC
:100EB00080473760366822F0030706F480460096C4
:100EC000364E07EB060CDCF8086897073F0F09FA67
:100ED00007F826EA0806DFF8C880404503D14FF03E
:100EE00000081EE04FE0DFF8BC80404502D14FF023
:100EF000010816E0DFF8B080404502D14FF002084B
:100F00000FE0DFF8A880404502D14FF0030808E069
:100F1000DFF89C80404502D14FF0040801E04FF01B
:100F2000070808FA07F848EA0608CCF80888DAF84B
:100F300000605746D1F804C09E435FEACC2C00D530
:100F40001E433E60DBF800605F46D1F804C09E435C
:100F50005FEA8C2C00D51E433E60DEF800607746C9
:100F6000D1F804C09E435FEA8C3C00D51E433E602E
:100F7000084F083F3E68D1F804C09E435FEACC3C6E
:100F800000D51E433E60521C102AFFF431AFBDE86D
:100F9000F88F0000083C0140443802400030014016
:100FA000000002400004024000080240000C024021
:100FB000001002400069084000D0012070474269DB
:100FC00021EA02030A4043EA0241816170470AB103
:100FD000816170470904FBE70148806870470000A1
:100FE00070040020024881680278114481607047D3
:100FF000700400200B4810B5016841F400710160D5
:10100000016841F480610160016841F48071016010
:10101000032000F061F8012000F006F800F024F849
:10102000002010BD003C024070B50D4D04464FF449
:101030007A712878B1FBF0F00A490968B1FBF0F049
:1010400000F092FB48B9102C07D200222146501E16
:1010500000F022F800206C6070BD012070BD00001F
:10106000700400207C0400200A4808B5016841F49F
:1010700080410160006800F4804000900548001F36
:10108000016841F080510160006800F080500090DC
:1010900008BD000044380240F0B40E4B1B680C46FB
:1010A000C3F30223C3F10705042D00D90425191D3C
:1010B000072901D2002300E0DB1E012606FA05F114
:1010C000491E214099409E40761E16403143F0BC97
:1010D00000F0BCBF0CED00E0064900F00702086814
:1010E0004FF6FF03184040EA0220034A104308600D
:1010F000704700000CED00E00000FA052DE9F04714
:101100000E46050065D0DFF81481D8F80000F7B26C
:1011100000F00700B04207D288F80070D8F800004D
:1011200000F00700B04254D128683D4C810712D529
:10113000400703D5206840F4E0502060287800077D
:1011400003D5206840F4604020602068A96820F042
:10115000F000084320602878C0072DD03049686827
:101160000839012812D0022813D0032811D00968A9
:10117000890700292DDA216821F00301014321604C
:10118000FFF72AFF814641F2883A0EE00968890399
:10119000EFE709688901ECE7FFF71EFFA0EB090103
:1011A000514502D90320BDE8F0872068696800F046
:1011B0000C00B0EB810FEFD1D8F80010404601F0E1
:1011C0000701B14207D90770006800F00700B0427C
:1011D00001D00120E7E72878400705D52068E968B5
:1011E00020F4E050084320602878000706D52068E6
:1011F000296920F4604040EAC100206000F038F81E
:101200002168084AC1F30311515CC84006490860CF
:1012100006480068FFF708FF0020C4E7003C0240D2
:10122000083802401ACC00087C0400207404002016
:101230000448054900680968044AC1F38221515CE9
:10124000C84070477C040020083802402ACC0008BF
:101250000448054900680968044AC1F34231515CF9
:10126000C84070477C040020083802402ACC00089F
:10127000154810B5006810F00C02144813D014493A
:10128000042A0FD0082A0ED10F4C241F226823688D
:1012900002F03F025B0207D52068C0F38810A0FB74
:1012A000010106E0084610BD2168C1F38811A1FBC9
:1012B00000010023FEF78EFF2168C1F30141491CA4
:1012C0004900B0FBF1F010BD083802400024F400E2
:1012D00040787D012DE9F84F04006ED02078DFF8CA
:1012E0004C93C007A9F104054AD009F10400016834
:1012F000C1F38101012908D00068C0F381000228F0
:101300000AD1D9F80000400206D52868800337D5F5
:1013100060680028E1D033E06068B0F5803F10D00D
:10132000B0F5A02F286810D020F4803028602868FD
:1013300020F4802028606068A8B1FFF74DFE0646C3
:101340000DE0286840F48030F4E740F48020286005
:10135000F7E700BFFFF740FE801B642873D82868BA
:101360008003F7D50CE0FFF737FE064605E000BF27
:10137000FFF732FE801B6428F0D828688003F7D47A
:101380002078DFF8AC8280074FF0000A3ED5A748EE
:10139000001D016811F00C0F08D00068C0F3810037
:1013A00002280BD1D9F80000400207D42868800732
:1013B00016D5E068012800D112E033E1E068B8B149
:1013C0000120C8F80000FFF707FE064605E000BF51
:1013D000FFF702FE801B0228C0D828688007F7D5D7
:1013E0002868216920F0F80040EAC10028600DE07B
:1013F000C8F800A0FFF7F0FD064604E0FFF7ECFD9B
:10140000801B02281FD828688007F7D4207800079F
:1014100022D5864F87486169703771B1012101601B
:10142000FFF7DAFD064604E0FFF7D6FD801B022831
:1014300009D838688007F7D50EE0C0F800A0FFF79C
:10144000CBFD064605E082E0FFF7C6FD801B0228C3
:101450007DD838688007F7D42078400768D5DFF852
:10146000CCB100270BF13C0BDBF80000C0000BD423
:10147000DBF8001041F08051CBF80010DBF80000E1
:10148000012700F0805000906B4E3068C00510D4EA
:10149000306840F480703060FFF79EFD009005E0FA
:1014A000FFF79AFD0099401A022850D83068C0050D
:1014B000F6D55E4EA0686C3601280FD0052830683E
:1014C00010D020F001003060306820F0040030605F
:1014D000A068B8B1FFF780FD00900FE0306840F0E1
:1014E0000100F4E740F004003060F7E7FFF774FD17
:1014F0000099411A41F28830814266D830688007ED
:10150000F4D50EE0FFF768FD009007E0FFF764FDFB
:101510000099411A41F28830814256D830688007DC
:10152000F4D42FB1DBF8001021F08051CBF800107B
:10153000A069C8B33D49091D0968C1F381010229A9
:101540004AD00228504607D0C8F8600000E03CE0CE
:10155000FFF742FD04463BE04746C8F86000FFF74E
:101560003BFD064605E000BFFFF736FD801B022865
:101570002BD828688001F7D4D4E907010843A16A71
:101580002E4A490802EB0141626A41EA821108438E
:1015900094F82C1040EA0161C9F800100120386667
:1015A000FFF71AFD044606E03EE000BFFFF714FD1A
:1015B000001B022809D828688001F7D534E000BF55
:1015C000FFF70AFD001B022802D90320BDE8F88FAF
:1015D00028688001F4D427E00128F7D0D9F800006A
:1015E000E26900F4800191421CD1226A00F03F01BF
:1015F000914217D147F6C071626A0140B1EB821F78
:1016000010D1A26A4FF0FF3300F4403103EB5202D5
:10161000B1EB024F06D194F82C1000F07060B0EBE3
:10162000016F01D00120D1E70020CFE7043802404C
:1016300000004742800E4742007000400000FFFF5C
:1016400070B5040009D0606A002540B1256165616C
:10165000A56294F8510040B10CE0012070BD6068B3
:10166000B0F5827FF4D0E561F2E784F8505020466F
:1016700000F044F8022084F851002068016821F04D
:1016800040010160A088218900F4827001F40441C6
:101690000843A18901F400610843217C01F00201A3
:1016A0000843217D01F001010843218B01F4007101
:1016B0000843217F01F03801084394F8201001F01D
:1016C00080010843218D01F400510843216808601E
:1016D000A069042101EA104094F8241001F01001DF
:1016E0000843216848602068C16921F40061C16134
:1016F0006565012084F85100002070BD10B586B0EA
:10170000044614216846FEF7BFFD1449206888424C
:1017100021D113480021026842F48042026000682F
:1017200000F4804005900E481038026842F0020232
:101730000260006800F0020005904FF44440009001
:101740000220CDE9010103200390052004906946A1
:101750000448FFF73FFB06B010BD00000038004012
:10176000403802400004024010B5401EB0F1807FB6
:1017700001D3012010BD4FF0E02460610F216017FC
:1017800000F064FC0020A06107202061002010BD53
:1017900070B5040004D094F83D00002510B106E0B7
:1017A000012070BD84F83C50204600F023F824202E
:1017B00084F83D002068C16821F40051C1602046D2
:1017C00000F070FB2068016921F4904101612068FC
:1017D000416921F02A0141612068C16841F400514A
:1017E000C1602564202084F83D0084F83E0000207C
:1017F00070BD000010B586B0044614216846FEF79F
:1018000043FD13492068884220D112480021026814
:1018100042F010020260006800F0100005900D48D0
:101820001438026842F002020260006800F0020010
:101830000590482000900220CDE90101032003908B
:101840000720049069460448FFF7C4FA06B010BDAB
:101850000010014044380240000402402DE9F84FD6
:10186000044690F83E009A4616460D46202853D16D
:10187000FDB1F6B194F83C0001284DD0012084F868
:101880003C0000272764222084F83E002763FFF7EE
:10189000A3FBA6858146E685A0684FF480584045A5
:1018A00001D1206940B12E465FF0000584F83C70FC
:1018B00027E00120BDE8F88F0026F7E74B4600221D
:1018C00020212046CDF800A000F072FB08B10320D3
:1018D000F0E726B1A06840451BD038B108E0206889
:1018E0004068C0F3080025F8020B07E0206980B1CA
:1018F0002068406800F07F0006F8010BE08D401E74
:10190000E085E08D0028D9D1202084F83E00002019
:10191000D0E720684068EFE70220CBE72DE9F843E5
:10192000044690F83D001F4616460D4620284CD12F
:10193000C5B1BEB194F83C00012846D0012084F81E
:101940003C004FF00008C4F84080212084F83D009E
:10195000FFF742FBA6848146E684A068B0F5805F6D
:1019600003D004E00120BDE8F883206928B12E46A9
:101970005FF0000584F83C800EE00026FAE7802145
:10198000204600F015FBA0B9AEB116F8010B216896
:101990004860E08C401EE084E08C4B464FF0000233
:1019A00000970028EBD14FF04001204600F000FBEB
:1019B00030B10320D7E735F8020BC0F30800E6E7A3
:1019C000202084F83D000020CDE70220CBE7FEE791
:1019D0002DE9F04186B014216846FEF755FC2C48ED
:1019E0000024016841F004010160016801F0040174
:1019F0000591016841F080010160016801F08001FA
:101A00000591016841F001010160016801F00101E7
:101A10000591016841F00201016000681D4F00F06E
:101A200002004FF400550590002229463846FFF782
:101A3000CEFADFF86480AE10002231464046FFF750
:101A4000C6FA00950125CDE901546946384603944C
:101A5000FFF7C0F941F2FF40CDE900046946404676
:101A60000294FFF7B7F92802CDE9000402200290A2
:101A700069464046FFF7AEF90096CDE90154694644
:101A800040460394FFF7A6F906B0BDE8F0810000D8
:101A90003038024000080240000002400F4810B5F4
:101AA0000D4901604FF48271416000218160C16085
:101AB0004FF400720161C0E90512C1610162416227
:101AC00081620A21C162FFF7BBFD002803D0BDE897
:101AD0001040FFF76AB910BD0038004070080020C0
:101AE0000C4810B50A4901604FF4E1314160002112
:101AF00081600C22C160C0E904128161C161FFF7FD
:101B000047FE002803D0BDE81040FFF74EB910BDD6
:101B100000100140C8080020FEE7FEE77047000003
:101B20002DE9F05F4FF000091B4D01224C464F4656
:101B3000D1022846FFF74BFA184EA8464FF4806AA8
:101B40004FF4805B17E051464046FFF733FA0546F5
:101B500059464046FFF72EFA012D09D147B938B151
:101B600000F01EF8E1008840641C40EA0909E4B274
:101B70002F46032C01D2761EE5D200224FF40061DD
:101B80004046FFF724FA032C03D06FF07F40BDE8F6
:101B9000F09F4846FBE7000000000240A0860100DD
:101BA00001480069C0B2704700000240704708B5A4
:101BB0000220ADF80000BDF80000411EADF8001095
:101BC000F9D208BD2DE9F04387B0044614216846D8
:101BD000FEF75AFB2C482D4900250470086840F098
:101BE00002000860086800F002000590086840F0F4
:101BF00002000860086800F002000590086840F0E4
:101C000002000860086800F002000590086840F0D3
:101C10000200086008684FF4806900F00200059037
:101C200002200126CDE90250DFF86480CDE900965C
:101C300069464046FFF7CEF8F003009069464046FB
:101C4000FFF7C8F8B003CDE90005694640460295A4
:101C5000FFF7C0F877030097CDE901656946404674
:101C6000FFF7B8F8012239464046FFF7B0F94CB10A
:101C7000012C07D0012249464046FFF7A8F907B0DA
:101C8000BDE8F0830022F6E7150800203038024056
:101C9000000402402DE9F041DFF834800D4606468D
:101CA0004FF40057002239464046FFF790F90024D0
:101CB00005E0FF2000F030F83055641CA4B2AC42BF
:101CC000F7D339464046BDE8F0410122FFF77FB91E
:101CD000000402402DE9F047DFF8389016460D4623
:101CE00007464FF40058002241464846FFF76FF977
:101CF000002406E0385D00F00FF805B12855641C9B
:101D0000A4B2B442F6D341464846BDE8F0470122AA
:101D1000FFF75DB9000402402DE9F05F0024364D65
:101D2000DFF8D880064627464FF400494FF4806A12
:101D30004FF4804B287860B102280AD0012833D0B4
:101D4000002251464046FFF742F930062ED50122C7
:101D50002DE0300601D5012200E000224946404630
:101D6000FFF735F97006060EFFF721FF2878B8B1A6
:101D7000002251464046FFF72AF9FFF718FF600698
:101D8000040E59464046FFF715F908B144F0010426
:101D9000287838B1012251464046FFF718F921E072
:101DA0000122E6E70022F6E70122CAE700224946BF
:101DB0004046FFF70CF97006060EFFF7F8FE28788C
:101DC000012816D0012251464046FFF700F9FFF7DF
:101DD000EEFE6006040E59464046FFF7EBF808B1E8
:101DE00044F001047F1CFFB2082FA3D32046BDE8B6
:101DF000F09F0022E7E700001508002000040240E1
:101E0000FFF7F0B830B593B030216846FEF73CFAE2
:101E100014210CA8FEF738FA1C480025016841F08F
:101E200080510160006800F08050119018480168EE
:101E300041F4404101600068022400F440401190E8
:101E400001200090000401908001CDE906400C20A3
:101E500008906020CDE9090404200B906846FFF744
:101E600039FA08B172B6FEE70CA90F2081E83100FB
:101E70004FF48050CDE90F0503210CA8FFF73EF980
:101E8000002801D072B6FEE713B030BD40380240E2
:101E9000007000400248016841F470010160704721
:101EA00088ED00E070B5044600680169E26821F43D
:101EB0004051114301612169A068E26908436169E9
:101EC000114308432168CA6849F20C639A430243EC
:101ED000CA6020684169A26921F4407111434161DF
:101EE00031492068884202D03049884202D1FFF748
:101EF000AFF901E0FFF79CF9E2690023192164259D
:101F00003226B2F5004F626828D0A0FB0101930F82
:101F10009200FEF75FF90146B0FBF5F06FF0180292
:101F2000504301EB800006EB0010B0FBF5F000F031
:101F3000F002B1FBF5F002EB0012B1FBF5F06FF02F
:101F40001803584301EB800006EB0010B0FBF5F0DE
:101F500000F00F0021681044886070BDA0FB0101F3
:101F600092185B41FEF736F90146B0FBF5F002012D
:101F7000B1FBF5F06FF01803584301EB800006EB5E
:101F8000C000B0FBF5F000F0F80002EB4002B1FB3E
:101F9000F5F0584301EB800006EBC000B0FBF5F014
:101FA00000F00700D6E700000010014000140140D7
:101FB0002DE9F041984617460E460446069D27E057
:101FC000681C25D02DB1FFF707F8A0EB0800A84248
:101FD0001ED920680C3050E8001F21F4D07140E871
:101FE0000012002AF5D12068143050E8001F21F0BB
:101FF000010140E80012002AF5D1202084F83D00BC
:1020000084F83E00002084F83C000320BDE8F08105
:102010002068006836EA000004D00020B842CFD023
:102020000020F3E70120F9E7FEE700000FB4054BBD
:1020300010B503A9044A029800F0C8F910BC5DF875
:1020400014FB0000A1B00008180800200907090EC1
:10205000002804DB00F1E02080F80014704700F055
:102060000F0000F1E02080F8141D704738B51D46C0
:1020700014000BD001236A4607F038FA002804DB6D
:102080009DF800002040E840C0B238BD6FF0150058
:1020900038BD2DE9F8431E46089D14000F468046C2
:1020A00014D001236A4607F021FA00280CDB9DF8C2
:1020B0000000B540A04325400543EAB28DF800205A
:1020C0003946404607F042FABDE8F8836FF0150044
:1020D000FAE770B5044602F0030060F35F110A46A8
:1020E0001E46049DA021606807F030FA06F0030642
:1020F00046F07C02A121606807F028FA46F07802D9
:10210000A121606807F022FA1021204605F038FB73
:1021100000280DDB5DB1D4F8C000C06A022808D0E9
:10212000A721606807F0D8F900F0030028700020AC
:1021300070BDA821F5E700002DE9F04155081346D0
:1021400004464E080A461A491AA0FFF76FFF1CA062
:10215000FFF76CFF2046A16E08F05CFB07460246C5
:102160003146204605F0B4FE00281EDB3A462946DB
:10217000204607F0DDFB002817DB3146204605F03E
:1021800047FF002811DB2946204607F035FC0028D0
:102190000BDB2046E16E08F03DFB02463946204647
:1021A00005F018FB002800DB0020BDE8F0810000EE
:1021B000F8E3000825733A202575202575000000F6
:1021C0000A0000000000000030B583B0044600F0B3
:1021D00017F89FED090B05468DED000B00222146F7
:1021E0006846FEF7D8FA284600F020F89DED000B6F
:1021F00003B030BD0000000000000000000000003F
:1022000001480068704700002408002002E008C868
:10221000121F08C1002AFAD170477047002001E060
:1022200001C1121F002AFBD170470000014908605C
:1022300070470000240800202DE9FF5F82B00021D4
:10224000DDE90430020DDDF840B0034318D044F658
:102250001050A2F2FF3242431514119801281FD0EA
:10226000A5EB0B00401C5FEA000A4FF000064E4F42
:10227000DFF83891B046504615D5CAF1000413E096
:10228000119801244AA3012801D16FEA0B01029899
:10229000119AC0E90031C0E9024206B0BDE8F09FE2
:1022A000CBF10000DFE704460021404A491842EB29
:1022B0000450CDE9001012E0E00707D032463B465B
:1022C00040464946FEF792F88046894632463B46EC
:1022D00010461946FEF78AF806460F466410002C91
:1022E000EAD1DDE90401DDE90023BAF1000F06DAE5
:1022F000FEF77CF842464B46FEF778F805E0FEF71D
:10230000E7F842464B46FEF7E3F804460E46002245
:10231000284BFEF7D1FA03D84FF0FF30014607E013
:102320000022254B20463146FDF7B9FFFEF790F914
:10233000102409E0002C0ADB0A220023FDF74AFFE3
:10234000039B30321A55641E50EA0102F2D1641C1C
:10235000039AC4F111031444119A012A03D00122F3
:1023600008430DD10AE0084304D000204FF0110BC0
:10237000119072E7A3EB0B056D1E0DE05B4504DDCC
:102380004FF0000205F1010504E003DA4FF000020E
:10239000A5F10105002AECD002981199C0E902319B
:1023A000C0E9004579E70000000014400000F03F5C
:1023B000300000000000F0430000E03F30380A2801
:1023C00001D2012070470020704700002DE9FF4F27
:1023D00095B09A46884606460025EEE1252877D135
:1023E00000242746F94A0121039400E0044316F82B
:1023F000013F203B01FA03F01042F7D130782A2840
:1024000011D06FF02F033078A0F13002092A16D8CE
:10241000039A44F0020402EB820203EB42021044EE
:10242000761C0390EFE758F8042B0392002A03DA96
:10243000504244F40054039044F00204761C307877
:102440002E2816D116F8010F44F004042A280DD0C6
:102450006FF02F023078A0F13003092B09D807EB79
:10246000870302EB4303C718761CF3E758F8047B95
:10247000761C30786C280FD006DC4C2817D06828E2
:102480000DD06A2814D104E0742810D07A280FD116
:102490000DE044F400140AE044F4801401E044F434
:1024A00040147278824202D104F58014761C761CA6
:1024B000307866280BD013DC582877D009DC002848
:1024C00075D04528F6D04628F4D047281AD193E194
:1024D00018E0632835D0642879D0652812D18BE1C3
:1024E000702873D008DC6728F1D069286FD06E2877
:1024F0000DD06F2806D1ACE073282CD0752874D08D
:10250000782853D05246179990476D1C54E1C4F374
:102510000250022809D003280DD0D8F80010042852
:102520000DD00D6008F1040846E1D8F80010EA1754
:10253000C1E90052F6E7D8F800100D80F2E70D70FF
:10254000F0E718F8041B8DF8001000208DF801004A
:10255000EB46012003E058F804BB4FF0FF30610761
:102560004FF0000102D40DE009F101018946B942A2
:102570000FDA8145F8DB1BF809100029F4D108E0D7
:1025800009F1010189468142FADB1BF80910002993
:10259000F6D103985346A0EB090721463846179A0F
:1025A00000F080FA284400EB090507E044E008E168
:1025B0000DE01BF8010B524617999047B9F101093C
:1025C000F7D2534621463846179AF2E039E00A21FD
:1025D000C4F302524FF0000B0091022A06D058F8C3
:1025E000040BC117032A09D00AE023E008F1070011
:1025F00020F00702F2E80201904605E000B2C117A0
:10260000042A01D140B2C117002906DA0A46002186
:10261000404261EB02012D2202E0220504D52B226B
:102620008DF80420012203E0E20701D02022F7E721
:10263000914657E00A2100E010214FF0000B009175
:102640000BE010214FF0000B44F004040827009128
:1026500003E008204FF0000B0090C4F30252022A5E
:1026600005D058F8040B0021032A08D008E008F12F
:10267000070020F00702F2E80201904603E080B272
:10268000042A00D1C0B24FF0000922072AD53278BF
:10269000702A07D0DDF800C08CF0100C5CEA0B0C3F
:1026A00005D00EE040228DF80420012208E050EA17
:1026B000010306D030238DF804308DF80520022266
:1026C0009146009B83F0080353EA0B030AD150EABA
:1026D000010201D1620705D530228DF804204FF0A8
:1026E00001097F1E3278582A04D039A20C920CAA14
:1026F00002920BE03BA2F9E75B46009AFDF76AFD08
:102700000C9B9B5C029A521E0292137050EA0102CB
:10271000F2D1029804A9081A00F1200B600702D533
:1027200024F4803400E001275F4502DDA7EB0B00B5
:1027300000E0002000EB0B01009003984944401A90
:102740000390E00306D453462146179A039800F0FD
:10275000A9F90544002706E001A85246C05D179973
:1027600090476D1C7F1C4F45F6DBE0030CD55346AC
:102770002146179A039800F095F9054404E03020AB
:102780005246179990476D1C0099481E00900029E9
:10279000F5DC08E00298029952460078491C029143
:1027A000179990476D1CBBF10001ABF1010BF1DCF7
:1027B0005BE100F065F90544761C307800287FF471
:1027C0000DAE19B02846BDE8F08F000009280100C1
:1027D0003031323334353637383961626364656697
:1027E0000000000030313233343536373839414259
:1027F0004344454600000000600700D4062708F166
:10280000070020F00700F0E80223804603F0004CA8
:102810005FEA0C0001D097A009E0200501D596A041
:1028200005E0E00701D095A001E0AFF24C00139065
:10283000307823F0004365280CD006DC452809D009
:1028400046281DD047287FD13BE0662818D067284E
:102850007AD136E00021112F01DB112000E0781C35
:10286000CDE9000104A90CA8FFF7E6FCDDE90D01A4
:102870000C9A4FF0000B07F10109109200914EE005
:102880004FF000400097CDE9011004A90CA8FFF714
:10289000D3FCDDE90D020C9B0F994FF0000B914624
:1028A0001093009211B9791C00EB0109B7EB0900F4
:1028B00003D4C0F1FF3B07F10109A9EB0700019028
:1028C00042E0012F00DA01270021112F01DD112044
:1028D00000E03846CDE9000104A90CA8FFF7ACFCE4
:1028E000DDE90D010C9A00914FF0000BB9461092F2
:1028F00021070FD4009A4A4503DA914601E0A9F175
:102900000109B9F1010F05DD109AA9F10101515C2E
:102910003029F4D0B84202DA10F1040F03DA0121B1
:10292000CDE9011010E0002803DC8344A9EB00018D
:1029300002E0411C494500DD8946A0EB0B00401C2C
:1029400001904FF000400290200705D401984845BF
:1029500002DB4FF0FF30019000208DF84B00029811
:102960000DF14B07B0F1004F25D002200C902B2029
:102970000D90029800280CDA404202902D200D9014
:1029800007E00A210298FDF793FE3031029007F824
:10299000011D0C99481E0C900029F2DC02980028B9
:1029A000EFD1791E0D980870307800F0200040F0CB
:1029B000450007F8020D11A8C01BC01D0290139816
:1029C000007800B1012000EB0901019801EBE071F2
:1029D000029801440398401A401E0390E00306D475
:1029E00053462146179A039800F05CF80544139863
:1029F000007818B15246179990476D1CE00323D513
:102A000053462146179A039800F04CF805441BE002
:102A1000BBF1000F07DB0098584504DD10981799AB
:102A200010F80B0001E017993020524690470198AA
:102A30000BF1010B401E05F10105019004D12E2080
:102A40005246179990476D1CB9F10001A9F101098F
:102A5000DEDC05E017F8010B5246179990476D1C14
:102A60000299481E02900029F4DC53462146179A29
:102A700003989EE62D0000002B00000020000000BF
:102A80002DE9F041044600251E461746880404D46B
:102A900005E039462020B0476D1C641EF9D5284654
:102AA000BDE8F0812DE9F041044600251E46904620
:102AB000C80301D5302700E02027880404D505E0AD
:102AC00041463846B0476D1C641EF9D52846BDE81E
:102AD000F081D0F8C00003782BB909B1C06A00E0DA
:102AE000806A022801D010467047501C70470000D1
:102AF0002DE9F0410C4647681646204920A0FFF713
:102B000095FA20A0FFF792FA4FF47A70B6FBF0F036
:102B1000616894F90020484300F18050450F0B2173
:102B2000384606F013FD00220C21384606F00EFD53
:102B3000207B00B1012040EA45020D21384606F015
:102B400005FDA06808F08EFD00F007020F21384651
:102B500006F0FCFC20691C21B6FBF0F2384606F0BA
:102B6000F5FC606908F07EFD4007020F1D21384624
:102B700006F0ECFC0020BDE8F081000064E50008F0
:102B8000257300000A0000002DE9F843144613469F
:102B9000074688460A46D0F80490334933A0FFF729
:102BA00045FA37A0FFF742FA4FEA8870050E28462B
:102BB00008F05DFA034664B1002000902A46232104
:102BC0004846FFF766FA4FF49970844203DA0446E8
:102BD00004E00120F1E7B4F5EC6F0ADAA4F599708E
:102BE0004FF47A71484340F27C5190FBF1F5002696
:102BF00009E0A4F2E1604FF47A71484340F22C718D
:102C000090FBF1F50C2640F2FF30854200D215B161
:102C1000854200D30546B8F1010F06D0B8F1020F86
:102C200012D06FF01500BDE8F883AA0818214846B5
:102C300006F08CFC05F0030232431A21484606F0E8
:102C400085FCA7F89A410DE0AA081921484606F02C
:102C50007DFC05F0030232431B21484606F076FC5A
:102C6000A7F89C410020DEE73EE5000825732044DC
:102C700041432564203D202564206D56000000005E
:102C80000A000000F8B50C460646456829492A485E
:102C9000FFF7CCF92848001DFFF7C8F92288012169
:102CA0003046FFF771FF628802213046FFF76CFF64
:102CB000A079617A227A40EA41006179800741EA8D
:102CC0004201800E01F0030140EA8100E179A27A1D
:102CD00041EA420101F003010843C043C6B23F206C
:102CE00008F0C5F903463F22232128460096FFF746
:102CF000D0F9802008F0BBF90346207900908022AB
:102D000026212846FFF7C5F9E27A3021284606F049
:102D10001DFC227B3121284606F018FC627B322103
:102D2000284606F013FCA27B3321284606F00EFC51
:102D30000020F8BD50E50008C09100087FB50C46A2
:102D40000068042301AA442106F0D0FB9DF8070087
:102D50009DF80610000440EA01209DF805109DF83A
:102D600004500843A4FB0010CDE902104FF4FF12F9
:102D7000002302A808F070F9DDE90201E4FB050177
:102D8000CDE9020104B070BDF0B51D4885B015460F
:102D9000814233D84010814230D30024CDE902145F
:102DA000234602A82A6808F057F94FF4FF17A0FB42
:102DB000072CCDE9000101FB07C1002300FB031034
:102DC0002968029E490851186041CDE90010684603
:102DD0002A6808F041F9009829683A46A1FB0010DA
:102DE000CDE900100023684608F036F92868DDE9CF
:102DF0000012704340185441CDE9000405B0F0BD05
:102E000080113C552DE9F0430746D0F8009049A0C9
:102E100087B01446006813460D460A46019046499D
:102E200046A0FFF703F94EA0FFF700F9E809962145
:102E3000A0FB0110CDE90410E00942010026334651
:102E400004A808F009F9049819210C30B0FBF1F23C
:102E5000521E402A6BDA012A00DC01224621484634
:102E600006F074FB032301AA4A21484606F098FBAA
:102E7000E0224B21484606F069FB10224E214846CD
:102E800006F064FBCDE902562246002302A808F0B2
:102E9000E3F84FF4FF13A0FB03C8CDE9040101FBE5
:102EA0000381002200FB021061081CEB010170414C
:102EB000CDE90410029D2246002304A808F0CCF8B6
:102EC0002A4644214846049C06F040FB2246432102
:102ED000484606F03BFB220A4221484606F036FBF4
:102EE000220C4121484606F031FB05223F2148468D
:102EF00006F02CFB01223F21484606F027FB8622E4
:102F00004C21484606F022FB01224D21484606F09E
:102F10001DFB05224D21484606F018FB01238022A7
:102F20005E21786800F050FA07B0BDE8F0834022D7
:102F300094E70000355BE80054E7000825733A2069
:102F40005261746520257520487A20506172656E43
:102F500074205261746520257520487A00000000B5
:102F60000A0000002DE9F04104460E460A462149B8
:102F700021A0FFF75BF823A0FFF758F840F2F537E0
:102F80003946606806F0A8FA0546C4F8E4613EB127
:102F9000012E07D0022E22D06FF01500BDE8F0817F
:102FA00000211DE00021204602F03CFB01212046CB
:102FB00003F02BFA1221606806F08EFA410704D55F
:102FC000000702D545F0800001E025F0800040F0C8
:102FD000010239466068BDE8F04106F0B7BA012148
:102FE000204602F01FFB0021204603F00EFA25F0D8
:102FF0008102EEE779E2000825733A206D6F64657F
:10300000202564000A00000070B506460D460A46F9
:1030100000240D490DA0FFF709F80FA0FFF706F8EF
:1030200086F8E8513DB1012D02D0022D03D101E017
:10303000012400E0092422467068BDE870404FF486
:103040007D7106F083BA00008EE2000825733A20F5
:103050006D6F6465202564000A0000002DE9FF47BC
:1030600082B00EA9DDE9128691E83006DDE904237D
:1030700007F0D4FA002835D1421E04E04918404137
:10308000CDE90410521CDDE90410184F01237F1A0A
:103090008341F3D2C8F80020DDE90401C6E900014C
:1030A00022462B4604A807F0D7FF114ECDE90001B8
:1030B000A0FB062701FB0671002300FB0310690833
:1030C0004FEA3403D2184841CDE9002022462B466E
:1030D000684607F0C1FF0498C9F800000098CAF8D4
:1030E0000000002006B0BDE8F087000000BCA0652D
:1030F000F1FF7F002DE9FF4F91B00025012091469F
:103100006C1E0E909B462E462746DDF878801C22CA
:103110007C4906A8FDF79FF8119890F8540108B172
:10312000012002E0119890F892018246119890F8DF
:10313000550108B1012002E0119890F89001059026
:10314000B9F1010F04D0B9F1000F0BD06EA10AE064
:1031500012990AFB01F06E49B1EBC00FF6D90020BD
:1031600081460E906BA1CDE900A166496CA0233980
:10317000059B129AFEF75AFF77A0FEF757FF774993
:103180001298884205D900BF6FF0150015B0BDE850
:10319000F08F0246059812994243119801FB0AF1FB
:1031A00090F8560108B1022000E001204143484652
:1031B0000DF1180E6A4B4AE00EEB8005DFF850C1A6
:1031C00095F90060CCF1000C06FB01F55643AC44C8
:1031D0009C453BD8AE4203D9B6FBF5F1494201E02C
:1031E000B5FBF6F15F4A954206D80446012900D1A5
:1031F0000021671A2E4614E06E080446042802D007
:10320000052804D007E0002905DB07270FE0002987
:1032100001DB012200E002221019012900D1002166
:10322000471A072F03D2002C01DB062C27DDB9F14A
:10323000070F0FD20E9868B1CDF80080DDE91101BB
:1032400009F101025B46FFF755FF9FE7401C072885
:10325000B2DBECE7072F03D2002C01DB062C0EDDDE
:103260002B48854201D240A200E045A225494AA050
:103270002339FEF7DBFE38A0FEF7D8FE84E74021B5
:10328000A5FB0102DFF83CC149080023BCEB000CA0
:10329000934101D20229F3D2CBE900050EEB84025F
:1032A0000EEB870192F90130B5FBF3F3CBF8083050
:1032B00092F90240B3FBF4F3CBF80C3092F90320FF
:1032C000B3FBF2F2B2FBFAF3CBE90423C8E9000640
:1032D00091F90100B6FBF0F0C8F8080091F902205E
:1032E000B0FBF2F0C8F80C0091F90310B0FBF1F05C
:1032F000C8F810000599B0FBF1F10020C8F81410CF
:1033000044E7000010E600084E6F6D696E616C00C6
:1033100040787D0148696768657374204F53520097
:1033200025733A20726571756573746564207261E6
:10333000746520257520545846495220696E7420C2
:103340002575205258464952206465632025752012
:103350006D6F6465202573000A0000000080A903DA
:10336000C027A82400D0121341444320636C6F632C
:103370006B2062656C6F77206C696D69740000006A
:103380004242504C4C20726174652061626F7665D8
:10339000206C696D6974000025733A204661696C80
:1033A000656420746F2066696E642073756974614A
:1033B000626C652064697669646572733A2025736E
:1033C0000000000080113C552DE9F0471D46914654
:1033D0000F46064641F288344FF49668484607F097
:1033E00046FE03464A4639467068FEF73FFEA8424D
:1033F00002D10020BDE8F087162F10D05FF07800D2
:1034000009F0F4FB641EE9D24A46394605A0FEF7EE
:103410000DFE0DA0FEF70AFE6FF06D00EAE74046D4
:10342000EEE7000043616C6962726174696F6E203F
:1034300054494D454F55542028307825582C20307C
:1034400078255829000000000A00000070B50D46DC
:10345000044601F0BDFDA068E1686843B0FBF1F0EF
:1034600070BD000070B504461068012516468842FC
:1034700006D801EB5001B1FBF0F0C4E902050EE003
:1034800000EB5100B0FBF1F0C4E9025038B90A4931
:103490000AA0FEF7CBFD0EA0FEF7C8FDE5600021F7
:1034A000204604F05FFE002805DB3068E168B0FBD1
:1034B000F1F0A168484370BD1CE7000825733A206D
:1034C000646976696465206279207A65726F0000AC
:1034D0000A0000002DE9F0411546134604460E4649
:1034E0000A46134913A0FEF7A1FD1BA0FEF79EFD9F
:1034F0000127AE4206D306EB5500B0FBF5F0C4E958
:1035000002070EE005EB5600B0FBF6F0C4E90270CE
:1035100038B9074911A0FEF789FD0FA0FEF786FD17
:10352000E7602046BDE8F041012104F01BBE000029
:1035300039E7000825733A2052617465202575200B
:10354000487A20506172656E74205261746520253E
:103550007520487A000000000A00000025733A2018
:10356000646976696465206279207A65726F00000B
:103570002DE9F04104460D460A464768104911A05E
:10358000FEF754FD13A0FEF751FD0521384600F06B
:103590008DFC012D10D00022207C13280ED000219C
:1035A000384606F0D3F8060000D4A560384600F08F
:1035B00027FD3046BDE8F0810122EDE70121EFE76C
:1035C000D3E7000825733A20696E64657820256486
:1035D000000000000A0000002DE9F0410546DDE989
:1035E0000674142008F0DAFA06006FF00B081AD0FF
:1035F000377474746868C6E9000505EB8700C66512
:10360000082008F0CBFA040014D0142F22D2DFE8EF
:1036100007F01919191B2426282A2C262E3032349B
:103620003A3C42464A4A22A0FEF700FD2FA0FEF790
:10363000FDFC02E0304607F03FFD4046BDE8F041AA
:10364000FDF7B2BBA86819E0E86841683046FFF7AB
:1036500075FB60602046BDE8F081A8690EE0E8696E
:103660000CE0286A0AE0686A08E0A86A06E0286BAD
:1036700004E0686B02E0A86B00E0E86B416830464C
:10368000FFF7E4FEE5E7286900E068694168304635
:1036900003F076FBDDE7D5F8C000806ED9E7D5F8FA
:1036A000C000006FD5E7304603F078FDD1E7000099
:1036B0006164393336315F636C6B5F726567697360
:1036C0007465723A20636F756C64206E6F7420614C
:1036D0006C6C6F63617465206669786564206661EF
:1036E00063746F7220636C6B000000000A000000BE
:1036F0002DE9F74F0446A0B0D4E9775000900020A0
:103700000C900D90F648924609AE07C886E807006F
:10371000F34953461339F3A0219AFEF787FCF7A02B
:10372000FEF784FC4FF48041009807F033F81E90B8
:10373000D4F8C000C17C022902D05FEA8A610ED5AC
:1037400090F8F7200621606805F000FFD4F8C0006B
:10375000072190F8F820606805F0F8FE5BE1012190
:10376000204606F0DDF95FEA4A7003D500212046C5
:1037700003F0C4F85FEA0A7003D50121204603F084
:10378000BDF8D4F8C0004078C8B10521204600F04B
:103790008DFB204600F034FC28684668042E00DDCE
:1037A000042602212046FFF72FFC4FF0000840F2CC
:1037B000044B202101A8FCF767FD00207CE00022DB
:1037C0000121204604F064FE0A21204600F06EFB31
:1037D000E2E7219878B1D4F8C00090F8F610C90655
:1037E0000DD4007858B1119809A951F8200041086A
:1037F000204605F061F90020054610900BE0119974
:1038000009A850F82110F3E70025109818B105F029
:103810000F00002201E000202A4660F31F1208F189
:103820000601606805F092FE002706E00BEB8711A9
:103830000622009806F0EBFF7F1CB742F6DB04205F
:1038400008F0E2F9B8F1010F05D05C21009806F00C
:10385000A1FFC0070DD00027B94607E00BEB871189
:10386000009806F097FF40EA09097F1CB742F5DB94
:1038700001E04FF00109109901A800EB0110415D32
:1038800041EA090141556D1C102DBEDB1098401C0A
:1038900010900228B8DB5FEA8A700BD5219848B1F6
:1038A000B8F1000F01D0012200E0002201A920465A
:1038B00000F036FA1198401C1190219808B10321AC
:1038C00000E001211198814283D80EAA102101A89D
:1038D00000F070FE05460FAA102105A800F06AFE50
:1038E000074655EA070007D05FEACA7026D0B8F14C
:1038F000000F1ED001221DE0B8F1000F01D00122FF
:1039000000E0002201A9204600F00AFAB8F1000FF9
:1039100001D07BA200E07BA271497BA01339FEF7A6
:1039200085FB76A0FEF782FB0C9860F004000C90FB
:1039300004E0002201A9204600F0F2F9AF4205D9C7
:103940000F9800EB57000007020E04E00E9800EB02
:10395000550000F00F0208F10601606805F0F6FD61
:10396000B8F1000F17D05FEA0A7003D50121204695
:1039700000F04EF900212046FFF7F4FA1E980821C6
:10398000B1EB104F05D944F248010D9A009806F0AA
:103990003EFF0025F3E05FEA4A7003D50021204690
:1039A00000F036F900212046FFF72EFB02224021CD
:1039B000009806F02CFF03224021009806F027FF14
:1039C000D4F8C000C07C01280BD001212046FFF7AD
:1039D000C9FA032244F24001009806F018FF0025BE
:1039E00064E05FEACA6007D40621606805F074FDF0
:1039F000D4F8C01081F8F700D4F8C000417831B98C
:103A00008279204604F044FD204600F0F9FA0021B6
:103A1000204606F085F8002023B0BDE8F08F00BFF7
:103A20004FF4806000EB85173946009806F0B2FE2F
:103A30001AA940F2512241F825003946009806F0B3
:103A4000E6FE09222946009806F0ABFE44F2144037
:103A500000EB85118946009806F09CFE014616A8E9
:103A600040F825101E990720B0EB114F18D244F2F0
:103A7000184000EB85110F46009806F08BFE12A946
:103A8000092241F825003946009806F0C0FE494653
:103A90000022009806F0BBFE012244F2440101E03E
:103AA00049460122009806F0B2FE6D1CB542B7DB14
:103AB0001E980821B1EB104F0ED944F24805294653
:103AC000009806F067FE0D9020F00F0040F0010214
:103AD0002946009806F09BFE08F1010869E60000FF
:103AE00004E9000825733A20667265712025752067
:103AF000666C61677320307825580A000A00000060
:103B0000545800005258000025733A2054756E69CD
:103B10006E67202573204641494C45442100000032
:103B20001AA850F825204FF4806000EB851100980A
:103B300006F06DFE00222946009806F032FE1E981F
:103B40000721B1EB104F0FD212A850F8252044F2F4
:103B5000184000EB8511009806F059FE012244F24E
:103B60004401009806F053FE16A850F8252044F2B0
:103B7000144000EB8511009806F049FE6D1CB5421B
:103B8000CEDB0C98401D17D05FEACA600FD4062127
:103B9000606805F0A1FCD4F8C01081F8F700072197
:103BA000606805F099FCD4F8C01081F8F800D4F8EA
:103BB000C0004178A9B11BE0D4F8C000062190F8FC
:103BC000F720606805F0C2FCD4F8C000072190F827
:103BD000F820606805F0BAFC21980028E7D10C9025
:103BE000E5E78279204604F053FC204600F008FA0D
:103BF00002224021009806F00AFE0322402100988C
:103C000006F005FE0021204605F08AFF0C9803E728
:103C10002DE9F04F8B46D0E97710824608688FB0C7
:103C20004568042D00DD04254FF0000940F20448EA
:103C300000265B4632464946504602F0F5FB01201D
:103C400007F0E2FF002406E008EB8411062250464C
:103C500006F0DDFD641CAC42F6DB0A2007F0D4FF61
:103C600000273C4607E000BF08EB8711504606F0EE
:103C700091FD04437F1CAF42F6DB07A88455761CF8
:103C8000202ED6DB05AA202100F094FC04460598DE
:103C90005B4600EB54024946504602F0C5FB0599CD
:103CA000BBF1000F01EB5400CDE9001001D00AA1D7
:103CB00000E00AA123464A4609A0FEF7B7F917A07B
:103CC000FEF7B4F909F10109B9F1070FB0DB0FB044
:103CD0000020BDE8F08F000054580000525800004A
:103CE0002573204C616E652025642C2077696E64F5
:103CF0006F7720636E74202575202C207374617299
:103D0000742025752C20494F44454C41592073653A
:103D10007420746F2025750A000000000A0000005E
:103D20002DE9F0410E461446C16F06F073FD0146C1
:103D30000CB119A200E019A219A0FEF777F91FA093
:103D4000FEF774F9002421461DA0FEF76FF9641CEC
:103D5000102CF8DB18A0FEF769F90024214618A002
:103D6000FEF764F9002506EB0417785D08B12321FE
:103D700000E06F2113A0FEF759F96D1C102DF4DB44
:103D80000DA0FEF753F9641C022CE7DBBDE8F041FF
:103D900009A0FEF74BB9000054580000525800002B
:103DA00053414D504C20434C4B3A2025752074759F
:103DB0006E696E673A2025730A000000202000001B
:103DC00025783A002563200070B516461346044650
:103DD0000D460A461E491FA0FEF728F922A0FEF74D
:103DE00025F900231A461946204605F035FC00281F
:103DF0002CDB0521204600F059F8022D0CD0102DA7
:103E000016D1D4F8480133464208D4F84401410899
:103E1000204605F0B7FE0BE02046D4F8A41006F0CB
:103E2000F9FC00F0EFFB02460B46204602F0E8FEEC
:103E300094F8983194F8962194F89711204605F05B
:103E40000BFC0546204600F0DBF8284670BD00005C
:103E5000B3E6000825733A2043414C2025752041E4
:103E600052472025640000000A000000F8B506460D
:103E70008807040E1546204607F0F9F8034600951A
:103E8000224603217068FEF704F9F8BDF8B506462E
:103E90008807040E1546204607F0E9F8034600950A
:103EA000224602217068FEF7F4F8F8BD2DE9F041D2
:103EB000054647680E460F2007F0D9F803460F2243
:103EC00017213846FEF7D2F8C4B285F8C440B44290
:103ED00002D1314623A021E0324621462DA0FEF733
:103EE000A5F836A0FEF7A2F81421384605F0F4FA3A
:103EF000C10603D520F01000012100E0002185F863
:103F000015110CB120F00100052E10D0062E08D09E
:103F1000082E09D00A2E04D0314629A0FEF786F8D3
:103F200018E040F0200406E040F0400403E020F0F8
:103F3000600040F0050405221421384605F006FB18
:103F400022461421384605F001FB002807D026A0A0
:103F5000FEF76CF8BDE8F04118A0FEF767B8BDE8C1
:103F6000F08100004E6F7468696E6720746F206482
:103F70006F2C2064657669636520697320616C72BB
:103F80006561647920696E202564207374617465AD
:103F90000000000044657669636520697320696EDE
:103FA0002025782073746174652C20666F726369B4
:103FB0006E6720746F202578000000000A00000062
:103FC0004E6F2068616E646C696E6720666F722048
:103FD000666F7263696E6720256420656E736D205D
:103FE00073746174650000004661696C65642074D7
:103FF0006F20726573746F726520737461746500ED
:1040000070B5466805461421304605F065FA95F806
:10401000C41020F06500082910D004DC052910D058
:10402000062904D107E00A2905D0FF2917D017A0D7
:10403000FDF7FCFF24E040F0200404E040F04004E1
:1040400001E040F0010405221421304605F07EFA1B
:1040500022461421304605F079FA70B901E014A027
:104060000CE095F8150100280FD044F0100214213F
:10407000304605F06BFA002807D018A0FDF7D6FFF0
:10408000BDE870401DA0FDF7D1BF70BD436F756CDA
:1040900064206E6F7420726573746F726520746F24
:1040A00020256420454E534D2073746174650000D3
:1040B0004E6F206E65656420746F20726573746F37
:1040C00072652C20454E534D2073746174652077C2
:1040D00061736E2774207361766564004661696C54
:1040E000656420746F20777269746520454E534D66
:1040F0005F434F4E4649475F310000000A00000011
:104100002DE9F8430F469046044690F8C510D0F8C4
:10411000049000263A4691A0FDF788FF98A0FDF78D
:1041200085FF94F8C50080281CD1D4F8C000007920
:1041300000B1102040F007020921484605F006FAB8
:10414000142008F053FD05221421484605F0FEF91D
:1041500001220021204605F0C1FB01221146204624
:1041600005F0BCFBD4F8C010487908B1002000E08D
:1041700008205FEA080200D01022104394F8992129
:1041800002B18022104340F001056FF01500082FA6
:1041900012D005DC9FB3052F32D0062F04D106E0E4
:1041A0000A2F12D0802F36D0394676A074E045F021
:1041B000200503E0064611E045F040054A7842B983
:1041C00094F8C520052AF5D11EE04A7845F020056F
:1041D000AAB9064694F8C500052857D015F0600F17
:1041E00054D025F0600040F005021421484605F047
:1041F000ADF905230F2217212046FFF7E5F803E06C
:1042000025F0600040F00505D4F8C000417851EA7F
:10421000080147D062E000221146204605F05EFB0F
:1042200000220121204605F059FB002214214846B6
:1042300005F08CF9D4F8C000407808B1202200E0E5
:1042400040221421484605F081F92046E16E06F02F
:10425000E1FA5649B1FBF0F008F0C8FC0022142145
:10426000484605F073F9012008F0C0FCD4F8C000FE
:10427000007908B1102200E000220921484605F02B
:1042800065F984F8C5700020BDE8F883487808B166
:1042900047A100E047A148A0FDF7C8FE38A0FDF700
:1042A000C5FE55E0007AC8B9062F01D0082F15D1F8
:1042B000102006F0DCFE0346062F25D000200090DB
:1042C000102215216068FDF7E4FE062F1ED040F293
:1042D0004721012302222046FFF776F82A461421BF
:1042E000484605F033F9060005D03EA0FDF79EFED6
:1042F00023A0FDF79BFE680628D594F8940140B1F1
:1043000094F8950128B121E00120D8E740F28721F7
:10431000DFE740F207184146484605F0DDF800F0B7
:104320003F0594F89401A8B15FF0000045EA00024F
:1043300094F8950180B1002002434146484605F0BB
:1043400005F92A464146484605F000F984F8C5704B
:10435000304699E74020E9E78020EDE7446576693B
:10436000636520697320696E2025782073746174F9
:10437000652C206D6F76696E6720746F202578003C
:104380000A0000004E6F2068616E646C696E6720E1
:10439000666F7220666F7263696E672025642065A0
:1043A0006E736D2073746174650000000060E31625
:1043B0004644440054444400496E76616C6964206C
:1043C000454E534D207374617465207472616E7331
:1043D0006974696F6E20696E202573206D6F646546
:1043E000000000004661696C656420746F2072658E
:1043F00073746F7265207374617465002DE9F84FF2
:104400001F0093460E46044601D050A000E051A084
:1044100000900EB152A200E052A25B46524953A056
:10442000FDF704FE57A0FDF701FE16B1402501205F
:1044300001E00025022004EB0609804699F8A90155
:1044400000B1012037EA00014FF0010A2FD0D4F863
:10445000C00016B1D0F88C0001E0D0F88800FA2135
:10446000B0FBF1F205F25B21606805F06FF80BF02C
:1044700007000AEB4012574605F25A21606805F022
:1044800065F8002205F25F21606805F05FF840469C
:1044900006F0EDFD03460097424615216068FDF7E2
:1044A000F8FD00223146204605F018FA4BE0B843EB
:1044B00049D0002205F25A21606805F047F88020B3
:1044C00006F0D5FDCDF800A00346574605F236218B
:1044D00080228A466068FDF7DCFD012006F0C7FDFA
:1044E0000097D4F804C0034605F50E7101220F466B
:1044F0006046FDF7CEFD802006F0B9FD002503469D
:104500000095802251466068FDF7C3FD012006F04A
:10451000AEFD0095D4F804C003460122394660463A
:10452000FDF7B7FD01223146204605F0D7F9404698
:1045300006F09DFD03460095424615216068FDF793
:10454000A8FD89F8A9510020BDE8F88F5072657068
:1045500061726500556E2D50726570617265000064
:10456000545800005258000057E6000825733A20BE
:1045700025732050726F66696C652025753A202579
:10458000730000000A00000070B50546002401B168
:10459000402402F007001A4660F31F1204F5177159
:1045A000284604F0D3FF04F25E212846BDE870409F
:1045B00004F092BF2DE9F047002492468146621E26
:1045C0002046254623469046264609E019F8037002
:1045D0009FB1844201DD20461546424600245B1C03
:1045E000DF17B3EB010CB741F0DB844201DD20465D
:1045F0001546CAF80050BDE8F087571C00D11A468E
:10460000641CECE700210018494170472DE9F84F80
:104610000C460746D0F804A0FD49FEA0FDF706FDB4
:10462000FDA0FDF703FD2078E021032802D0627889
:10463000032A00D1F021627887F8940102F0030385
:10464000024663F39F0260780A4387F89501FA21D6
:10465000504604F07BFF012006F009FD0346E07B95
:1046600000900122FB215046FDF713FD022006F0C9
:10467000FEFC0346207C00900222FB215046FDF701
:1046800008FD042006F0F3FC0346607B0090042242
:10469000FB215046FDF7FDFCA07808280DD201282B
:1046A00000D80120A070401E00F00701D7F8C0001C
:1046B000C07868B1E07B20B901E00820F2E7207CF7
:1046C00030B1E07C012803D0022817D041F0080166
:1046D000607C082815D2012800D801206074401E93
:1046E00000F0070041EA4012FC21504604F02EFF82
:1046F000D7F8C000C07830B1282505E041F010019E
:10470000E6E70820EAE74C252A46FD21504604F05A
:104710001DFF2A4640F20911504604F017FF2A46B1
:104720004FF48671504604F011FFA07C082824D273
:10473000012800D80120A0744007020EFE21504637
:1047400004F004FF607B58B194F82500A27B00F0D0
:10475000070060F35F124FF48071504604F0F6FEDC
:104760002279E0784FF482714D1C824207D30246D1
:10477000504604F0EBFE227905E00820DBE75046C6
:1047800004F0E4FEE2782946504604F0DFFEE088BB
:104790004FF0FF3505EB10123F2A00D33F224FF4B4
:1047A0008471504604F0D2FE208905EB10153F2D90
:1047B00000D33F253F2006F05AFC03463F2240F23B
:1047C000071150460095FDF764FCD7F8C000C0788B
:1047D00088B158224FF48571504604F0B7FE182274
:1047E00040F20D11504604F0B1FE27224FF48D71B6
:1047F000504604F0ABFE002240F20B11504604F08C
:10480000A5FE00224FF48771504604F09FFE207BE6
:10481000402800D3402042004FF48A71504604F0F3
:1048200095FE00228121504604F090FE402006F0C3
:104830001EFC4FF4AE780346012640224546414611
:1048400050460096FDF725FC202006F010FC03469C
:104850002022294650460096FDF71BFC20780128AF
:104860002AD06078012827D06089000906F0FAFE76
:1048700005460F2006F0FBFB03460F22414650463B
:104880000095FDF706FCE57D7F2D00D37F25A8462A
:104890007F2006F0ECFB03467F2240F201115046D8
:1048A0000095FDF7F6FB657E7F2D00D37F2594F8FC
:1048B000200018B1802202E0206BD6E700222A43B4
:1048C0004FF49071504604F041FE617DA8EB010069
:1048D000E17E00F00F004A1B60F31F1240F2291125
:1048E000504604F033FEA07D227F00F00F0060F3FD
:1048F0001F124FF49571504604F028FE94F82C00D6
:1049000000B1082094F82D1001B18021084314F85B
:10491000181F01F0070140EA0112A07840F22311AC
:1049200000F007000243504604F010FEA0796279BF
:1049300000F00F0060F31F124FF49171504604F025
:1049400005FE0F2006F093FB0346E0790F2200F0EE
:104950000F0000904FF483715046FDF79AFB607A88
:10496000A27A00F00F0060F31F1240F221115046AE
:1049700004F0ECFD1C2006F07AFB0346E07A009080
:104980001C2240F203115046FDF783FB207B00F010
:104990000F02A07B183C00B1102002434FF4947129
:1049A000504604F0D3FD012006F061FB034614F8E5
:1049B000380F4FF488780090012241465046FDF7A9
:1049C00068FB627840F21B11504604F0BFFDA578E9
:1049D000383C6D1E072D00D30725E02006F047FB6D
:1049E0000346E02240F2171150460095FDF751FBB7
:1049F000402006F03CFB94F83C10034640F21119AD
:104A00000091402249465046FDF743FB06E0000076
:104A10002EE50008257300000A00000094F83D50C0
:104A20003F2D00D33F253F2006F021FB03463F22C8
:104A30004FF48C7150460095FDF72BFB94F83E50D7
:104A4000032D00D30325C02006F011FB0346C0222E
:104A50004FF4897150460095FDF71BFB94F83F50C9
:104A6000032D00D30325C02006F001FB0346C0221E
:104A700040F2131150460095FDF70BFB94F840509F
:104A8000072D00D30725E02006F0F1FA03464FF486
:104A90008B7BE022594650460095FDF7FAFA8020BC
:104AA00006F0E5FA94F84110034600918022414651
:104AB0005046FDF7EEFA94F84250102006F0D7FA6F
:104AC0000346012D3FD00020009010224146504661
:104AD000FDF7DFFA042006F0CAFA0346022D34D0AF
:104AE00000200090042241465046FDF7D2FA802073
:104AF00006F0BDFA034694F8430000908022494630
:104B00005046FDF7C6FA94F844500F2D00D30F25F8
:104B10000F2006F0ACFA03460F2259465046009586
:104B2000FDF7B7FA94F8450058B194F8470040B142
:104B300094F84B0028B194F84C0010B194F84D0053
:104B400028B1012504E00120BEE70120C9E70025C6
:104B5000402006F08CFA03464022FB215046009587
:104B6000FDF797FA94F84500E0B30025802006F0A1
:104B70007EFA0346802240F2151150460095FDF75B
:104B800088FA94F846503F2D00D33F253F2006F089
:104B90006EFA03463F2240F2131150460095FDF78E
:104BA00078FA94F849503F2D00D33F253F2006F076
:104BB0005EFA03463F224FF4897150460095FDF797
:104BC00068FA94F84850402006F051FA0346402213
:104BD000414650460095FDF75CFA94F84700E8B36B
:104BE000002500E049E0082006F041FA03460822CB
:104BF000414650460095FDF74CFA94F84A503F2D37
:104C000000D33F253F2006F032FA03463F2240F210
:104C1000191150460095FDF73CFA94F84B0070B31B
:104C200094F84C0058B30025022006F020FA034601
:104C30000222414650460095FDF72BFA94F84B00AE
:104C400010B30025802006F012FA034680224FF4AC
:104C50008A7150460095FDF71CFA00E010E094F8C8
:104C60004D00002578B394F84E0078B101282BD080
:104C700002283BD0032858D160E0012576E701E007
:104C80000125AEE70125CFE70125DBE7202006F06F
:104C9000EEF903462022494650460096FDF7F9F901
:104CA000202006F0E4F903462022464641465046BD
:104CB0000095FDF7EEF9402006F0D9F903464022B1
:104CC000314600952EE039E0202006F0D0F9034669
:104CD0002022494650460095FDF7DBF9202006F0DA
:104CE000C6F903462022414600961BE0202006F02C
:104CF000BEF903462022494650460096FDF7C9F901
:104D0000202006F0B4F9034600952022454641468E
:104D10005046FDF7BEF9402006F0A9F903464022AF
:104D2000294600965046FDF7B4F994F84F00000963
:104D300006F098FC0F2813D2044612E0202006F05B
:104D400096F903462022414650460095FDF7A1F909
:104D5000202006F08CF90346202249460095E1E721
:104D60000F24E02006F083F90346E0224FF485711A
:104D700050460094FDF78DF9802006F078F903463F
:104D8000E0080090802240F209115046FDF781F9B9
:104D90003846BDE8F84F00F001B800002DE9FC5F8F
:104DA0000546406801902846A96F05F033FD064688
:104DB0004FF4FA70B6FBF0F0804AD5F8C010B2FBA1
:104DC000F0F2D1F80441C820604302EB50004FF4E8
:104DD0007A7900F2E730B0FBF9F091F8A8100844B6
:104DE000C7B21F2F03D210F0FF0F03D101E01F271E
:104DF00000E000273F2006F03AF903463F22222137
:104E000000970198FDF745F98046B6FBF9F0DFF809
:104E1000B0A104F16401484300EB0A010AF1010B5F
:104E2000B1FBFBF0401CC7B21F2F03D210F0FF0FE5
:104E300003D101E01F2700E000271F2006F017F92B
:104E400003461F22FE2100970198FDF722F940EA50
:104E500008074FF4FA60B6FBF0F0C83400FB04A179
:104E6000DA46B1FBFAF0C01DC4B21F2C03D210F019
:104E7000FF0F03D101E01F2400E000241F2006F0F3
:104E8000F6F803461F2240F2111100940198FDF735
:104E900000F940EA0708B6FBF9F06FF07C0114FB5B
:104EA00001F1484A02EB0112D5F8C010D1F8BC302C
:104EB00003FB00204FF4FA6200F57A70B0FBF2F4C5
:104EC0004148844200D214B1844200D3044695F88C
:104ED0009401012835D095F89501012831D0284654
:104EE000E96F05F097FC06EB50072846E96F05F0DF
:104EF00091FCB7FBF0F16200B2FBF1F2D5F8C00013
:104F0000B0F89E00B2FBF0F2022A01D2B4FBF1F03D
:104F1000000906F0A7FB07460F2006F0A8F8034695
:104F20000F224FF4AE7100970198FDF7B2F82020E0
:104F300006F09DF84FF4803B03465C4504D3012006
:104F400003E0D1F8C400E3E70020009020224FF4F2
:104F500094710198FDF79DF840EA08075C4500D37D
:104F60006408E2B24FF49271019804F0EFFA40EA5B
:104F70000708220A40F22511019804F0E7FA40EAF6
:104F80000804B6FBF9F0D5F8C010104AD1F8C810E3
:104F900001FB0021B1FBFAF51F2D00D31F251F20B7
:104FA00006F065F803461F2240F21711009501989C
:104FB000FDF76FF82043BDE8FC9F0000809FD500FF
:104FC0003F420F0030F8FFFFFFFF010020A1070064
:104FD0002DE9F04704460768007C002601254FF4C0
:104FE0002B786FF015090E2837D2DFE800F0070E96
:104FF000253639444A585E6A71777D8445213846A2
:1050000004F06AFA00F003001FE0012006F02FF818
:105010000346012240F2AB213846FDF727F805464A
:10502000802006F024F80346802241463846FDF7EA
:105030001DF840EA450008E00C2006F018F8034689
:105040000C2241463846FDF711F8002862D00128AD
:1050500062D0022866D0032867D04846BDE8F087B2
:105060000A21384604F038FA00F0070105FA01F089
:10507000C4E9025023E0302005F0F9FF0346302256
:1050800004E0082005F0F3FF034608220321384618
:10509000FCF7ECFF0121401CC4E902100FE00420E2
:1050A00005F0E5FF03460422F0E7032005F0DFFFEB
:1050B00003220346114624E00120C4E902053046DC
:1050C000CCE7082005F0D3FF082203460A21DEE7DB
:1050D000302005F0CCFF034630220AE0082005F01E
:1050E000C6FF0346082204E0042005F0C0FF034683
:1050F00004220221CBE7032005F0B9FF0322034677
:1051000002213846FCF7B2FF10B1401E8540D3E7BC
:105110000125D1E7012009E001200221C4E90201B3
:1051200000209BE701200421F8E702200121F5E798
:105130002DE9F0478846144605464FF000094668B9
:10514000D0F8A41005F066FBFFF75CFA00F056FA01
:1051500007467F2005F08BFF03467F2241463046FD
:10516000FCF784FF0146A06007EB470005EBC00099
:10517000D0F8E020CC308A4205DA891A4268C0684B
:1051800001FB002500E045681F2005F070FF034685
:105190001F2208F102013046FCF768FF656060617C
:1051A0004846BDE8F08790F8540118B10020087017
:1051B000002070470120FAE72DE9F047D0F804906D
:1051C0009246804601290BD002290FD028A0FCF777
:1051D0002DFF2CA0FCF72AFF6FF01500BDE8F0872B
:1051E00000264FF42C774024354604E00226802424
:1051F00040F2B5270425204605F039FF0346224634
:1052000003214846FCF732FF6FF00A0448B1FA2147
:10521000484604F061F9F04000F00300012804D092
:1052200015E019A0DAF800100AE040F2B321484670
:1052300004F052F9E84000F00701052907D017A053
:10524000FCF7F4FE0FA0FCF7F1FE2046C6E7D8F805
:10525000C00052463946C0780028404603D0BDE819
:10526000F04700F08BB8BDE8F047FFF761BF0000E2
:10527000556E6B6E6F776E20527820706174682067
:10528000257500000A0000005278257520697320FA
:105290006E6F7420656E61626C6564004661696C56
:1052A000656420746F2072656164206761696E2C8B
:1052B000207374617465206D2F63206174202578DC
:1052C00000000000084490F894011070002070471E
:1052D00010B50C46D0F8A41005F09CFAFFF792F92F
:1052E000C4E90001002010BDD0F84401086000208E
:1052F0007047000070B58AB00C460646154624215A
:105300006846FAF7C1FFD6F8C000007808B9012C4A
:105310000DD0621C00213046FDF7DBFB01466A46DA
:105320003046FFF749FF019929600AB070BD034973
:1053300003A0FCF77BFE4FF0FF30F6E70FE8000814
:105340002573203A2052583220697320616E2069FB
:105350006E76616C6964206F7074696F6E20696E1F
:1053600020317831206D6F6465210A0010B50C463C
:10537000C16F05F04FFA2060002010BD2DE9F04705
:105380000646D0F8048014460D4600277F2005F01D
:105390006EFE03467F2229464046FCF767FE4FF427
:1053A0009879A0604946404604F096F882464946FE
:1053B0004046A26804F0CAF84FF49A71404604F0DF
:1053C0008BF8C0F3411100F01F00A1612062202082
:1053D00005F04DFE0346202240F235114046FCF711
:1053E00045FEE06196F81411184BA26903EB8103A6
:1053F000164ED256236A0C3606EB0111595611444B
:10540000134A105652460844E0604946404604F0AC
:105410009DF81F2005F02BFE03461F22691C404605
:10542000FCF724FE20611F2005F021FE03461F2209
:10543000A91C4046FCF71AFE6061D4E9031211442E
:10544000084460603846BDE8F0870000E0E10008ED
:1054500034CC000808B501290DD07621406802231C
:105460006A4604F043F8002804DBBDF80000FA2186
:1054700040BA484308BD7421F0E7000070B5054606
:10548000D0F8C0001446007808B901290DD04A1C94
:1054900001212846FDF71DFB01462846FFF7DAFFEC
:1054A000002801DB2060002070BD034903A0FCF749
:1054B000BDFD4FF0FF3070BD8BE800082573203A2A
:1054C0002054583220697320616E20696E76616CB9
:1054D0006964206F7074696F6E20696E2031783155
:1054E000206D6F6465210A0090F8550118B1002005
:1054F0000870002070470120FAE710B50C46D0F87C
:10550000A81005F087F9FFF77DF8C4E90001002035
:1055100010BDD0F8480108600020704710B50C4657
:10552000D0F8901005F076F92060002010BD000042
:1055300070B50C4645682E492EA0FCF777FD2EA0CD
:10554000FCF774FD2079A179A27A40EA4100217A22
:10555000E37A890041EAC20108436179E27900F007
:105560000F0041EA4202617A890041EAC3010A431D
:1055700060F31F122021284603F0E8FF20786178AD
:10558000E27840EA4100A178890041EAC20108437B
:1055900000F00F022721284603F0D8FF227B2821A4
:1055A000284603F0D3FF627B2C21284603F0CEFF70
:1055B000A27B2921284603F0C9FFE27B2D21284642
:1055C00003F0C4FF227C2A21284603F0BFFF627C3F
:1055D0002E21284603F0BAFFA27C2B21284603F097
:1055E000B5FFE27C2F21284603F0B0FF002070BDFC
:1055F0008FE50008257300000A000000074B002219
:105600001B1A8A4101D300207047054B0022181A4B
:105610008A4101D30120704702207047006D7C4D04
:1056200000286BEE2DE9F05FD0E977508A4683467B
:105630004FF4804105F0AEF806464FF00709B9EB8C
:10564000164F02D244F2184701E044F214470024F6
:1056500027E000BF07EB84118846584605F09AF80A
:105660000246B9EB164F0FD2BAF1000F06D0082A46
:1056700006D005EB8400426008220DE0082A0BD119
:1056800005EB8400426807E0BAF1000F02D042F057
:10569000020201E022F002024146584605F0B7F846
:1056A000641C28684068A042D4DC0020BDE8F09F5C
:1056B0002DE9F04180460D4600264FF4007007F0BA
:1056C0009EFA04006FF00B077DD0FE486060082052
:1056D00007F095FAA0600028F6D04FF4B87007F0F4
:1056E0008EFAC4F8C0000028EED0442007F087FAF4
:1056F000C4F8DC010028E7D0082007F080FAC4F8DD
:10570000E0010028E0D0046028782070687860709C
:10571000A16868684860E87A00B10120D4F8C01038
:105720004870287B00B10120D4F8C0108870287A16
:1057300000B10120D4F8C0100870D4F8C010687A05
:105740008862D4F8C010A87AC862687B00B10120D2
:10575000D4F8C0100872A87B00B10120D4F8C010A2
:105760004872D4F8C0106869C1F88800D4F8C01035
:105770002869C1F88C00287E00B10120D4F8C0103F
:1057800081F89000687E00B10120D4F8C01081F843
:1057900091002178002002297ED0A97E01B101214B
:1057A000D4F8C0209172E97E01B10121D4F8C02063
:1057B000D172D4F8C020297F9173D4F8C020697FBA
:1057C000D173A97F00E0FDE3D4F8C0201174D4F8B0
:1057D000C020E97F5174D4F8C02095F8201091744E
:1057E00095F8211001B10121D4F8C020D170D4F86E
:1057F000C020696A116695F8281001B10121D4F81A
:10580000C020517395F8291001B10121D4F8C020AE
:10581000517195F82A1001B10121D4F8C02091717D
:10582000D5E90C12D4F8C030C3E91A12D5E90E122A
:10583000D4F8C030C3E91C125FF0300105EB8602DA
:1058400001EB8607D4F8C030126C761CDA51062EB4
:10585000F4DB00215FF0480205EB810302EB8107D6
:10586000D4F8C0609B6D491CF3510629F4DBD4F8D1
:10587000C020296F9167D4F8C020696FD167D4F830
:10588000C020A96F1162D4F8C020E96F5162D5F829
:105890008010D4F8C02000E0FEE3C2F8801095F834
:1058A000841001B10121D4F8C02082F8841022783C
:1058B0000121022A7DD095F8852002B10122D4F879
:1058C000C0301A71D4F8C030D5F888209A61D4F865
:1058D000C030D5F88C20DA61D4F8C03095F890202B
:1058E00083F89220D4F8C03095F8942083F894205F
:1058F000D4F8C03095F8952083F89520D4F8C030BE
:1059000095F8962083F89820D4F8C03095F8972021
:1059100083F89620D4F8C03095F8982083F8972023
:10592000D4F8C030B5F89A20A3F89E2095F89C20B2
:1059300002B10122D4F8C03083F8A120D4F8C030DD
:10594000B5F89E20A3F89A20D4F8C030B5F8A0206E
:10595000A3F89C20D4F8C03095F8A22083F8A020AA
:10596000D4F8C03095F8A32083F8A220D4F8C03032
:1059700095F8A42083F8A620D4F8C03095F8A52087
:1059800083F8A52095F8A62002B10122D4F8C030F2
:1059900083F8A32095F8A72002B10122D4F8C030E3
:1059A00083F8A420D4F8C03095F8A82083F8A72065
:1059B00000E0FCE3D4F8C03095F8A92083F8B220C9
:1059C000D4F8C03095F8AA2083F8B32095F8AB201E
:1059D00002B10122D4F8C03083F8B420D4F8C0302A
:1059E00095F8AC2083F8B120D4F8C03095F8AD20FC
:1059F00083F8B920D4F8C03095F8AE2083F8B820E9
:105A0000D4F8C030D5F8B020C3F8BC2095F8B42045
:105A100002B10122D4F8C03083F8C02095F8B52037
:105A200002B10122D4F8C03083F8C120D4F8C030CC
:105A300095F8B62083F8AB20D4F8C03095F8B7209D
:105A400083F8AC20D4F8C03095F8B82083F8AD20A6
:105A5000D4F8C03095F8B92083F8AE20D4F8C0301F
:105A600095F8BA2083F8B520D4F8C03095F8BB205B
:105A700083F8B720D4F8C03095F8BC2083F8B6205E
:105A8000D4F8C03095F8BD2083F8A920D4F8C030F0
:105A900095F8BE2083F8AA20D4F8C03095F8BF202E
:105AA00083F8AF20D4F8C03095F8C02083F8B02038
:105AB000D4F8C03095F8C42083F8A82095F8C82001
:105AC0001AB101E0700800200122D4F8C03083F838
:105AD000BA20D4F8C030D5F8CC20C3F8C420D4F80C
